{
	"contracts/Router/primaryRouter.sol": {
		"primaryRouter": {
			"abi": [
				{
					"inputs": [
						{
							"internalType": "address",
							"name": "_multisig",
							"type": "address"
						}
					],
					"stateMutability": "nonpayable",
					"type": "constructor"
				},
				{
					"anonymous": false,
					"inputs": [
						{
							"indexed": true,
							"internalType": "bytes32",
							"name": "role",
							"type": "bytes32"
						},
						{
							"indexed": true,
							"internalType": "bytes32",
							"name": "previousAdminRole",
							"type": "bytes32"
						},
						{
							"indexed": true,
							"internalType": "bytes32",
							"name": "newAdminRole",
							"type": "bytes32"
						}
					],
					"name": "RoleAdminChanged",
					"type": "event"
				},
				{
					"anonymous": false,
					"inputs": [
						{
							"indexed": true,
							"internalType": "bytes32",
							"name": "role",
							"type": "bytes32"
						},
						{
							"indexed": true,
							"internalType": "address",
							"name": "account",
							"type": "address"
						},
						{
							"indexed": true,
							"internalType": "address",
							"name": "sender",
							"type": "address"
						}
					],
					"name": "RoleGranted",
					"type": "event"
				},
				{
					"anonymous": false,
					"inputs": [
						{
							"indexed": true,
							"internalType": "bytes32",
							"name": "role",
							"type": "bytes32"
						},
						{
							"indexed": true,
							"internalType": "address",
							"name": "account",
							"type": "address"
						},
						{
							"indexed": true,
							"internalType": "address",
							"name": "sender",
							"type": "address"
						}
					],
					"name": "RoleRevoked",
					"type": "event"
				},
				{
					"anonymous": false,
					"inputs": [
						{
							"indexed": true,
							"internalType": "address",
							"name": "_seller",
							"type": "address"
						},
						{
							"indexed": false,
							"internalType": "address",
							"name": "_friggTokenAddress",
							"type": "address"
						},
						{
							"indexed": false,
							"internalType": "uint256",
							"name": "_amount",
							"type": "uint256"
						}
					],
					"name": "SuccessfulExpiration",
					"type": "event"
				},
				{
					"anonymous": false,
					"inputs": [
						{
							"indexed": true,
							"internalType": "address",
							"name": "_buyer",
							"type": "address"
						},
						{
							"indexed": false,
							"internalType": "address",
							"name": "_friggTokenAddress",
							"type": "address"
						},
						{
							"indexed": false,
							"internalType": "uint256",
							"name": "_amount",
							"type": "uint256"
						}
					],
					"name": "SuccessfulPurchase",
					"type": "event"
				},
				{
					"inputs": [],
					"name": "DEFAULT_ADMIN_ROLE",
					"outputs": [
						{
							"internalType": "bytes32",
							"name": "",
							"type": "bytes32"
						}
					],
					"stateMutability": "view",
					"type": "function"
				},
				{
					"inputs": [
						{
							"internalType": "address",
							"name": "_outputTokenAddress",
							"type": "address"
						},
						{
							"internalType": "address",
							"name": "_uIdContract",
							"type": "address"
						},
						{
							"internalType": "address",
							"name": "_issuer",
							"type": "address"
						},
						{
							"internalType": "uint256",
							"name": "_issuancePrice",
							"type": "uint256"
						},
						{
							"internalType": "uint256",
							"name": "_expiryPrice",
							"type": "uint256"
						},
						{
							"internalType": "address",
							"name": "_issuanceTokenAddress",
							"type": "address"
						}
					],
					"name": "add",
					"outputs": [],
					"stateMutability": "nonpayable",
					"type": "function"
				},
				{
					"inputs": [
						{
							"internalType": "address",
							"name": "friggTokenAddress",
							"type": "address"
						},
						{
							"internalType": "uint256",
							"name": "inputTokenAmount",
							"type": "uint256"
						}
					],
					"name": "buy",
					"outputs": [],
					"stateMutability": "nonpayable",
					"type": "function"
				},
				{
					"inputs": [
						{
							"internalType": "bytes32",
							"name": "role",
							"type": "bytes32"
						}
					],
					"name": "getRoleAdmin",
					"outputs": [
						{
							"internalType": "bytes32",
							"name": "",
							"type": "bytes32"
						}
					],
					"stateMutability": "view",
					"type": "function"
				},
				{
					"inputs": [
						{
							"internalType": "bytes32",
							"name": "role",
							"type": "bytes32"
						},
						{
							"internalType": "address",
							"name": "account",
							"type": "address"
						}
					],
					"name": "grantRole",
					"outputs": [],
					"stateMutability": "nonpayable",
					"type": "function"
				},
				{
					"inputs": [
						{
							"internalType": "bytes32",
							"name": "role",
							"type": "bytes32"
						},
						{
							"internalType": "address",
							"name": "account",
							"type": "address"
						}
					],
					"name": "hasRole",
					"outputs": [
						{
							"internalType": "bool",
							"name": "",
							"type": "bool"
						}
					],
					"stateMutability": "view",
					"type": "function"
				},
				{
					"inputs": [
						{
							"internalType": "bytes32",
							"name": "role",
							"type": "bytes32"
						},
						{
							"internalType": "address",
							"name": "account",
							"type": "address"
						}
					],
					"name": "renounceRole",
					"outputs": [],
					"stateMutability": "nonpayable",
					"type": "function"
				},
				{
					"inputs": [
						{
							"internalType": "bytes32",
							"name": "role",
							"type": "bytes32"
						},
						{
							"internalType": "address",
							"name": "account",
							"type": "address"
						}
					],
					"name": "revokeRole",
					"outputs": [],
					"stateMutability": "nonpayable",
					"type": "function"
				},
				{
					"inputs": [
						{
							"internalType": "address",
							"name": "friggTokenAddress",
							"type": "address"
						},
						{
							"internalType": "uint256",
							"name": "inputFriggTokenAmount",
							"type": "uint256"
						}
					],
					"name": "sell",
					"outputs": [],
					"stateMutability": "nonpayable",
					"type": "function"
				},
				{
					"inputs": [
						{
							"internalType": "bytes4",
							"name": "interfaceId",
							"type": "bytes4"
						}
					],
					"name": "supportsInterface",
					"outputs": [
						{
							"internalType": "bool",
							"name": "",
							"type": "bool"
						}
					],
					"stateMutability": "view",
					"type": "function"
				},
				{
					"inputs": [
						{
							"internalType": "address",
							"name": "",
							"type": "address"
						}
					],
					"name": "tokenData",
					"outputs": [
						{
							"internalType": "address",
							"name": "issuer",
							"type": "address"
						},
						{
							"internalType": "address",
							"name": "uIdContract",
							"type": "address"
						},
						{
							"internalType": "uint256",
							"name": "issuancePrice",
							"type": "uint256"
						},
						{
							"internalType": "uint256",
							"name": "expiryPrice",
							"type": "uint256"
						},
						{
							"internalType": "address",
							"name": "issuanceTokenAddress",
							"type": "address"
						}
					],
					"stateMutability": "view",
					"type": "function"
				}
			],
			"devdoc": {
				"author": "Frigg team",
				"details": "inherits from the OpenZepplin AccessControl",
				"kind": "dev",
				"methods": {
					"add(address,address,address,uint256,uint256,address)": {
						"details": "only allows DEFAULT_ADMIN_ROLE to add Frigg-issued tokens to this router",
						"params": {
							"_expiryPrice": "Price of token at expiry date",
							"_issuancePrice": "Price of token at issuance",
							"_issuanceTokenAddress": "Address of Accepted token to purchase Frigg-issued token ",
							"_issuer": "Issuer address to receive issuance proceeds",
							"_outputTokenAddress": "Frigg-issued token address",
							"_uIdContract": "Whitelister contract address"
						}
					},
					"buy(address,uint256)": {
						"details": "initially users can only buy Frigg-issued asset backed tokens with USDC i.e. inputToken is USDC and outputToken is the ABTinputTokenAmount should be in the same number of decimals as issuanceTokenAddress implemented",
						"params": {
							"friggTokenAddress": "Frigg-issued token address",
							"inputTokenAmount": "amount of tokens spent to buy Frigg-issued token"
						}
					},
					"constructor": {
						"details": "set DEFAULT_ADMIN_ROLE to a multisig address controlled by FriggDEFAULT_ADMIN_ROLE is defined within OZ's AccessControl"
					},
					"getRoleAdmin(bytes32)": {
						"details": "Returns the admin role that controls `role`. See {grantRole} and {revokeRole}. To change a role's admin, use {_setRoleAdmin}."
					},
					"grantRole(bytes32,address)": {
						"details": "Grants `role` to `account`. If `account` had not been already granted `role`, emits a {RoleGranted} event. Requirements: - the caller must have ``role``'s admin role. May emit a {RoleGranted} event."
					},
					"hasRole(bytes32,address)": {
						"details": "Returns `true` if `account` has been granted `role`."
					},
					"renounceRole(bytes32,address)": {
						"details": "Revokes `role` from the calling account. Roles are often managed via {grantRole} and {revokeRole}: this function's purpose is to provide a mechanism for accounts to lose their privileges if they are compromised (such as when a trusted device is misplaced). If the calling account had been revoked `role`, emits a {RoleRevoked} event. Requirements: - the caller must be `account`. May emit a {RoleRevoked} event."
					},
					"revokeRole(bytes32,address)": {
						"details": "Revokes `role` from `account`. If `account` had been granted `role`, emits a {RoleRevoked} event. Requirements: - the caller must have ``role``'s admin role. May emit a {RoleRevoked} event."
					},
					"sell(address,uint256)": {
						"details": "inputFriggTokenAmount should be in 18 decimals",
						"params": {
							"friggTokenAddress": "Frigg-issued token address",
							"inputFriggTokenAmount": "amount of Frigg tokens for sale i.e. inputToken is ABT and outputToken is USDC"
						}
					},
					"supportsInterface(bytes4)": {
						"details": "See {IERC165-supportsInterface}."
					}
				},
				"title": "A router contract for primary market activity for Frigg Asset-backed Tokens (ABT)",
				"version": 1
			},
			"evm": {
				"assembly": "    /* \"contracts/Router/primaryRouter.sol\":494:6417  contract primaryRouter is AccessControl {... */\n  mstore(0x40, 0x80)\n    /* \"contracts/Router/primaryRouter.sol\":757:851  constructor(address _multisig) ... */\n  callvalue\n  dup1\n  iszero\n  tag_1\n  jumpi\n  0x00\n  dup1\n  revert\ntag_1:\n  pop\n  mload(0x40)\n  sub(codesize, bytecodeSize)\n  dup1\n  bytecodeSize\n  dup4\n  codecopy\n  dup2\n  dup2\n  add\n  0x40\n  mstore\n  dup2\n  add\n  swap1\n  tag_2\n  swap2\n  swap1\n  tag_3\n  jump\t// in\ntag_2:\n    /* \"contracts/Router/primaryRouter.sol\":803:844  _grantRole(DEFAULT_ADMIN_ROLE, _multisig) */\n  tag_6\n    /* \"@openzeppelin/contracts/access/AccessControl.sol\":2072:2076  0x00 */\n  0x00\n    /* \"contracts/Router/primaryRouter.sol\":814:832  DEFAULT_ADMIN_ROLE */\n  dup1\n  shl\n    /* \"contracts/Router/primaryRouter.sol\":834:843  _multisig */\n  dup3\n    /* \"contracts/Router/primaryRouter.sol\":803:813  _grantRole */\n  shl(0x20, tag_7)\n    /* \"contracts/Router/primaryRouter.sol\":803:844  _grantRole(DEFAULT_ADMIN_ROLE, _multisig) */\n  0x20\n  shr\n  jump\t// in\ntag_6:\n    /* \"contracts/Router/primaryRouter.sol\":757:851  constructor(address _multisig) ... */\n  pop\n    /* \"contracts/Router/primaryRouter.sol\":494:6417  contract primaryRouter is AccessControl {... */\n  jump(tag_8)\n    /* \"@openzeppelin/contracts/access/AccessControl.sol\":7474:7707  function _grantRole(bytes32 role, address account) internal virtual {... */\ntag_7:\n    /* \"@openzeppelin/contracts/access/AccessControl.sol\":7557:7579  hasRole(role, account) */\n  tag_10\n    /* \"@openzeppelin/contracts/access/AccessControl.sol\":7565:7569  role */\n  dup3\n    /* \"@openzeppelin/contracts/access/AccessControl.sol\":7571:7578  account */\n  dup3\n    /* \"@openzeppelin/contracts/access/AccessControl.sol\":7557:7564  hasRole */\n  shl(0x20, tag_11)\n    /* \"@openzeppelin/contracts/access/AccessControl.sol\":7557:7579  hasRole(role, account) */\n  0x20\n  shr\n  jump\t// in\ntag_10:\n    /* \"@openzeppelin/contracts/access/AccessControl.sol\":7552:7701  if (!hasRole(role, account)) {... */\n  tag_12\n  jumpi\n    /* \"@openzeppelin/contracts/access/AccessControl.sol\":7627:7631  true */\n  0x01\n    /* \"@openzeppelin/contracts/access/AccessControl.sol\":7595:7601  _roles */\n  0x00\n    /* \"@openzeppelin/contracts/access/AccessControl.sol\":7595:7607  _roles[role] */\n  dup1\n    /* \"@openzeppelin/contracts/access/AccessControl.sol\":7602:7606  role */\n  dup5\n    /* \"@openzeppelin/contracts/access/AccessControl.sol\":7595:7607  _roles[role] */\n  dup2\n  mstore\n  0x20\n  add\n  swap1\n  dup2\n  mstore\n  0x20\n  add\n  0x00\n  keccak256\n    /* \"@openzeppelin/contracts/access/AccessControl.sol\":7595:7615  _roles[role].members */\n  0x00\n  add\n    /* \"@openzeppelin/contracts/access/AccessControl.sol\":7595:7624  _roles[role].members[account] */\n  0x00\n    /* \"@openzeppelin/contracts/access/AccessControl.sol\":7616:7623  account */\n  dup4\n    /* \"@openzeppelin/contracts/access/AccessControl.sol\":7595:7624  _roles[role].members[account] */\n  0xffffffffffffffffffffffffffffffffffffffff\n  and\n  0xffffffffffffffffffffffffffffffffffffffff\n  and\n  dup2\n  mstore\n  0x20\n  add\n  swap1\n  dup2\n  mstore\n  0x20\n  add\n  0x00\n  keccak256\n  0x00\n    /* \"@openzeppelin/contracts/access/AccessControl.sol\":7595:7631  _roles[role].members[account] = true */\n  0x0100\n  exp\n  dup2\n  sload\n  dup2\n  0xff\n  mul\n  not\n  and\n  swap1\n  dup4\n  iszero\n  iszero\n  mul\n  or\n  swap1\n  sstore\n  pop\n    /* \"@openzeppelin/contracts/access/AccessControl.sol\":7677:7689  _msgSender() */\n  tag_13\n    /* \"@openzeppelin/contracts/access/AccessControl.sol\":7677:7687  _msgSender */\n  shl(0x20, tag_14)\n    /* \"@openzeppelin/contracts/access/AccessControl.sol\":7677:7689  _msgSender() */\n  0x20\n  shr\n  jump\t// in\ntag_13:\n    /* \"@openzeppelin/contracts/access/AccessControl.sol\":7650:7690  RoleGranted(role, account, _msgSender()) */\n  0xffffffffffffffffffffffffffffffffffffffff\n  and\n    /* \"@openzeppelin/contracts/access/AccessControl.sol\":7668:7675  account */\n  dup2\n    /* \"@openzeppelin/contracts/access/AccessControl.sol\":7650:7690  RoleGranted(role, account, _msgSender()) */\n  0xffffffffffffffffffffffffffffffffffffffff\n  and\n    /* \"@openzeppelin/contracts/access/AccessControl.sol\":7662:7666  role */\n  dup4\n    /* \"@openzeppelin/contracts/access/AccessControl.sol\":7650:7690  RoleGranted(role, account, _msgSender()) */\n  0x2f8788117e7eff1d82e926ec794901d17c78024a50270940304540a733656f0d\n  mload(0x40)\n  mload(0x40)\n  dup1\n  swap2\n  sub\n  swap1\n  log4\n    /* \"@openzeppelin/contracts/access/AccessControl.sol\":7552:7701  if (!hasRole(role, account)) {... */\ntag_12:\n    /* \"@openzeppelin/contracts/access/AccessControl.sol\":7474:7707  function _grantRole(bytes32 role, address account) internal virtual {... */\n  pop\n  pop\n  jump\t// out\n    /* \"@openzeppelin/contracts/access/AccessControl.sol\":2895:3040  function hasRole(bytes32 role, address account) public view virtual override returns (bool) {... */\ntag_11:\n    /* \"@openzeppelin/contracts/access/AccessControl.sol\":2981:2985  bool */\n  0x00\n    /* \"@openzeppelin/contracts/access/AccessControl.sol\":3004:3010  _roles */\n  dup1\n    /* \"@openzeppelin/contracts/access/AccessControl.sol\":3004:3016  _roles[role] */\n  0x00\n    /* \"@openzeppelin/contracts/access/AccessControl.sol\":3011:3015  role */\n  dup5\n    /* \"@openzeppelin/contracts/access/AccessControl.sol\":3004:3016  _roles[role] */\n  dup2\n  mstore\n  0x20\n  add\n  swap1\n  dup2\n  mstore\n  0x20\n  add\n  0x00\n  keccak256\n    /* \"@openzeppelin/contracts/access/AccessControl.sol\":3004:3024  _roles[role].members */\n  0x00\n  add\n    /* \"@openzeppelin/contracts/access/AccessControl.sol\":3004:3033  _roles[role].members[account] */\n  0x00\n    /* \"@openzeppelin/contracts/access/AccessControl.sol\":3025:3032  account */\n  dup4\n    /* \"@openzeppelin/contracts/access/AccessControl.sol\":3004:3033  _roles[role].members[account] */\n  0xffffffffffffffffffffffffffffffffffffffff\n  and\n  0xffffffffffffffffffffffffffffffffffffffff\n  and\n  dup2\n  mstore\n  0x20\n  add\n  swap1\n  dup2\n  mstore\n  0x20\n  add\n  0x00\n  keccak256\n  0x00\n  swap1\n  sload\n  swap1\n  0x0100\n  exp\n  swap1\n  div\n  0xff\n  and\n    /* \"@openzeppelin/contracts/access/AccessControl.sol\":2997:3033  return _roles[role].members[account] */\n  swap1\n  pop\n    /* \"@openzeppelin/contracts/access/AccessControl.sol\":2895:3040  function hasRole(bytes32 role, address account) public view virtual override returns (bool) {... */\n  swap3\n  swap2\n  pop\n  pop\n  jump\t// out\n    /* \"@openzeppelin/contracts/utils/Context.sol\":640:736  function _msgSender() internal view virtual returns (address) {... */\ntag_14:\n    /* \"@openzeppelin/contracts/utils/Context.sol\":693:700  address */\n  0x00\n    /* \"@openzeppelin/contracts/utils/Context.sol\":719:729  msg.sender */\n  caller\n    /* \"@openzeppelin/contracts/utils/Context.sol\":712:729  return msg.sender */\n  swap1\n  pop\n    /* \"@openzeppelin/contracts/utils/Context.sol\":640:736  function _msgSender() internal view virtual returns (address) {... */\n  swap1\n  jump\t// out\n    /* \"#utility.yul\":7:150   */\ntag_18:\n    /* \"#utility.yul\":64:69   */\n  0x00\n    /* \"#utility.yul\":95:101   */\n  dup2\n    /* \"#utility.yul\":89:102   */\n  mload\n    /* \"#utility.yul\":80:102   */\n  swap1\n  pop\n    /* \"#utility.yul\":111:144   */\n  tag_20\n    /* \"#utility.yul\":138:143   */\n  dup2\n    /* \"#utility.yul\":111:144   */\n  tag_21\n  jump\t// in\ntag_20:\n    /* \"#utility.yul\":7:150   */\n  swap3\n  swap2\n  pop\n  pop\n  jump\t// out\n    /* \"#utility.yul\":156:507   */\ntag_3:\n    /* \"#utility.yul\":226:232   */\n  0x00\n    /* \"#utility.yul\":275:277   */\n  0x20\n    /* \"#utility.yul\":263:272   */\n  dup3\n    /* \"#utility.yul\":254:261   */\n  dup5\n    /* \"#utility.yul\":250:273   */\n  sub\n    /* \"#utility.yul\":246:278   */\n  slt\n    /* \"#utility.yul\":243:362   */\n  iszero\n  tag_23\n  jumpi\n    /* \"#utility.yul\":281:360   */\n  tag_24\n  tag_25\n  jump\t// in\ntag_24:\n    /* \"#utility.yul\":243:362   */\ntag_23:\n    /* \"#utility.yul\":401:402   */\n  0x00\n    /* \"#utility.yul\":426:490   */\n  tag_26\n    /* \"#utility.yul\":482:489   */\n  dup5\n    /* \"#utility.yul\":473:479   */\n  dup3\n    /* \"#utility.yul\":462:471   */\n  dup6\n    /* \"#utility.yul\":458:480   */\n  add\n    /* \"#utility.yul\":426:490   */\n  tag_18\n  jump\t// in\ntag_26:\n    /* \"#utility.yul\":416:490   */\n  swap2\n  pop\n    /* \"#utility.yul\":372:500   */\n  pop\n    /* \"#utility.yul\":156:507   */\n  swap3\n  swap2\n  pop\n  pop\n  jump\t// out\n    /* \"#utility.yul\":594:690   */\ntag_29:\n    /* \"#utility.yul\":631:638   */\n  0x00\n    /* \"#utility.yul\":660:684   */\n  tag_31\n    /* \"#utility.yul\":678:683   */\n  dup3\n    /* \"#utility.yul\":660:684   */\n  tag_32\n  jump\t// in\ntag_31:\n    /* \"#utility.yul\":649:684   */\n  swap1\n  pop\n    /* \"#utility.yul\":594:690   */\n  swap2\n  swap1\n  pop\n  jump\t// out\n    /* \"#utility.yul\":696:822   */\ntag_32:\n    /* \"#utility.yul\":733:740   */\n  0x00\n    /* \"#utility.yul\":773:815   */\n  0xffffffffffffffffffffffffffffffffffffffff\n    /* \"#utility.yul\":766:771   */\n  dup3\n    /* \"#utility.yul\":762:816   */\n  and\n    /* \"#utility.yul\":751:816   */\n  swap1\n  pop\n    /* \"#utility.yul\":696:822   */\n  swap2\n  swap1\n  pop\n  jump\t// out\n    /* \"#utility.yul\":951:1068   */\ntag_25:\n    /* \"#utility.yul\":1060:1061   */\n  0x00\n    /* \"#utility.yul\":1057:1058   */\n  dup1\n    /* \"#utility.yul\":1050:1062   */\n  revert\n    /* \"#utility.yul\":1074:1196   */\ntag_21:\n    /* \"#utility.yul\":1147:1171   */\n  tag_38\n    /* \"#utility.yul\":1165:1170   */\n  dup2\n    /* \"#utility.yul\":1147:1171   */\n  tag_29\n  jump\t// in\ntag_38:\n    /* \"#utility.yul\":1140:1145   */\n  dup2\n    /* \"#utility.yul\":1137:1172   */\n  eq\n    /* \"#utility.yul\":1127:1190   */\n  tag_39\n  jumpi\n    /* \"#utility.yul\":1186:1187   */\n  0x00\n    /* \"#utility.yul\":1183:1184   */\n  dup1\n    /* \"#utility.yul\":1176:1188   */\n  revert\n    /* \"#utility.yul\":1127:1190   */\ntag_39:\n    /* \"#utility.yul\":1074:1196   */\n  pop\n  jump\t// out\n    /* \"contracts/Router/primaryRouter.sol\":494:6417  contract primaryRouter is AccessControl {... */\ntag_8:\n  dataSize(sub_0)\n  dup1\n  dataOffset(sub_0)\n  0x00\n  codecopy\n  0x00\n  return\nstop\n\nsub_0: assembly {\n        /* \"contracts/Router/primaryRouter.sol\":494:6417  contract primaryRouter is AccessControl {... */\n      mstore(0x40, 0x80)\n      callvalue\n      dup1\n      iszero\n      tag_1\n      jumpi\n      0x00\n      dup1\n      revert\n    tag_1:\n      pop\n      jumpi(tag_2, lt(calldatasize, 0x04))\n      shr(0xe0, calldataload(0x00))\n      dup1\n      0x4cbe36ce\n      gt\n      tag_14\n      jumpi\n      dup1\n      0x4cbe36ce\n      eq\n      tag_8\n      jumpi\n      dup1\n      0x6c197ff5\n      eq\n      tag_9\n      jumpi\n      dup1\n      0x91d14854\n      eq\n      tag_10\n      jumpi\n      dup1\n      0xa217fddf\n      eq\n      tag_11\n      jumpi\n      dup1\n      0xcce7ec13\n      eq\n      tag_12\n      jumpi\n      dup1\n      0xd547741f\n      eq\n      tag_13\n      jumpi\n      jump(tag_2)\n    tag_14:\n      dup1\n      0x01ffc9a7\n      eq\n      tag_3\n      jumpi\n      dup1\n      0x248a9ca3\n      eq\n      tag_4\n      jumpi\n      dup1\n      0x27e45c2c\n      eq\n      tag_5\n      jumpi\n      dup1\n      0x2f2ff15d\n      eq\n      tag_6\n      jumpi\n      dup1\n      0x36568abe\n      eq\n      tag_7\n      jumpi\n    tag_2:\n      0x00\n      dup1\n      revert\n        /* \"@openzeppelin/contracts/access/AccessControl.sol\":2606:2808  function supportsInterface(bytes4 interfaceId) public view virtual override returns (bool) {... */\n    tag_3:\n      tag_15\n      0x04\n      dup1\n      calldatasize\n      sub\n      dup2\n      add\n      swap1\n      tag_16\n      swap2\n      swap1\n      tag_17\n      jump\t// in\n    tag_16:\n      tag_18\n      jump\t// in\n    tag_15:\n      mload(0x40)\n      tag_19\n      swap2\n      swap1\n      tag_20\n      jump\t// in\n    tag_19:\n      mload(0x40)\n      dup1\n      swap2\n      sub\n      swap1\n      return\n        /* \"@openzeppelin/contracts/access/AccessControl.sol\":4391:4520  function getRoleAdmin(bytes32 role) public view virtual override returns (bytes32) {... */\n    tag_4:\n      tag_21\n      0x04\n      dup1\n      calldatasize\n      sub\n      dup2\n      add\n      swap1\n      tag_22\n      swap2\n      swap1\n      tag_23\n      jump\t// in\n    tag_22:\n      tag_24\n      jump\t// in\n    tag_21:\n      mload(0x40)\n      tag_25\n      swap2\n      swap1\n      tag_26\n      jump\t// in\n    tag_25:\n      mload(0x40)\n      dup1\n      swap2\n      sub\n      swap1\n      return\n        /* \"contracts/Router/primaryRouter.sol\":1224:1270  mapping(address => TokenData) public tokenData */\n    tag_5:\n      tag_27\n      0x04\n      dup1\n      calldatasize\n      sub\n      dup2\n      add\n      swap1\n      tag_28\n      swap2\n      swap1\n      tag_29\n      jump\t// in\n    tag_28:\n      tag_30\n      jump\t// in\n    tag_27:\n      mload(0x40)\n      tag_31\n      swap6\n      swap5\n      swap4\n      swap3\n      swap2\n      swap1\n      tag_32\n      jump\t// in\n    tag_31:\n      mload(0x40)\n      dup1\n      swap2\n      sub\n      swap1\n      return\n        /* \"@openzeppelin/contracts/access/AccessControl.sol\":4816:4961  function grantRole(bytes32 role, address account) public virtual override onlyRole(getRoleAdmin(role)) {... */\n    tag_6:\n      tag_33\n      0x04\n      dup1\n      calldatasize\n      sub\n      dup2\n      add\n      swap1\n      tag_34\n      swap2\n      swap1\n      tag_35\n      jump\t// in\n    tag_34:\n      tag_36\n      jump\t// in\n    tag_33:\n      stop\n        /* \"@openzeppelin/contracts/access/AccessControl.sol\":5925:6139  function renounceRole(bytes32 role, address account) public virtual override {... */\n    tag_7:\n      tag_37\n      0x04\n      dup1\n      calldatasize\n      sub\n      dup2\n      add\n      swap1\n      tag_38\n      swap2\n      swap1\n      tag_35\n      jump\t// in\n    tag_38:\n      tag_39\n      jump\t// in\n    tag_37:\n      stop\n        /* \"contracts/Router/primaryRouter.sol\":2326:3095  function add(... */\n    tag_8:\n      tag_40\n      0x04\n      dup1\n      calldatasize\n      sub\n      dup2\n      add\n      swap1\n      tag_41\n      swap2\n      swap1\n      tag_42\n      jump\t// in\n    tag_41:\n      tag_43\n      jump\t// in\n    tag_40:\n      stop\n        /* \"contracts/Router/primaryRouter.sol\":5155:6415  function sell(address friggTokenAddress, uint256 inputFriggTokenAmount) external {... */\n    tag_9:\n      tag_44\n      0x04\n      dup1\n      calldatasize\n      sub\n      dup2\n      add\n      swap1\n      tag_45\n      swap2\n      swap1\n      tag_46\n      jump\t// in\n    tag_45:\n      tag_47\n      jump\t// in\n    tag_44:\n      stop\n        /* \"@openzeppelin/contracts/access/AccessControl.sol\":2895:3040  function hasRole(bytes32 role, address account) public view virtual override returns (bool) {... */\n    tag_10:\n      tag_48\n      0x04\n      dup1\n      calldatasize\n      sub\n      dup2\n      add\n      swap1\n      tag_49\n      swap2\n      swap1\n      tag_35\n      jump\t// in\n    tag_49:\n      tag_50\n      jump\t// in\n    tag_48:\n      mload(0x40)\n      tag_51\n      swap2\n      swap1\n      tag_20\n      jump\t// in\n    tag_51:\n      mload(0x40)\n      dup1\n      swap2\n      sub\n      swap1\n      return\n        /* \"@openzeppelin/contracts/access/AccessControl.sol\":2027:2076  bytes32 public constant DEFAULT_ADMIN_ROLE = 0x00 */\n    tag_11:\n      tag_52\n      tag_53\n      jump\t// in\n    tag_52:\n      mload(0x40)\n      tag_54\n      swap2\n      swap1\n      tag_26\n      jump\t// in\n    tag_54:\n      mload(0x40)\n      dup1\n      swap2\n      sub\n      swap1\n      return\n        /* \"contracts/Router/primaryRouter.sol\":3568:4753  function buy(address friggTokenAddress, uint256 inputTokenAmount) external {... */\n    tag_12:\n      tag_55\n      0x04\n      dup1\n      calldatasize\n      sub\n      dup2\n      add\n      swap1\n      tag_56\n      swap2\n      swap1\n      tag_46\n      jump\t// in\n    tag_56:\n      tag_57\n      jump\t// in\n    tag_55:\n      stop\n        /* \"@openzeppelin/contracts/access/AccessControl.sol\":5241:5388  function revokeRole(bytes32 role, address account) public virtual override onlyRole(getRoleAdmin(role)) {... */\n    tag_13:\n      tag_58\n      0x04\n      dup1\n      calldatasize\n      sub\n      dup2\n      add\n      swap1\n      tag_59\n      swap2\n      swap1\n      tag_35\n      jump\t// in\n    tag_59:\n      tag_60\n      jump\t// in\n    tag_58:\n      stop\n        /* \"@openzeppelin/contracts/access/AccessControl.sol\":2606:2808  function supportsInterface(bytes4 interfaceId) public view virtual override returns (bool) {... */\n    tag_18:\n        /* \"@openzeppelin/contracts/access/AccessControl.sol\":2691:2695  bool */\n      0x00\n        /* \"@openzeppelin/contracts/access/AccessControl.sol\":2729:2761  type(IAccessControl).interfaceId */\n      0x7965db0b00000000000000000000000000000000000000000000000000000000\n        /* \"@openzeppelin/contracts/access/AccessControl.sol\":2714:2761  interfaceId == type(IAccessControl).interfaceId */\n      not(0xffffffffffffffffffffffffffffffffffffffffffffffffffffffff)\n      and\n        /* \"@openzeppelin/contracts/access/AccessControl.sol\":2714:2725  interfaceId */\n      dup3\n        /* \"@openzeppelin/contracts/access/AccessControl.sol\":2714:2761  interfaceId == type(IAccessControl).interfaceId */\n      not(0xffffffffffffffffffffffffffffffffffffffffffffffffffffffff)\n      and\n      eq\n        /* \"@openzeppelin/contracts/access/AccessControl.sol\":2714:2801  interfaceId == type(IAccessControl).interfaceId || super.supportsInterface(interfaceId) */\n      dup1\n      tag_62\n      jumpi\n      pop\n        /* \"@openzeppelin/contracts/access/AccessControl.sol\":2765:2801  super.supportsInterface(interfaceId) */\n      tag_63\n        /* \"@openzeppelin/contracts/access/AccessControl.sol\":2789:2800  interfaceId */\n      dup3\n        /* \"@openzeppelin/contracts/access/AccessControl.sol\":2765:2788  super.supportsInterface */\n      tag_64\n        /* \"@openzeppelin/contracts/access/AccessControl.sol\":2765:2801  super.supportsInterface(interfaceId) */\n      jump\t// in\n    tag_63:\n        /* \"@openzeppelin/contracts/access/AccessControl.sol\":2714:2801  interfaceId == type(IAccessControl).interfaceId || super.supportsInterface(interfaceId) */\n    tag_62:\n        /* \"@openzeppelin/contracts/access/AccessControl.sol\":2707:2801  return interfaceId == type(IAccessControl).interfaceId || super.supportsInterface(interfaceId) */\n      swap1\n      pop\n        /* \"@openzeppelin/contracts/access/AccessControl.sol\":2606:2808  function supportsInterface(bytes4 interfaceId) public view virtual override returns (bool) {... */\n      swap2\n      swap1\n      pop\n      jump\t// out\n        /* \"@openzeppelin/contracts/access/AccessControl.sol\":4391:4520  function getRoleAdmin(bytes32 role) public view virtual override returns (bytes32) {... */\n    tag_24:\n        /* \"@openzeppelin/contracts/access/AccessControl.sol\":4465:4472  bytes32 */\n      0x00\n        /* \"@openzeppelin/contracts/access/AccessControl.sol\":4491:4497  _roles */\n      dup1\n        /* \"@openzeppelin/contracts/access/AccessControl.sol\":4491:4503  _roles[role] */\n      0x00\n        /* \"@openzeppelin/contracts/access/AccessControl.sol\":4498:4502  role */\n      dup4\n        /* \"@openzeppelin/contracts/access/AccessControl.sol\":4491:4503  _roles[role] */\n      dup2\n      mstore\n      0x20\n      add\n      swap1\n      dup2\n      mstore\n      0x20\n      add\n      0x00\n      keccak256\n        /* \"@openzeppelin/contracts/access/AccessControl.sol\":4491:4513  _roles[role].adminRole */\n      0x01\n      add\n      sload\n        /* \"@openzeppelin/contracts/access/AccessControl.sol\":4484:4513  return _roles[role].adminRole */\n      swap1\n      pop\n        /* \"@openzeppelin/contracts/access/AccessControl.sol\":4391:4520  function getRoleAdmin(bytes32 role) public view virtual override returns (bytes32) {... */\n      swap2\n      swap1\n      pop\n      jump\t// out\n        /* \"contracts/Router/primaryRouter.sol\":1224:1270  mapping(address => TokenData) public tokenData */\n    tag_30:\n      mstore(0x20, 0x01)\n      dup1\n      0x00\n      mstore\n      keccak256(0x00, 0x40)\n      0x00\n      swap2\n      pop\n      swap1\n      pop\n      dup1\n      0x00\n      add\n      0x00\n      swap1\n      sload\n      swap1\n      0x0100\n      exp\n      swap1\n      div\n      0xffffffffffffffffffffffffffffffffffffffff\n      and\n      swap1\n      dup1\n      0x01\n      add\n      0x00\n      swap1\n      sload\n      swap1\n      0x0100\n      exp\n      swap1\n      div\n      0xffffffffffffffffffffffffffffffffffffffff\n      and\n      swap1\n      dup1\n      0x02\n      add\n      sload\n      swap1\n      dup1\n      0x03\n      add\n      sload\n      swap1\n      dup1\n      0x04\n      add\n      0x00\n      swap1\n      sload\n      swap1\n      0x0100\n      exp\n      swap1\n      div\n      0xffffffffffffffffffffffffffffffffffffffff\n      and\n      swap1\n      pop\n      dup6\n      jump\t// out\n        /* \"@openzeppelin/contracts/access/AccessControl.sol\":4816:4961  function grantRole(bytes32 role, address account) public virtual override onlyRole(getRoleAdmin(role)) {... */\n    tag_36:\n        /* \"@openzeppelin/contracts/access/AccessControl.sol\":4899:4917  getRoleAdmin(role) */\n      tag_66\n        /* \"@openzeppelin/contracts/access/AccessControl.sol\":4912:4916  role */\n      dup3\n        /* \"@openzeppelin/contracts/access/AccessControl.sol\":4899:4911  getRoleAdmin */\n      tag_24\n        /* \"@openzeppelin/contracts/access/AccessControl.sol\":4899:4917  getRoleAdmin(role) */\n      jump\t// in\n    tag_66:\n        /* \"@openzeppelin/contracts/access/AccessControl.sol\":2505:2521  _checkRole(role) */\n      tag_68\n        /* \"@openzeppelin/contracts/access/AccessControl.sol\":2516:2520  role */\n      dup2\n        /* \"@openzeppelin/contracts/access/AccessControl.sol\":2505:2515  _checkRole */\n      tag_69\n        /* \"@openzeppelin/contracts/access/AccessControl.sol\":2505:2521  _checkRole(role) */\n      jump\t// in\n    tag_68:\n        /* \"@openzeppelin/contracts/access/AccessControl.sol\":4929:4954  _grantRole(role, account) */\n      tag_71\n        /* \"@openzeppelin/contracts/access/AccessControl.sol\":4940:4944  role */\n      dup4\n        /* \"@openzeppelin/contracts/access/AccessControl.sol\":4946:4953  account */\n      dup4\n        /* \"@openzeppelin/contracts/access/AccessControl.sol\":4929:4939  _grantRole */\n      tag_72\n        /* \"@openzeppelin/contracts/access/AccessControl.sol\":4929:4954  _grantRole(role, account) */\n      jump\t// in\n    tag_71:\n        /* \"@openzeppelin/contracts/access/AccessControl.sol\":4816:4961  function grantRole(bytes32 role, address account) public virtual override onlyRole(getRoleAdmin(role)) {... */\n      pop\n      pop\n      pop\n      jump\t// out\n        /* \"@openzeppelin/contracts/access/AccessControl.sol\":5925:6139  function renounceRole(bytes32 role, address account) public virtual override {... */\n    tag_39:\n        /* \"@openzeppelin/contracts/access/AccessControl.sol\":6031:6043  _msgSender() */\n      tag_74\n        /* \"@openzeppelin/contracts/access/AccessControl.sol\":6031:6041  _msgSender */\n      tag_75\n        /* \"@openzeppelin/contracts/access/AccessControl.sol\":6031:6043  _msgSender() */\n      jump\t// in\n    tag_74:\n        /* \"@openzeppelin/contracts/access/AccessControl.sol\":6020:6043  account == _msgSender() */\n      0xffffffffffffffffffffffffffffffffffffffff\n      and\n        /* \"@openzeppelin/contracts/access/AccessControl.sol\":6020:6027  account */\n      dup2\n        /* \"@openzeppelin/contracts/access/AccessControl.sol\":6020:6043  account == _msgSender() */\n      0xffffffffffffffffffffffffffffffffffffffff\n      and\n      eq\n        /* \"@openzeppelin/contracts/access/AccessControl.sol\":6012:6095  require(account == _msgSender(), \"AccessControl: can only renounce roles for self\") */\n      tag_76\n      jumpi\n      mload(0x40)\n      0x08c379a000000000000000000000000000000000000000000000000000000000\n      dup2\n      mstore\n      0x04\n      add\n      tag_77\n      swap1\n      tag_78\n      jump\t// in\n    tag_77:\n      mload(0x40)\n      dup1\n      swap2\n      sub\n      swap1\n      revert\n    tag_76:\n        /* \"@openzeppelin/contracts/access/AccessControl.sol\":6106:6132  _revokeRole(role, account) */\n      tag_79\n        /* \"@openzeppelin/contracts/access/AccessControl.sol\":6118:6122  role */\n      dup3\n        /* \"@openzeppelin/contracts/access/AccessControl.sol\":6124:6131  account */\n      dup3\n        /* \"@openzeppelin/contracts/access/AccessControl.sol\":6106:6117  _revokeRole */\n      tag_80\n        /* \"@openzeppelin/contracts/access/AccessControl.sol\":6106:6132  _revokeRole(role, account) */\n      jump\t// in\n    tag_79:\n        /* \"@openzeppelin/contracts/access/AccessControl.sol\":5925:6139  function renounceRole(bytes32 role, address account) public virtual override {... */\n      pop\n      pop\n      jump\t// out\n        /* \"contracts/Router/primaryRouter.sol\":2326:3095  function add(... */\n    tag_43:\n        /* \"@openzeppelin/contracts/access/AccessControl.sol\":2072:2076  0x00 */\n      0x00\n        /* \"contracts/Router/primaryRouter.sol\":2577:2595  DEFAULT_ADMIN_ROLE */\n      dup1\n      shl\n        /* \"@openzeppelin/contracts/access/AccessControl.sol\":2505:2521  _checkRole(role) */\n      tag_82\n        /* \"@openzeppelin/contracts/access/AccessControl.sol\":2516:2520  role */\n      dup2\n        /* \"@openzeppelin/contracts/access/AccessControl.sol\":2505:2515  _checkRole */\n      tag_69\n        /* \"@openzeppelin/contracts/access/AccessControl.sol\":2505:2521  _checkRole(role) */\n      jump\t// in\n    tag_82:\n        /* \"contracts/Router/primaryRouter.sol\":2616:2642  IAccessControl outputToken */\n      0x00\n        /* \"contracts/Router/primaryRouter.sol\":2660:2679  _outputTokenAddress */\n      dup8\n        /* \"contracts/Router/primaryRouter.sol\":2616:2680  IAccessControl outputToken = IAccessControl(_outputTokenAddress) */\n      swap1\n      pop\n        /* \"contracts/Router/primaryRouter.sol\":2824:2835  outputToken */\n      dup1\n        /* \"contracts/Router/primaryRouter.sol\":2824:2843  outputToken.hasRole */\n      0xffffffffffffffffffffffffffffffffffffffff\n      and\n      0x91d14854\n        /* \"@openzeppelin/contracts/access/AccessControl.sol\":2072:2076  0x00 */\n      0x00\n        /* \"contracts/Router/primaryRouter.sol\":2844:2862  DEFAULT_ADMIN_ROLE */\n      dup1\n      shl\n        /* \"contracts/Router/primaryRouter.sol\":2864:2874  msg.sender */\n      caller\n        /* \"contracts/Router/primaryRouter.sol\":2824:2875  outputToken.hasRole(DEFAULT_ADMIN_ROLE, msg.sender) */\n      mload(0x40)\n      dup4\n      0xffffffff\n      and\n      0xe0\n      shl\n      dup2\n      mstore\n      0x04\n      add\n      tag_84\n      swap3\n      swap2\n      swap1\n      tag_85\n      jump\t// in\n    tag_84:\n      0x20\n      mload(0x40)\n      dup1\n      dup4\n      sub\n      dup2\n      dup7\n      dup1\n      extcodesize\n      iszero\n      dup1\n      iszero\n      tag_86\n      jumpi\n      0x00\n      dup1\n      revert\n    tag_86:\n      pop\n      gas\n      staticcall\n      iszero\n      dup1\n      iszero\n      tag_88\n      jumpi\n      returndatasize\n      0x00\n      dup1\n      returndatacopy\n      revert(0x00, returndatasize)\n    tag_88:\n      pop\n      pop\n      pop\n      pop\n      mload(0x40)\n      returndatasize\n      not(0x1f)\n      0x1f\n      dup3\n      add\n      and\n      dup3\n      add\n      dup1\n      0x40\n      mstore\n      pop\n      dup2\n      add\n      swap1\n      tag_89\n      swap2\n      swap1\n      tag_90\n      jump\t// in\n    tag_89:\n        /* \"contracts/Router/primaryRouter.sol\":2816:2958  require(outputToken.hasRole(DEFAULT_ADMIN_ROLE, msg.sender), \"only admins and only Frigg-issued tokens can be added the token to this router\") */\n      tag_91\n      jumpi\n      mload(0x40)\n      0x08c379a000000000000000000000000000000000000000000000000000000000\n      dup2\n      mstore\n      0x04\n      add\n      tag_92\n      swap1\n      tag_93\n      jump\t// in\n    tag_92:\n      mload(0x40)\n      dup1\n      swap2\n      sub\n      swap1\n      revert\n    tag_91:\n        /* \"contracts/Router/primaryRouter.sol\":2999:3084  TokenData(_issuer, _uIdContract, _issuancePrice, _expiryPrice, _issuanceTokenAddress) */\n      mload(0x40)\n      dup1\n      0xa0\n      add\n      0x40\n      mstore\n      dup1\n        /* \"contracts/Router/primaryRouter.sol\":3009:3016  _issuer */\n      dup8\n        /* \"contracts/Router/primaryRouter.sol\":2999:3084  TokenData(_issuer, _uIdContract, _issuancePrice, _expiryPrice, _issuanceTokenAddress) */\n      0xffffffffffffffffffffffffffffffffffffffff\n      and\n      dup2\n      mstore\n      0x20\n      add\n        /* \"contracts/Router/primaryRouter.sol\":3018:3030  _uIdContract */\n      dup9\n        /* \"contracts/Router/primaryRouter.sol\":2999:3084  TokenData(_issuer, _uIdContract, _issuancePrice, _expiryPrice, _issuanceTokenAddress) */\n      0xffffffffffffffffffffffffffffffffffffffff\n      and\n      dup2\n      mstore\n      0x20\n      add\n        /* \"contracts/Router/primaryRouter.sol\":3032:3046  _issuancePrice */\n      dup7\n        /* \"contracts/Router/primaryRouter.sol\":2999:3084  TokenData(_issuer, _uIdContract, _issuancePrice, _expiryPrice, _issuanceTokenAddress) */\n      dup2\n      mstore\n      0x20\n      add\n        /* \"contracts/Router/primaryRouter.sol\":3048:3060  _expiryPrice */\n      dup6\n        /* \"contracts/Router/primaryRouter.sol\":2999:3084  TokenData(_issuer, _uIdContract, _issuancePrice, _expiryPrice, _issuanceTokenAddress) */\n      dup2\n      mstore\n      0x20\n      add\n        /* \"contracts/Router/primaryRouter.sol\":3062:3083  _issuanceTokenAddress */\n      dup5\n        /* \"contracts/Router/primaryRouter.sol\":2999:3084  TokenData(_issuer, _uIdContract, _issuancePrice, _expiryPrice, _issuanceTokenAddress) */\n      0xffffffffffffffffffffffffffffffffffffffff\n      and\n      dup2\n      mstore\n      pop\n        /* \"contracts/Router/primaryRouter.sol\":2968:2977  tokenData */\n      0x01\n        /* \"contracts/Router/primaryRouter.sol\":2968:2998  tokenData[_outputTokenAddress] */\n      0x00\n        /* \"contracts/Router/primaryRouter.sol\":2978:2997  _outputTokenAddress */\n      dup11\n        /* \"contracts/Router/primaryRouter.sol\":2968:2998  tokenData[_outputTokenAddress] */\n      0xffffffffffffffffffffffffffffffffffffffff\n      and\n      0xffffffffffffffffffffffffffffffffffffffff\n      and\n      dup2\n      mstore\n      0x20\n      add\n      swap1\n      dup2\n      mstore\n      0x20\n      add\n      0x00\n      keccak256\n        /* \"contracts/Router/primaryRouter.sol\":2968:3084  tokenData[_outputTokenAddress]=TokenData(_issuer, _uIdContract, _issuancePrice, _expiryPrice, _issuanceTokenAddress) */\n      0x00\n      dup3\n      add\n      mload\n      dup2\n      0x00\n      add\n      exp(0x0100, 0x00)\n      dup2\n      sload\n      dup2\n      0xffffffffffffffffffffffffffffffffffffffff\n      mul\n      not\n      and\n      swap1\n      dup4\n      0xffffffffffffffffffffffffffffffffffffffff\n      and\n      mul\n      or\n      swap1\n      sstore\n      pop\n      0x20\n      dup3\n      add\n      mload\n      dup2\n      0x01\n      add\n      exp(0x0100, 0x00)\n      dup2\n      sload\n      dup2\n      0xffffffffffffffffffffffffffffffffffffffff\n      mul\n      not\n      and\n      swap1\n      dup4\n      0xffffffffffffffffffffffffffffffffffffffff\n      and\n      mul\n      or\n      swap1\n      sstore\n      pop\n      0x40\n      dup3\n      add\n      mload\n      dup2\n      0x02\n      add\n      sstore\n      0x60\n      dup3\n      add\n      mload\n      dup2\n      0x03\n      add\n      sstore\n      0x80\n      dup3\n      add\n      mload\n      dup2\n      0x04\n      add\n      exp(0x0100, 0x00)\n      dup2\n      sload\n      dup2\n      0xffffffffffffffffffffffffffffffffffffffff\n      mul\n      not\n      and\n      swap1\n      dup4\n      0xffffffffffffffffffffffffffffffffffffffff\n      and\n      mul\n      or\n      swap1\n      sstore\n      pop\n      swap1\n      pop\n      pop\n        /* \"contracts/Router/primaryRouter.sol\":2606:3095  {... */\n      pop\n        /* \"contracts/Router/primaryRouter.sol\":2326:3095  function add(... */\n      pop\n      pop\n      pop\n      pop\n      pop\n      pop\n      pop\n      jump\t// out\n        /* \"contracts/Router/primaryRouter.sol\":5155:6415  function sell(address friggTokenAddress, uint256 inputFriggTokenAmount) external {... */\n    tag_47:\n        /* \"contracts/Router/primaryRouter.sol\":5282:5283  0 */\n      0x00\n        /* \"contracts/Router/primaryRouter.sol\":5258:5279  inputFriggTokenAmount */\n      dup2\n        /* \"contracts/Router/primaryRouter.sol\":5258:5283  inputFriggTokenAmount > 0 */\n      gt\n        /* \"contracts/Router/primaryRouter.sol\":5250:5311  require(inputFriggTokenAmount > 0, \"You cannot sell 0 token\") */\n      tag_95\n      jumpi\n      mload(0x40)\n      0x08c379a000000000000000000000000000000000000000000000000000000000\n      dup2\n      mstore\n      0x04\n      add\n      tag_96\n      swap1\n      tag_97\n      jump\t// in\n    tag_96:\n      mload(0x40)\n      dup1\n      swap2\n      sub\n      swap1\n      revert\n    tag_95:\n        /* \"contracts/Router/primaryRouter.sol\":5410:5411  0 */\n      0x00\n        /* \"contracts/Router/primaryRouter.sol\":5342:5351  tokenData */\n      0x01\n        /* \"contracts/Router/primaryRouter.sol\":5342:5370  tokenData[friggTokenAddress] */\n      0x00\n        /* \"contracts/Router/primaryRouter.sol\":5352:5369  friggTokenAddress */\n      dup5\n        /* \"contracts/Router/primaryRouter.sol\":5342:5370  tokenData[friggTokenAddress] */\n      0xffffffffffffffffffffffffffffffffffffffff\n      and\n      0xffffffffffffffffffffffffffffffffffffffff\n      and\n      dup2\n      mstore\n      0x20\n      add\n      swap1\n      dup2\n      mstore\n      0x20\n      add\n      0x00\n      keccak256\n        /* \"contracts/Router/primaryRouter.sol\":5342:5382  tokenData[friggTokenAddress].uIdContract */\n      0x01\n      add\n      0x00\n      swap1\n      sload\n      swap1\n      0x0100\n      exp\n      swap1\n      div\n      0xffffffffffffffffffffffffffffffffffffffff\n      and\n        /* \"contracts/Router/primaryRouter.sol\":5333:5393  IERC1155(tokenData[friggTokenAddress].uIdContract).balanceOf */\n      0xffffffffffffffffffffffffffffffffffffffff\n      and\n      0xfdd58e\n        /* \"contracts/Router/primaryRouter.sol\":5394:5404  msg.sender */\n      caller\n        /* \"contracts/Router/primaryRouter.sol\":5405:5406  0 */\n      0x00\n        /* \"contracts/Router/primaryRouter.sol\":5333:5407  IERC1155(tokenData[friggTokenAddress].uIdContract).balanceOf(msg.sender,0) */\n      mload(0x40)\n      dup4\n      0xffffffff\n      and\n      0xe0\n      shl\n      dup2\n      mstore\n      0x04\n      add\n      tag_98\n      swap3\n      swap2\n      swap1\n      tag_99\n      jump\t// in\n    tag_98:\n      0x20\n      mload(0x40)\n      dup1\n      dup4\n      sub\n      dup2\n      dup7\n      dup1\n      extcodesize\n      iszero\n      dup1\n      iszero\n      tag_100\n      jumpi\n      0x00\n      dup1\n      revert\n    tag_100:\n      pop\n      gas\n      staticcall\n      iszero\n      dup1\n      iszero\n      tag_102\n      jumpi\n      returndatasize\n      0x00\n      dup1\n      returndatacopy\n      revert(0x00, returndatasize)\n    tag_102:\n      pop\n      pop\n      pop\n      pop\n      mload(0x40)\n      returndatasize\n      not(0x1f)\n      0x1f\n      dup3\n      add\n      and\n      dup3\n      add\n      dup1\n      0x40\n      mstore\n      pop\n      dup2\n      add\n      swap1\n      tag_103\n      swap2\n      swap1\n      tag_104\n      jump\t// in\n    tag_103:\n        /* \"contracts/Router/primaryRouter.sol\":5333:5411  IERC1155(tokenData[friggTokenAddress].uIdContract).balanceOf(msg.sender,0) > 0 */\n      gt\n        /* \"contracts/Router/primaryRouter.sol\":5325:5432  require(IERC1155(tokenData[friggTokenAddress].uIdContract).balanceOf(msg.sender,0) > 0, \"Need a UID token\") */\n      tag_105\n      jumpi\n      mload(0x40)\n      0x08c379a000000000000000000000000000000000000000000000000000000000\n      dup2\n      mstore\n      0x04\n      add\n      tag_106\n      swap1\n      tag_107\n      jump\t// in\n    tag_106:\n      mload(0x40)\n      dup1\n      swap2\n      sub\n      swap1\n      revert\n    tag_105:\n        /* \"contracts/Router/primaryRouter.sol\":5447:5464  IFrigg inputToken */\n      0x00\n        /* \"contracts/Router/primaryRouter.sol\":5474:5491  friggTokenAddress */\n      dup3\n        /* \"contracts/Router/primaryRouter.sol\":5447:5492  IFrigg inputToken = IFrigg(friggTokenAddress) */\n      swap1\n      pop\n        /* \"contracts/Router/primaryRouter.sol\":5506:5524  IERC20 outputToken */\n      0x00\n        /* \"contracts/Router/primaryRouter.sol\":5534:5543  tokenData */\n      0x01\n        /* \"contracts/Router/primaryRouter.sol\":5534:5562  tokenData[friggTokenAddress] */\n      0x00\n        /* \"contracts/Router/primaryRouter.sol\":5544:5561  friggTokenAddress */\n      dup6\n        /* \"contracts/Router/primaryRouter.sol\":5534:5562  tokenData[friggTokenAddress] */\n      0xffffffffffffffffffffffffffffffffffffffff\n      and\n      0xffffffffffffffffffffffffffffffffffffffff\n      and\n      dup2\n      mstore\n      0x20\n      add\n      swap1\n      dup2\n      mstore\n      0x20\n      add\n      0x00\n      keccak256\n        /* \"contracts/Router/primaryRouter.sol\":5534:5583  tokenData[friggTokenAddress].issuanceTokenAddress */\n      0x04\n      add\n      0x00\n      swap1\n      sload\n      swap1\n      0x0100\n      exp\n      swap1\n      div\n      0xffffffffffffffffffffffffffffffffffffffff\n      and\n        /* \"contracts/Router/primaryRouter.sol\":5506:5584  IERC20 outputToken = IERC20(tokenData[friggTokenAddress].issuanceTokenAddress) */\n      swap1\n      pop\n        /* \"contracts/Router/primaryRouter.sol\":5607:5617  inputToken */\n      dup2\n        /* \"contracts/Router/primaryRouter.sol\":5607:5637  inputToken.seeBondExpiryStatus */\n      0xffffffffffffffffffffffffffffffffffffffff\n      and\n      0x8058425b\n        /* \"contracts/Router/primaryRouter.sol\":5607:5639  inputToken.seeBondExpiryStatus() */\n      mload(0x40)\n      dup2\n      0xffffffff\n      and\n      0xe0\n      shl\n      dup2\n      mstore\n      0x04\n      add\n      0x20\n      mload(0x40)\n      dup1\n      dup4\n      sub\n      dup2\n      dup7\n      dup1\n      extcodesize\n      iszero\n      dup1\n      iszero\n      tag_108\n      jumpi\n      0x00\n      dup1\n      revert\n    tag_108:\n      pop\n      gas\n      staticcall\n      iszero\n      dup1\n      iszero\n      tag_110\n      jumpi\n      returndatasize\n      0x00\n      dup1\n      returndatacopy\n      revert(0x00, returndatasize)\n    tag_110:\n      pop\n      pop\n      pop\n      pop\n      mload(0x40)\n      returndatasize\n      not(0x1f)\n      0x1f\n      dup3\n      add\n      and\n      dup3\n      add\n      dup1\n      0x40\n      mstore\n      pop\n      dup2\n      add\n      swap1\n      tag_111\n      swap2\n      swap1\n      tag_90\n      jump\t// in\n    tag_111:\n        /* \"contracts/Router/primaryRouter.sol\":5599:5640  require(inputToken.seeBondExpiryStatus()) */\n      tag_112\n      jumpi\n      0x00\n      dup1\n      revert\n    tag_112:\n        /* \"contracts/Router/primaryRouter.sol\":5655:5665  inputToken */\n      dup2\n        /* \"contracts/Router/primaryRouter.sol\":5655:5670  inputToken.burn */\n      0xffffffffffffffffffffffffffffffffffffffff\n      and\n      0x9dc29fac\n        /* \"contracts/Router/primaryRouter.sol\":5688:5698  msg.sender */\n      caller\n        /* \"contracts/Router/primaryRouter.sol\":5716:5737  inputFriggTokenAmount */\n      dup6\n        /* \"contracts/Router/primaryRouter.sol\":5655:5755  inputToken.burn(... */\n      mload(0x40)\n      dup4\n      0xffffffff\n      and\n      0xe0\n      shl\n      dup2\n      mstore\n      0x04\n      add\n      tag_113\n      swap3\n      swap2\n      swap1\n      tag_114\n      jump\t// in\n    tag_113:\n      0x00\n      mload(0x40)\n      dup1\n      dup4\n      sub\n      dup2\n      0x00\n      dup8\n      dup1\n      extcodesize\n      iszero\n      dup1\n      iszero\n      tag_115\n      jumpi\n      0x00\n      dup1\n      revert\n    tag_115:\n      pop\n      gas\n      call\n      iszero\n      dup1\n      iszero\n      tag_117\n      jumpi\n      returndatasize\n      0x00\n      dup1\n      returndatacopy\n      revert(0x00, returndatasize)\n    tag_117:\n      pop\n      pop\n      pop\n      pop\n        /* \"contracts/Router/primaryRouter.sol\":5917:5942  uint256 outputTokenAmount */\n      0x00\n        /* \"contracts/Router/primaryRouter.sol\":5969:5978  tokenData */\n      0x01\n        /* \"contracts/Router/primaryRouter.sol\":5969:5997  tokenData[friggTokenAddress] */\n      0x00\n        /* \"contracts/Router/primaryRouter.sol\":5979:5996  friggTokenAddress */\n      dup7\n        /* \"contracts/Router/primaryRouter.sol\":5969:5997  tokenData[friggTokenAddress] */\n      0xffffffffffffffffffffffffffffffffffffffff\n      and\n      0xffffffffffffffffffffffffffffffffffffffff\n      and\n      dup2\n      mstore\n      0x20\n      add\n      swap1\n      dup2\n      mstore\n      0x20\n      add\n      0x00\n      keccak256\n        /* \"contracts/Router/primaryRouter.sol\":5969:6009  tokenData[friggTokenAddress].expiryPrice */\n      0x03\n      add\n      sload\n        /* \"contracts/Router/primaryRouter.sol\":5945:5966  inputFriggTokenAmount */\n      dup5\n        /* \"contracts/Router/primaryRouter.sol\":5945:6009  inputFriggTokenAmount / tokenData[friggTokenAddress].expiryPrice */\n      tag_118\n      swap2\n      swap1\n      tag_119\n      jump\t// in\n    tag_118:\n        /* \"contracts/Router/primaryRouter.sol\":5917:6009  uint256 outputTokenAmount = inputFriggTokenAmount / tokenData[friggTokenAddress].expiryPrice */\n      swap1\n      pop\n        /* \"contracts/Router/primaryRouter.sol\":6139:6150  outputToken */\n      dup2\n        /* \"contracts/Router/primaryRouter.sol\":6139:6163  outputToken.transferFrom */\n      0xffffffffffffffffffffffffffffffffffffffff\n      and\n      0x23b872dd\n        /* \"contracts/Router/primaryRouter.sol\":6181:6190  tokenData */\n      0x01\n        /* \"contracts/Router/primaryRouter.sol\":6181:6209  tokenData[friggTokenAddress] */\n      0x00\n        /* \"contracts/Router/primaryRouter.sol\":6191:6208  friggTokenAddress */\n      dup9\n        /* \"contracts/Router/primaryRouter.sol\":6181:6209  tokenData[friggTokenAddress] */\n      0xffffffffffffffffffffffffffffffffffffffff\n      and\n      0xffffffffffffffffffffffffffffffffffffffff\n      and\n      dup2\n      mstore\n      0x20\n      add\n      swap1\n      dup2\n      mstore\n      0x20\n      add\n      0x00\n      keccak256\n        /* \"contracts/Router/primaryRouter.sol\":6181:6216  tokenData[friggTokenAddress].issuer */\n      0x00\n      add\n      0x00\n      swap1\n      sload\n      swap1\n      0x0100\n      exp\n      swap1\n      div\n      0xffffffffffffffffffffffffffffffffffffffff\n      and\n        /* \"contracts/Router/primaryRouter.sol\":6235:6245  msg.sender */\n      caller\n        /* \"contracts/Router/primaryRouter.sol\":6263:6280  outputTokenAmount */\n      dup5\n        /* \"contracts/Router/primaryRouter.sol\":6139:6298  outputToken.transferFrom(... */\n      mload(0x40)\n      dup5\n      0xffffffff\n      and\n      0xe0\n      shl\n      dup2\n      mstore\n      0x04\n      add\n      tag_120\n      swap4\n      swap3\n      swap2\n      swap1\n      tag_121\n      jump\t// in\n    tag_120:\n      0x20\n      mload(0x40)\n      dup1\n      dup4\n      sub\n      dup2\n      0x00\n      dup8\n      dup1\n      extcodesize\n      iszero\n      dup1\n      iszero\n      tag_122\n      jumpi\n      0x00\n      dup1\n      revert\n    tag_122:\n      pop\n      gas\n      call\n      iszero\n      dup1\n      iszero\n      tag_124\n      jumpi\n      returndatasize\n      0x00\n      dup1\n      returndatacopy\n      revert(0x00, returndatasize)\n    tag_124:\n      pop\n      pop\n      pop\n      pop\n      mload(0x40)\n      returndatasize\n      not(0x1f)\n      0x1f\n      dup3\n      add\n      and\n      dup3\n      add\n      dup1\n      0x40\n      mstore\n      pop\n      dup2\n      add\n      swap1\n      tag_125\n      swap2\n      swap1\n      tag_90\n      jump\t// in\n    tag_125:\n      pop\n        /* \"contracts/Router/primaryRouter.sol\":6351:6361  msg.sender */\n      caller\n        /* \"contracts/Router/primaryRouter.sol\":6330:6404  SuccessfulExpiration(msg.sender, friggTokenAddress, inputFriggTokenAmount) */\n      0xffffffffffffffffffffffffffffffffffffffff\n      and\n      0x165e50ed3a693f2ff4dcc70a4835f65ce8e0fbb700ba9c2ddb0aa07e06fa479e\n        /* \"contracts/Router/primaryRouter.sol\":6363:6380  friggTokenAddress */\n      dup7\n        /* \"contracts/Router/primaryRouter.sol\":6382:6403  inputFriggTokenAmount */\n      dup7\n        /* \"contracts/Router/primaryRouter.sol\":6330:6404  SuccessfulExpiration(msg.sender, friggTokenAddress, inputFriggTokenAmount) */\n      mload(0x40)\n      tag_126\n      swap3\n      swap2\n      swap1\n      tag_114\n      jump\t// in\n    tag_126:\n      mload(0x40)\n      dup1\n      swap2\n      sub\n      swap1\n      log2\n        /* \"contracts/Router/primaryRouter.sol\":5236:6415  {... */\n      pop\n      pop\n      pop\n        /* \"contracts/Router/primaryRouter.sol\":5155:6415  function sell(address friggTokenAddress, uint256 inputFriggTokenAmount) external {... */\n      pop\n      pop\n      jump\t// out\n        /* \"@openzeppelin/contracts/access/AccessControl.sol\":2895:3040  function hasRole(bytes32 role, address account) public view virtual override returns (bool) {... */\n    tag_50:\n        /* \"@openzeppelin/contracts/access/AccessControl.sol\":2981:2985  bool */\n      0x00\n        /* \"@openzeppelin/contracts/access/AccessControl.sol\":3004:3010  _roles */\n      dup1\n        /* \"@openzeppelin/contracts/access/AccessControl.sol\":3004:3016  _roles[role] */\n      0x00\n        /* \"@openzeppelin/contracts/access/AccessControl.sol\":3011:3015  role */\n      dup5\n        /* \"@openzeppelin/contracts/access/AccessControl.sol\":3004:3016  _roles[role] */\n      dup2\n      mstore\n      0x20\n      add\n      swap1\n      dup2\n      mstore\n      0x20\n      add\n      0x00\n      keccak256\n        /* \"@openzeppelin/contracts/access/AccessControl.sol\":3004:3024  _roles[role].members */\n      0x00\n      add\n        /* \"@openzeppelin/contracts/access/AccessControl.sol\":3004:3033  _roles[role].members[account] */\n      0x00\n        /* \"@openzeppelin/contracts/access/AccessControl.sol\":3025:3032  account */\n      dup4\n        /* \"@openzeppelin/contracts/access/AccessControl.sol\":3004:3033  _roles[role].members[account] */\n      0xffffffffffffffffffffffffffffffffffffffff\n      and\n      0xffffffffffffffffffffffffffffffffffffffff\n      and\n      dup2\n      mstore\n      0x20\n      add\n      swap1\n      dup2\n      mstore\n      0x20\n      add\n      0x00\n      keccak256\n      0x00\n      swap1\n      sload\n      swap1\n      0x0100\n      exp\n      swap1\n      div\n      0xff\n      and\n        /* \"@openzeppelin/contracts/access/AccessControl.sol\":2997:3033  return _roles[role].members[account] */\n      swap1\n      pop\n        /* \"@openzeppelin/contracts/access/AccessControl.sol\":2895:3040  function hasRole(bytes32 role, address account) public view virtual override returns (bool) {... */\n      swap3\n      swap2\n      pop\n      pop\n      jump\t// out\n        /* \"@openzeppelin/contracts/access/AccessControl.sol\":2027:2076  bytes32 public constant DEFAULT_ADMIN_ROLE = 0x00 */\n    tag_53:\n        /* \"@openzeppelin/contracts/access/AccessControl.sol\":2072:2076  0x00 */\n      0x00\n        /* \"@openzeppelin/contracts/access/AccessControl.sol\":2027:2076  bytes32 public constant DEFAULT_ADMIN_ROLE = 0x00 */\n      dup1\n      shl\n      dup2\n      jump\t// out\n        /* \"contracts/Router/primaryRouter.sol\":3568:4753  function buy(address friggTokenAddress, uint256 inputTokenAmount) external {... */\n    tag_57:\n        /* \"contracts/Router/primaryRouter.sol\":3684:3685  0 */\n      0x00\n        /* \"contracts/Router/primaryRouter.sol\":3665:3681  inputTokenAmount */\n      dup2\n        /* \"contracts/Router/primaryRouter.sol\":3665:3685  inputTokenAmount > 0 */\n      gt\n        /* \"contracts/Router/primaryRouter.sol\":3657:3717  require(inputTokenAmount > 0, \"You cannot buy with 0 token\") */\n      tag_129\n      jumpi\n      mload(0x40)\n      0x08c379a000000000000000000000000000000000000000000000000000000000\n      dup2\n      mstore\n      0x04\n      add\n      tag_130\n      swap1\n      tag_131\n      jump\t// in\n    tag_130:\n      mload(0x40)\n      dup1\n      swap2\n      sub\n      swap1\n      revert\n    tag_129:\n        /* \"contracts/Router/primaryRouter.sol\":3861:3862  0 */\n      0x00\n        /* \"contracts/Router/primaryRouter.sol\":3793:3802  tokenData */\n      0x01\n        /* \"contracts/Router/primaryRouter.sol\":3793:3821  tokenData[friggTokenAddress] */\n      0x00\n        /* \"contracts/Router/primaryRouter.sol\":3803:3820  friggTokenAddress */\n      dup5\n        /* \"contracts/Router/primaryRouter.sol\":3793:3821  tokenData[friggTokenAddress] */\n      0xffffffffffffffffffffffffffffffffffffffff\n      and\n      0xffffffffffffffffffffffffffffffffffffffff\n      and\n      dup2\n      mstore\n      0x20\n      add\n      swap1\n      dup2\n      mstore\n      0x20\n      add\n      0x00\n      keccak256\n        /* \"contracts/Router/primaryRouter.sol\":3793:3833  tokenData[friggTokenAddress].uIdContract */\n      0x01\n      add\n      0x00\n      swap1\n      sload\n      swap1\n      0x0100\n      exp\n      swap1\n      div\n      0xffffffffffffffffffffffffffffffffffffffff\n      and\n        /* \"contracts/Router/primaryRouter.sol\":3784:3844  IERC1155(tokenData[friggTokenAddress].uIdContract).balanceOf */\n      0xffffffffffffffffffffffffffffffffffffffff\n      and\n      0xfdd58e\n        /* \"contracts/Router/primaryRouter.sol\":3845:3855  msg.sender */\n      caller\n        /* \"contracts/Router/primaryRouter.sol\":3856:3857  0 */\n      0x00\n        /* \"contracts/Router/primaryRouter.sol\":3784:3858  IERC1155(tokenData[friggTokenAddress].uIdContract).balanceOf(msg.sender,0) */\n      mload(0x40)\n      dup4\n      0xffffffff\n      and\n      0xe0\n      shl\n      dup2\n      mstore\n      0x04\n      add\n      tag_132\n      swap3\n      swap2\n      swap1\n      tag_99\n      jump\t// in\n    tag_132:\n      0x20\n      mload(0x40)\n      dup1\n      dup4\n      sub\n      dup2\n      dup7\n      dup1\n      extcodesize\n      iszero\n      dup1\n      iszero\n      tag_133\n      jumpi\n      0x00\n      dup1\n      revert\n    tag_133:\n      pop\n      gas\n      staticcall\n      iszero\n      dup1\n      iszero\n      tag_135\n      jumpi\n      returndatasize\n      0x00\n      dup1\n      returndatacopy\n      revert(0x00, returndatasize)\n    tag_135:\n      pop\n      pop\n      pop\n      pop\n      mload(0x40)\n      returndatasize\n      not(0x1f)\n      0x1f\n      dup3\n      add\n      and\n      dup3\n      add\n      dup1\n      0x40\n      mstore\n      pop\n      dup2\n      add\n      swap1\n      tag_136\n      swap2\n      swap1\n      tag_104\n      jump\t// in\n    tag_136:\n        /* \"contracts/Router/primaryRouter.sol\":3784:3862  IERC1155(tokenData[friggTokenAddress].uIdContract).balanceOf(msg.sender,0) > 0 */\n      gt\n        /* \"contracts/Router/primaryRouter.sol\":3776:3883  require(IERC1155(tokenData[friggTokenAddress].uIdContract).balanceOf(msg.sender,0) > 0, \"Need a UID token\") */\n      tag_137\n      jumpi\n      mload(0x40)\n      0x08c379a000000000000000000000000000000000000000000000000000000000\n      dup2\n      mstore\n      0x04\n      add\n      tag_138\n      swap1\n      tag_107\n      jump\t// in\n    tag_138:\n      mload(0x40)\n      dup1\n      swap2\n      sub\n      swap1\n      revert\n    tag_137:\n        /* \"contracts/Router/primaryRouter.sol\":3922:3939  IERC20 inputToken */\n      0x00\n        /* \"contracts/Router/primaryRouter.sol\":3949:3958  tokenData */\n      0x01\n        /* \"contracts/Router/primaryRouter.sol\":3949:3977  tokenData[friggTokenAddress] */\n      0x00\n        /* \"contracts/Router/primaryRouter.sol\":3959:3976  friggTokenAddress */\n      dup5\n        /* \"contracts/Router/primaryRouter.sol\":3949:3977  tokenData[friggTokenAddress] */\n      0xffffffffffffffffffffffffffffffffffffffff\n      and\n      0xffffffffffffffffffffffffffffffffffffffff\n      and\n      dup2\n      mstore\n      0x20\n      add\n      swap1\n      dup2\n      mstore\n      0x20\n      add\n      0x00\n      keccak256\n        /* \"contracts/Router/primaryRouter.sol\":3949:3998  tokenData[friggTokenAddress].issuanceTokenAddress */\n      0x04\n      add\n      0x00\n      swap1\n      sload\n      swap1\n      0x0100\n      exp\n      swap1\n      div\n      0xffffffffffffffffffffffffffffffffffffffff\n      and\n        /* \"contracts/Router/primaryRouter.sol\":3922:3999  IERC20 inputToken = IERC20(tokenData[friggTokenAddress].issuanceTokenAddress) */\n      swap1\n      pop\n        /* \"contracts/Router/primaryRouter.sol\":4013:4031  IFrigg outputToken */\n      0x00\n        /* \"contracts/Router/primaryRouter.sol\":4041:4058  friggTokenAddress */\n      dup4\n        /* \"contracts/Router/primaryRouter.sol\":4013:4059  IFrigg outputToken = IFrigg(friggTokenAddress) */\n      swap1\n      pop\n        /* \"contracts/Router/primaryRouter.sol\":4132:4143  outputToken */\n      dup1\n        /* \"contracts/Router/primaryRouter.sol\":4132:4165  outputToken.isPrimaryMarketActive */\n      0xffffffffffffffffffffffffffffffffffffffff\n      and\n      0x2e873bac\n        /* \"contracts/Router/primaryRouter.sol\":4132:4167  outputToken.isPrimaryMarketActive() */\n      mload(0x40)\n      dup2\n      0xffffffff\n      and\n      0xe0\n      shl\n      dup2\n      mstore\n      0x04\n      add\n      0x20\n      mload(0x40)\n      dup1\n      dup4\n      sub\n      dup2\n      dup7\n      dup1\n      extcodesize\n      iszero\n      dup1\n      iszero\n      tag_139\n      jumpi\n      0x00\n      dup1\n      revert\n    tag_139:\n      pop\n      gas\n      staticcall\n      iszero\n      dup1\n      iszero\n      tag_141\n      jumpi\n      returndatasize\n      0x00\n      dup1\n      returndatacopy\n      revert(0x00, returndatasize)\n    tag_141:\n      pop\n      pop\n      pop\n      pop\n      mload(0x40)\n      returndatasize\n      not(0x1f)\n      0x1f\n      dup3\n      add\n      and\n      dup3\n      add\n      dup1\n      0x40\n      mstore\n      pop\n      dup2\n      add\n      swap1\n      tag_142\n      swap2\n      swap1\n      tag_90\n      jump\t// in\n    tag_142:\n        /* \"contracts/Router/primaryRouter.sol\":4124:4168  require(outputToken.isPrimaryMarketActive()) */\n      tag_143\n      jumpi\n      0x00\n      dup1\n      revert\n    tag_143:\n        /* \"contracts/Router/primaryRouter.sol\":4183:4193  inputToken */\n      dup2\n        /* \"contracts/Router/primaryRouter.sol\":4183:4206  inputToken.transferFrom */\n      0xffffffffffffffffffffffffffffffffffffffff\n      and\n      0x23b872dd\n        /* \"contracts/Router/primaryRouter.sol\":4224:4234  msg.sender */\n      caller\n        /* \"contracts/Router/primaryRouter.sol\":4252:4261  tokenData */\n      0x01\n        /* \"contracts/Router/primaryRouter.sol\":4252:4280  tokenData[friggTokenAddress] */\n      0x00\n        /* \"contracts/Router/primaryRouter.sol\":4262:4279  friggTokenAddress */\n      dup9\n        /* \"contracts/Router/primaryRouter.sol\":4252:4280  tokenData[friggTokenAddress] */\n      0xffffffffffffffffffffffffffffffffffffffff\n      and\n      0xffffffffffffffffffffffffffffffffffffffff\n      and\n      dup2\n      mstore\n      0x20\n      add\n      swap1\n      dup2\n      mstore\n      0x20\n      add\n      0x00\n      keccak256\n        /* \"contracts/Router/primaryRouter.sol\":4252:4287  tokenData[friggTokenAddress].issuer */\n      0x00\n      add\n      0x00\n      swap1\n      sload\n      swap1\n      0x0100\n      exp\n      swap1\n      div\n      0xffffffffffffffffffffffffffffffffffffffff\n      and\n        /* \"contracts/Router/primaryRouter.sol\":4305:4321  inputTokenAmount */\n      dup7\n        /* \"contracts/Router/primaryRouter.sol\":4183:4339  inputToken.transferFrom(... */\n      mload(0x40)\n      dup5\n      0xffffffff\n      and\n      0xe0\n      shl\n      dup2\n      mstore\n      0x04\n      add\n      tag_144\n      swap4\n      swap3\n      swap2\n      swap1\n      tag_121\n      jump\t// in\n    tag_144:\n      0x20\n      mload(0x40)\n      dup1\n      dup4\n      sub\n      dup2\n      0x00\n      dup8\n      dup1\n      extcodesize\n      iszero\n      dup1\n      iszero\n      tag_145\n      jumpi\n      0x00\n      dup1\n      revert\n    tag_145:\n      pop\n      gas\n      call\n      iszero\n      dup1\n      iszero\n      tag_147\n      jumpi\n      returndatasize\n      0x00\n      dup1\n      returndatacopy\n      revert(0x00, returndatasize)\n    tag_147:\n      pop\n      pop\n      pop\n      pop\n      mload(0x40)\n      returndatasize\n      not(0x1f)\n      0x1f\n      dup3\n      add\n      and\n      dup3\n      add\n      dup1\n      0x40\n      mstore\n      pop\n      dup2\n      add\n      swap1\n      tag_148\n      swap2\n      swap1\n      tag_90\n      jump\t// in\n    tag_148:\n      pop\n        /* \"contracts/Router/primaryRouter.sol\":4492:4517  uint256 outputTokenAmount */\n      0x00\n        /* \"contracts/Router/primaryRouter.sol\":4539:4548  tokenData */\n      0x01\n        /* \"contracts/Router/primaryRouter.sol\":4539:4567  tokenData[friggTokenAddress] */\n      0x00\n        /* \"contracts/Router/primaryRouter.sol\":4549:4566  friggTokenAddress */\n      dup7\n        /* \"contracts/Router/primaryRouter.sol\":4539:4567  tokenData[friggTokenAddress] */\n      0xffffffffffffffffffffffffffffffffffffffff\n      and\n      0xffffffffffffffffffffffffffffffffffffffff\n      and\n      dup2\n      mstore\n      0x20\n      add\n      swap1\n      dup2\n      mstore\n      0x20\n      add\n      0x00\n      keccak256\n        /* \"contracts/Router/primaryRouter.sol\":4539:4581  tokenData[friggTokenAddress].issuancePrice */\n      0x02\n      add\n      sload\n        /* \"contracts/Router/primaryRouter.sol\":4520:4536  inputTokenAmount */\n      dup5\n        /* \"contracts/Router/primaryRouter.sol\":4520:4581  inputTokenAmount * tokenData[friggTokenAddress].issuancePrice */\n      tag_149\n      swap2\n      swap1\n      tag_150\n      jump\t// in\n    tag_149:\n        /* \"contracts/Router/primaryRouter.sol\":4492:4581  uint256 outputTokenAmount = inputTokenAmount * tokenData[friggTokenAddress].issuancePrice */\n      swap1\n      pop\n        /* \"contracts/Router/primaryRouter.sol\":4596:4607  outputToken */\n      dup2\n        /* \"contracts/Router/primaryRouter.sol\":4596:4612  outputToken.mint */\n      0xffffffffffffffffffffffffffffffffffffffff\n      and\n      0x40c10f19\n        /* \"contracts/Router/primaryRouter.sol\":4613:4623  msg.sender */\n      caller\n        /* \"contracts/Router/primaryRouter.sol\":4625:4642  outputTokenAmount */\n      dup4\n        /* \"contracts/Router/primaryRouter.sol\":4596:4643  outputToken.mint(msg.sender, outputTokenAmount) */\n      mload(0x40)\n      dup4\n      0xffffffff\n      and\n      0xe0\n      shl\n      dup2\n      mstore\n      0x04\n      add\n      tag_151\n      swap3\n      swap2\n      swap1\n      tag_114\n      jump\t// in\n    tag_151:\n      0x00\n      mload(0x40)\n      dup1\n      dup4\n      sub\n      dup2\n      0x00\n      dup8\n      dup1\n      extcodesize\n      iszero\n      dup1\n      iszero\n      tag_152\n      jumpi\n      0x00\n      dup1\n      revert\n    tag_152:\n      pop\n      gas\n      call\n      iszero\n      dup1\n      iszero\n      tag_154\n      jumpi\n      returndatasize\n      0x00\n      dup1\n      returndatacopy\n      revert(0x00, returndatasize)\n    tag_154:\n      pop\n      pop\n      pop\n      pop\n        /* \"contracts/Router/primaryRouter.sol\":4694:4704  msg.sender */\n      caller\n        /* \"contracts/Router/primaryRouter.sol\":4675:4742  SuccessfulPurchase(msg.sender, friggTokenAddress, inputTokenAmount) */\n      0xffffffffffffffffffffffffffffffffffffffff\n      and\n      0xc676e61b1e79d2fb537a623c39c425429b06c3309e0f79e72ac1dccc697031b5\n        /* \"contracts/Router/primaryRouter.sol\":4706:4723  friggTokenAddress */\n      dup7\n        /* \"contracts/Router/primaryRouter.sol\":4725:4741  inputTokenAmount */\n      dup7\n        /* \"contracts/Router/primaryRouter.sol\":4675:4742  SuccessfulPurchase(msg.sender, friggTokenAddress, inputTokenAmount) */\n      mload(0x40)\n      tag_155\n      swap3\n      swap2\n      swap1\n      tag_114\n      jump\t// in\n    tag_155:\n      mload(0x40)\n      dup1\n      swap2\n      sub\n      swap1\n      log2\n        /* \"contracts/Router/primaryRouter.sol\":3643:4753  {... */\n      pop\n      pop\n      pop\n        /* \"contracts/Router/primaryRouter.sol\":3568:4753  function buy(address friggTokenAddress, uint256 inputTokenAmount) external {... */\n      pop\n      pop\n      jump\t// out\n        /* \"@openzeppelin/contracts/access/AccessControl.sol\":5241:5388  function revokeRole(bytes32 role, address account) public virtual override onlyRole(getRoleAdmin(role)) {... */\n    tag_60:\n        /* \"@openzeppelin/contracts/access/AccessControl.sol\":5325:5343  getRoleAdmin(role) */\n      tag_156\n        /* \"@openzeppelin/contracts/access/AccessControl.sol\":5338:5342  role */\n      dup3\n        /* \"@openzeppelin/contracts/access/AccessControl.sol\":5325:5337  getRoleAdmin */\n      tag_24\n        /* \"@openzeppelin/contracts/access/AccessControl.sol\":5325:5343  getRoleAdmin(role) */\n      jump\t// in\n    tag_156:\n        /* \"@openzeppelin/contracts/access/AccessControl.sol\":2505:2521  _checkRole(role) */\n      tag_158\n        /* \"@openzeppelin/contracts/access/AccessControl.sol\":2516:2520  role */\n      dup2\n        /* \"@openzeppelin/contracts/access/AccessControl.sol\":2505:2515  _checkRole */\n      tag_69\n        /* \"@openzeppelin/contracts/access/AccessControl.sol\":2505:2521  _checkRole(role) */\n      jump\t// in\n    tag_158:\n        /* \"@openzeppelin/contracts/access/AccessControl.sol\":5355:5381  _revokeRole(role, account) */\n      tag_160\n        /* \"@openzeppelin/contracts/access/AccessControl.sol\":5367:5371  role */\n      dup4\n        /* \"@openzeppelin/contracts/access/AccessControl.sol\":5373:5380  account */\n      dup4\n        /* \"@openzeppelin/contracts/access/AccessControl.sol\":5355:5366  _revokeRole */\n      tag_80\n        /* \"@openzeppelin/contracts/access/AccessControl.sol\":5355:5381  _revokeRole(role, account) */\n      jump\t// in\n    tag_160:\n        /* \"@openzeppelin/contracts/access/AccessControl.sol\":5241:5388  function revokeRole(bytes32 role, address account) public virtual override onlyRole(getRoleAdmin(role)) {... */\n      pop\n      pop\n      pop\n      jump\t// out\n        /* \"@openzeppelin/contracts/utils/introspection/ERC165.sol\":829:984  function supportsInterface(bytes4 interfaceId) public view virtual override returns (bool) {... */\n    tag_64:\n        /* \"@openzeppelin/contracts/utils/introspection/ERC165.sol\":914:918  bool */\n      0x00\n        /* \"@openzeppelin/contracts/utils/introspection/ERC165.sol\":952:977  type(IERC165).interfaceId */\n      0x01ffc9a700000000000000000000000000000000000000000000000000000000\n        /* \"@openzeppelin/contracts/utils/introspection/ERC165.sol\":937:977  interfaceId == type(IERC165).interfaceId */\n      not(0xffffffffffffffffffffffffffffffffffffffffffffffffffffffff)\n      and\n        /* \"@openzeppelin/contracts/utils/introspection/ERC165.sol\":937:948  interfaceId */\n      dup3\n        /* \"@openzeppelin/contracts/utils/introspection/ERC165.sol\":937:977  interfaceId == type(IERC165).interfaceId */\n      not(0xffffffffffffffffffffffffffffffffffffffffffffffffffffffff)\n      and\n      eq\n        /* \"@openzeppelin/contracts/utils/introspection/ERC165.sol\":930:977  return interfaceId == type(IERC165).interfaceId */\n      swap1\n      pop\n        /* \"@openzeppelin/contracts/utils/introspection/ERC165.sol\":829:984  function supportsInterface(bytes4 interfaceId) public view virtual override returns (bool) {... */\n      swap2\n      swap1\n      pop\n      jump\t// out\n        /* \"@openzeppelin/contracts/access/AccessControl.sol\":3334:3437  function _checkRole(bytes32 role) internal view virtual {... */\n    tag_69:\n        /* \"@openzeppelin/contracts/access/AccessControl.sol\":3400:3430  _checkRole(role, _msgSender()) */\n      tag_163\n        /* \"@openzeppelin/contracts/access/AccessControl.sol\":3411:3415  role */\n      dup2\n        /* \"@openzeppelin/contracts/access/AccessControl.sol\":3417:3429  _msgSender() */\n      tag_164\n        /* \"@openzeppelin/contracts/access/AccessControl.sol\":3417:3427  _msgSender */\n      tag_75\n        /* \"@openzeppelin/contracts/access/AccessControl.sol\":3417:3429  _msgSender() */\n      jump\t// in\n    tag_164:\n        /* \"@openzeppelin/contracts/access/AccessControl.sol\":3400:3410  _checkRole */\n      tag_165\n        /* \"@openzeppelin/contracts/access/AccessControl.sol\":3400:3430  _checkRole(role, _msgSender()) */\n      jump\t// in\n    tag_163:\n        /* \"@openzeppelin/contracts/access/AccessControl.sol\":3334:3437  function _checkRole(bytes32 role) internal view virtual {... */\n      pop\n      jump\t// out\n        /* \"@openzeppelin/contracts/access/AccessControl.sol\":7474:7707  function _grantRole(bytes32 role, address account) internal virtual {... */\n    tag_72:\n        /* \"@openzeppelin/contracts/access/AccessControl.sol\":7557:7579  hasRole(role, account) */\n      tag_167\n        /* \"@openzeppelin/contracts/access/AccessControl.sol\":7565:7569  role */\n      dup3\n        /* \"@openzeppelin/contracts/access/AccessControl.sol\":7571:7578  account */\n      dup3\n        /* \"@openzeppelin/contracts/access/AccessControl.sol\":7557:7564  hasRole */\n      tag_50\n        /* \"@openzeppelin/contracts/access/AccessControl.sol\":7557:7579  hasRole(role, account) */\n      jump\t// in\n    tag_167:\n        /* \"@openzeppelin/contracts/access/AccessControl.sol\":7552:7701  if (!hasRole(role, account)) {... */\n      tag_168\n      jumpi\n        /* \"@openzeppelin/contracts/access/AccessControl.sol\":7627:7631  true */\n      0x01\n        /* \"@openzeppelin/contracts/access/AccessControl.sol\":7595:7601  _roles */\n      0x00\n        /* \"@openzeppelin/contracts/access/AccessControl.sol\":7595:7607  _roles[role] */\n      dup1\n        /* \"@openzeppelin/contracts/access/AccessControl.sol\":7602:7606  role */\n      dup5\n        /* \"@openzeppelin/contracts/access/AccessControl.sol\":7595:7607  _roles[role] */\n      dup2\n      mstore\n      0x20\n      add\n      swap1\n      dup2\n      mstore\n      0x20\n      add\n      0x00\n      keccak256\n        /* \"@openzeppelin/contracts/access/AccessControl.sol\":7595:7615  _roles[role].members */\n      0x00\n      add\n        /* \"@openzeppelin/contracts/access/AccessControl.sol\":7595:7624  _roles[role].members[account] */\n      0x00\n        /* \"@openzeppelin/contracts/access/AccessControl.sol\":7616:7623  account */\n      dup4\n        /* \"@openzeppelin/contracts/access/AccessControl.sol\":7595:7624  _roles[role].members[account] */\n      0xffffffffffffffffffffffffffffffffffffffff\n      and\n      0xffffffffffffffffffffffffffffffffffffffff\n      and\n      dup2\n      mstore\n      0x20\n      add\n      swap1\n      dup2\n      mstore\n      0x20\n      add\n      0x00\n      keccak256\n      0x00\n        /* \"@openzeppelin/contracts/access/AccessControl.sol\":7595:7631  _roles[role].members[account] = true */\n      0x0100\n      exp\n      dup2\n      sload\n      dup2\n      0xff\n      mul\n      not\n      and\n      swap1\n      dup4\n      iszero\n      iszero\n      mul\n      or\n      swap1\n      sstore\n      pop\n        /* \"@openzeppelin/contracts/access/AccessControl.sol\":7677:7689  _msgSender() */\n      tag_169\n        /* \"@openzeppelin/contracts/access/AccessControl.sol\":7677:7687  _msgSender */\n      tag_75\n        /* \"@openzeppelin/contracts/access/AccessControl.sol\":7677:7689  _msgSender() */\n      jump\t// in\n    tag_169:\n        /* \"@openzeppelin/contracts/access/AccessControl.sol\":7650:7690  RoleGranted(role, account, _msgSender()) */\n      0xffffffffffffffffffffffffffffffffffffffff\n      and\n        /* \"@openzeppelin/contracts/access/AccessControl.sol\":7668:7675  account */\n      dup2\n        /* \"@openzeppelin/contracts/access/AccessControl.sol\":7650:7690  RoleGranted(role, account, _msgSender()) */\n      0xffffffffffffffffffffffffffffffffffffffff\n      and\n        /* \"@openzeppelin/contracts/access/AccessControl.sol\":7662:7666  role */\n      dup4\n        /* \"@openzeppelin/contracts/access/AccessControl.sol\":7650:7690  RoleGranted(role, account, _msgSender()) */\n      0x2f8788117e7eff1d82e926ec794901d17c78024a50270940304540a733656f0d\n      mload(0x40)\n      mload(0x40)\n      dup1\n      swap2\n      sub\n      swap1\n      log4\n        /* \"@openzeppelin/contracts/access/AccessControl.sol\":7552:7701  if (!hasRole(role, account)) {... */\n    tag_168:\n        /* \"@openzeppelin/contracts/access/AccessControl.sol\":7474:7707  function _grantRole(bytes32 role, address account) internal virtual {... */\n      pop\n      pop\n      jump\t// out\n        /* \"@openzeppelin/contracts/utils/Context.sol\":640:736  function _msgSender() internal view virtual returns (address) {... */\n    tag_75:\n        /* \"@openzeppelin/contracts/utils/Context.sol\":693:700  address */\n      0x00\n        /* \"@openzeppelin/contracts/utils/Context.sol\":719:729  msg.sender */\n      caller\n        /* \"@openzeppelin/contracts/utils/Context.sol\":712:729  return msg.sender */\n      swap1\n      pop\n        /* \"@openzeppelin/contracts/utils/Context.sol\":640:736  function _msgSender() internal view virtual returns (address) {... */\n      swap1\n      jump\t// out\n        /* \"@openzeppelin/contracts/access/AccessControl.sol\":7878:8112  function _revokeRole(bytes32 role, address account) internal virtual {... */\n    tag_80:\n        /* \"@openzeppelin/contracts/access/AccessControl.sol\":7961:7983  hasRole(role, account) */\n      tag_172\n        /* \"@openzeppelin/contracts/access/AccessControl.sol\":7969:7973  role */\n      dup3\n        /* \"@openzeppelin/contracts/access/AccessControl.sol\":7975:7982  account */\n      dup3\n        /* \"@openzeppelin/contracts/access/AccessControl.sol\":7961:7968  hasRole */\n      tag_50\n        /* \"@openzeppelin/contracts/access/AccessControl.sol\":7961:7983  hasRole(role, account) */\n      jump\t// in\n    tag_172:\n        /* \"@openzeppelin/contracts/access/AccessControl.sol\":7957:8106  if (hasRole(role, account)) {... */\n      iszero\n      tag_173\n      jumpi\n        /* \"@openzeppelin/contracts/access/AccessControl.sol\":8031:8036  false */\n      0x00\n        /* \"@openzeppelin/contracts/access/AccessControl.sol\":7999:8005  _roles */\n      dup1\n        /* \"@openzeppelin/contracts/access/AccessControl.sol\":7999:8011  _roles[role] */\n      0x00\n        /* \"@openzeppelin/contracts/access/AccessControl.sol\":8006:8010  role */\n      dup5\n        /* \"@openzeppelin/contracts/access/AccessControl.sol\":7999:8011  _roles[role] */\n      dup2\n      mstore\n      0x20\n      add\n      swap1\n      dup2\n      mstore\n      0x20\n      add\n      0x00\n      keccak256\n        /* \"@openzeppelin/contracts/access/AccessControl.sol\":7999:8019  _roles[role].members */\n      0x00\n      add\n        /* \"@openzeppelin/contracts/access/AccessControl.sol\":7999:8028  _roles[role].members[account] */\n      0x00\n        /* \"@openzeppelin/contracts/access/AccessControl.sol\":8020:8027  account */\n      dup4\n        /* \"@openzeppelin/contracts/access/AccessControl.sol\":7999:8028  _roles[role].members[account] */\n      0xffffffffffffffffffffffffffffffffffffffff\n      and\n      0xffffffffffffffffffffffffffffffffffffffff\n      and\n      dup2\n      mstore\n      0x20\n      add\n      swap1\n      dup2\n      mstore\n      0x20\n      add\n      0x00\n      keccak256\n      0x00\n        /* \"@openzeppelin/contracts/access/AccessControl.sol\":7999:8036  _roles[role].members[account] = false */\n      0x0100\n      exp\n      dup2\n      sload\n      dup2\n      0xff\n      mul\n      not\n      and\n      swap1\n      dup4\n      iszero\n      iszero\n      mul\n      or\n      swap1\n      sstore\n      pop\n        /* \"@openzeppelin/contracts/access/AccessControl.sol\":8082:8094  _msgSender() */\n      tag_174\n        /* \"@openzeppelin/contracts/access/AccessControl.sol\":8082:8092  _msgSender */\n      tag_75\n        /* \"@openzeppelin/contracts/access/AccessControl.sol\":8082:8094  _msgSender() */\n      jump\t// in\n    tag_174:\n        /* \"@openzeppelin/contracts/access/AccessControl.sol\":8055:8095  RoleRevoked(role, account, _msgSender()) */\n      0xffffffffffffffffffffffffffffffffffffffff\n      and\n        /* \"@openzeppelin/contracts/access/AccessControl.sol\":8073:8080  account */\n      dup2\n        /* \"@openzeppelin/contracts/access/AccessControl.sol\":8055:8095  RoleRevoked(role, account, _msgSender()) */\n      0xffffffffffffffffffffffffffffffffffffffff\n      and\n        /* \"@openzeppelin/contracts/access/AccessControl.sol\":8067:8071  role */\n      dup4\n        /* \"@openzeppelin/contracts/access/AccessControl.sol\":8055:8095  RoleRevoked(role, account, _msgSender()) */\n      0xf6391f5c32d9c69d2a47ea670b442974b53935d1edc7fd64eb21e047a839171b\n      mload(0x40)\n      mload(0x40)\n      dup1\n      swap2\n      sub\n      swap1\n      log4\n        /* \"@openzeppelin/contracts/access/AccessControl.sol\":7957:8106  if (hasRole(role, account)) {... */\n    tag_173:\n        /* \"@openzeppelin/contracts/access/AccessControl.sol\":7878:8112  function _revokeRole(bytes32 role, address account) internal virtual {... */\n      pop\n      pop\n      jump\t// out\n        /* \"@openzeppelin/contracts/access/AccessControl.sol\":3718:4210  function _checkRole(bytes32 role, address account) internal view virtual {... */\n    tag_165:\n        /* \"@openzeppelin/contracts/access/AccessControl.sol\":3806:3828  hasRole(role, account) */\n      tag_176\n        /* \"@openzeppelin/contracts/access/AccessControl.sol\":3814:3818  role */\n      dup3\n        /* \"@openzeppelin/contracts/access/AccessControl.sol\":3820:3827  account */\n      dup3\n        /* \"@openzeppelin/contracts/access/AccessControl.sol\":3806:3813  hasRole */\n      tag_50\n        /* \"@openzeppelin/contracts/access/AccessControl.sol\":3806:3828  hasRole(role, account) */\n      jump\t// in\n    tag_176:\n        /* \"@openzeppelin/contracts/access/AccessControl.sol\":3801:4204  if (!hasRole(role, account)) {... */\n      tag_177\n      jumpi\n        /* \"@openzeppelin/contracts/access/AccessControl.sol\":3989:4030  Strings.toHexString(uint160(account), 20) */\n      tag_178\n        /* \"@openzeppelin/contracts/access/AccessControl.sol\":4017:4024  account */\n      dup2\n        /* \"@openzeppelin/contracts/access/AccessControl.sol\":3989:4030  Strings.toHexString(uint160(account), 20) */\n      0xffffffffffffffffffffffffffffffffffffffff\n      and\n        /* \"@openzeppelin/contracts/access/AccessControl.sol\":4027:4029  20 */\n      0x14\n        /* \"@openzeppelin/contracts/access/AccessControl.sol\":3989:4008  Strings.toHexString */\n      tag_179\n        /* \"@openzeppelin/contracts/access/AccessControl.sol\":3989:4030  Strings.toHexString(uint160(account), 20) */\n      jump\t// in\n    tag_178:\n        /* \"@openzeppelin/contracts/access/AccessControl.sol\":4101:4139  Strings.toHexString(uint256(role), 32) */\n      tag_180\n        /* \"@openzeppelin/contracts/access/AccessControl.sol\":4129:4133  role */\n      dup4\n        /* \"@openzeppelin/contracts/access/AccessControl.sol\":4121:4134  uint256(role) */\n      0x00\n      shr\n        /* \"@openzeppelin/contracts/access/AccessControl.sol\":4136:4138  32 */\n      0x20\n        /* \"@openzeppelin/contracts/access/AccessControl.sol\":4101:4120  Strings.toHexString */\n      tag_179\n        /* \"@openzeppelin/contracts/access/AccessControl.sol\":4101:4139  Strings.toHexString(uint256(role), 32) */\n      jump\t// in\n    tag_180:\n        /* \"@openzeppelin/contracts/access/AccessControl.sol\":3896:4161  abi.encodePacked(... */\n      add(0x20, mload(0x40))\n      tag_181\n      swap3\n      swap2\n      swap1\n      tag_182\n      jump\t// in\n    tag_181:\n      mload(0x40)\n      0x20\n      dup2\n      dup4\n      sub\n      sub\n      dup2\n      mstore\n      swap1\n      0x40\n      mstore\n        /* \"@openzeppelin/contracts/access/AccessControl.sol\":3844:4193  revert(... */\n      mload(0x40)\n      0x08c379a000000000000000000000000000000000000000000000000000000000\n      dup2\n      mstore\n      0x04\n      add\n      tag_183\n      swap2\n      swap1\n      tag_184\n      jump\t// in\n    tag_183:\n      mload(0x40)\n      dup1\n      swap2\n      sub\n      swap1\n      revert\n        /* \"@openzeppelin/contracts/access/AccessControl.sol\":3801:4204  if (!hasRole(role, account)) {... */\n    tag_177:\n        /* \"@openzeppelin/contracts/access/AccessControl.sol\":3718:4210  function _checkRole(bytes32 role, address account) internal view virtual {... */\n      pop\n      pop\n      jump\t// out\n        /* \"@openzeppelin/contracts/utils/Strings.sol\":1652:2093  function toHexString(uint256 value, uint256 length) internal pure returns (string memory) {... */\n    tag_179:\n        /* \"@openzeppelin/contracts/utils/Strings.sol\":1727:1740  string memory */\n      0x60\n        /* \"@openzeppelin/contracts/utils/Strings.sol\":1752:1771  bytes memory buffer */\n      0x00\n        /* \"@openzeppelin/contracts/utils/Strings.sol\":1797:1798  2 */\n      0x02\n        /* \"@openzeppelin/contracts/utils/Strings.sol\":1788:1794  length */\n      dup4\n        /* \"@openzeppelin/contracts/utils/Strings.sol\":1784:1785  2 */\n      0x02\n        /* \"@openzeppelin/contracts/utils/Strings.sol\":1784:1794  2 * length */\n      tag_186\n      swap2\n      swap1\n      tag_150\n      jump\t// in\n    tag_186:\n        /* \"@openzeppelin/contracts/utils/Strings.sol\":1784:1798  2 * length + 2 */\n      tag_187\n      swap2\n      swap1\n      tag_188\n      jump\t// in\n    tag_187:\n        /* \"@openzeppelin/contracts/utils/Strings.sol\":1774:1799  new bytes(2 * length + 2) */\n      0xffffffffffffffff\n      dup2\n      gt\n      iszero\n      tag_189\n      jumpi\n      tag_190\n      tag_191\n      jump\t// in\n    tag_190:\n    tag_189:\n      mload(0x40)\n      swap1\n      dup1\n      dup3\n      mstore\n      dup1\n      0x1f\n      add\n      not(0x1f)\n      and\n      0x20\n      add\n      dup3\n      add\n      0x40\n      mstore\n      dup1\n      iszero\n      tag_192\n      jumpi\n      dup2\n      0x20\n      add\n      0x01\n      dup3\n      mul\n      dup1\n      calldatasize\n      dup4\n      calldatacopy\n      dup1\n      dup3\n      add\n      swap2\n      pop\n      pop\n      swap1\n      pop\n    tag_192:\n      pop\n        /* \"@openzeppelin/contracts/utils/Strings.sol\":1752:1799  bytes memory buffer = new bytes(2 * length + 2) */\n      swap1\n      pop\n        /* \"@openzeppelin/contracts/utils/Strings.sol\":1809:1824  buffer[0] = \"0\" */\n      0x3000000000000000000000000000000000000000000000000000000000000000\n        /* \"@openzeppelin/contracts/utils/Strings.sol\":1809:1815  buffer */\n      dup2\n        /* \"@openzeppelin/contracts/utils/Strings.sol\":1816:1817  0 */\n      0x00\n        /* \"@openzeppelin/contracts/utils/Strings.sol\":1809:1818  buffer[0] */\n      dup2\n      mload\n      dup2\n      lt\n      tag_193\n      jumpi\n      tag_194\n      tag_195\n      jump\t// in\n    tag_194:\n    tag_193:\n      0x20\n      add\n      add\n        /* \"@openzeppelin/contracts/utils/Strings.sol\":1809:1824  buffer[0] = \"0\" */\n      swap1\n      not(0xffffffffffffffffffffffffffffffffffffffffffffffffffffffffffffff)\n      and\n      swap1\n      dup2\n      0x00\n      byte\n      swap1\n      mstore8\n      pop\n        /* \"@openzeppelin/contracts/utils/Strings.sol\":1834:1849  buffer[1] = \"x\" */\n      0x7800000000000000000000000000000000000000000000000000000000000000\n        /* \"@openzeppelin/contracts/utils/Strings.sol\":1834:1840  buffer */\n      dup2\n        /* \"@openzeppelin/contracts/utils/Strings.sol\":1841:1842  1 */\n      0x01\n        /* \"@openzeppelin/contracts/utils/Strings.sol\":1834:1843  buffer[1] */\n      dup2\n      mload\n      dup2\n      lt\n      tag_196\n      jumpi\n      tag_197\n      tag_195\n      jump\t// in\n    tag_197:\n    tag_196:\n      0x20\n      add\n      add\n        /* \"@openzeppelin/contracts/utils/Strings.sol\":1834:1849  buffer[1] = \"x\" */\n      swap1\n      not(0xffffffffffffffffffffffffffffffffffffffffffffffffffffffffffffff)\n      and\n      swap1\n      dup2\n      0x00\n      byte\n      swap1\n      mstore8\n      pop\n        /* \"@openzeppelin/contracts/utils/Strings.sol\":1864:1873  uint256 i */\n      0x00\n        /* \"@openzeppelin/contracts/utils/Strings.sol\":1889:1890  1 */\n      0x01\n        /* \"@openzeppelin/contracts/utils/Strings.sol\":1880:1886  length */\n      dup5\n        /* \"@openzeppelin/contracts/utils/Strings.sol\":1876:1877  2 */\n      0x02\n        /* \"@openzeppelin/contracts/utils/Strings.sol\":1876:1886  2 * length */\n      tag_201\n      swap2\n      swap1\n      tag_150\n      jump\t// in\n    tag_201:\n        /* \"@openzeppelin/contracts/utils/Strings.sol\":1876:1890  2 * length + 1 */\n      tag_202\n      swap2\n      swap1\n      tag_188\n      jump\t// in\n    tag_202:\n        /* \"@openzeppelin/contracts/utils/Strings.sol\":1864:1890  uint256 i = 2 * length + 1 */\n      swap1\n      pop\n        /* \"@openzeppelin/contracts/utils/Strings.sol\":1859:1991  for (uint256 i = 2 * length + 1; i > 1; --i) {... */\n    tag_198:\n        /* \"@openzeppelin/contracts/utils/Strings.sol\":1896:1897  1 */\n      0x01\n        /* \"@openzeppelin/contracts/utils/Strings.sol\":1892:1893  i */\n      dup2\n        /* \"@openzeppelin/contracts/utils/Strings.sol\":1892:1897  i > 1 */\n      gt\n        /* \"@openzeppelin/contracts/utils/Strings.sol\":1859:1991  for (uint256 i = 2 * length + 1; i > 1; --i) {... */\n      iszero\n      tag_199\n      jumpi\n        /* \"@openzeppelin/contracts/utils/Strings.sol\":1930:1942  _HEX_SYMBOLS */\n      0x3031323334353637383961626364656600000000000000000000000000000000\n        /* \"@openzeppelin/contracts/utils/Strings.sol\":1951:1954  0xf */\n      0x0f\n        /* \"@openzeppelin/contracts/utils/Strings.sol\":1943:1948  value */\n      dup7\n        /* \"@openzeppelin/contracts/utils/Strings.sol\":1943:1954  value & 0xf */\n      and\n        /* \"@openzeppelin/contracts/utils/Strings.sol\":1930:1955  _HEX_SYMBOLS[value & 0xf] */\n      0x10\n      dup2\n      lt\n      tag_203\n      jumpi\n      tag_204\n      tag_195\n      jump\t// in\n    tag_204:\n    tag_203:\n      byte\n      0xf8\n      shl\n        /* \"@openzeppelin/contracts/utils/Strings.sol\":1918:1924  buffer */\n      dup3\n        /* \"@openzeppelin/contracts/utils/Strings.sol\":1925:1926  i */\n      dup3\n        /* \"@openzeppelin/contracts/utils/Strings.sol\":1918:1927  buffer[i] */\n      dup2\n      mload\n      dup2\n      lt\n      tag_205\n      jumpi\n      tag_206\n      tag_195\n      jump\t// in\n    tag_206:\n    tag_205:\n      0x20\n      add\n      add\n        /* \"@openzeppelin/contracts/utils/Strings.sol\":1918:1955  buffer[i] = _HEX_SYMBOLS[value & 0xf] */\n      swap1\n      not(0xffffffffffffffffffffffffffffffffffffffffffffffffffffffffffffff)\n      and\n      swap1\n      dup2\n      0x00\n      byte\n      swap1\n      mstore8\n      pop\n        /* \"@openzeppelin/contracts/utils/Strings.sol\":1979:1980  4 */\n      0x04\n        /* \"@openzeppelin/contracts/utils/Strings.sol\":1969:1980  value >>= 4 */\n      dup6\n      swap1\n      shr\n      swap5\n      pop\n        /* \"@openzeppelin/contracts/utils/Strings.sol\":1899:1902  --i */\n      dup1\n      tag_207\n      swap1\n      tag_208\n      jump\t// in\n    tag_207:\n      swap1\n      pop\n        /* \"@openzeppelin/contracts/utils/Strings.sol\":1859:1991  for (uint256 i = 2 * length + 1; i > 1; --i) {... */\n      jump(tag_198)\n    tag_199:\n      pop\n        /* \"@openzeppelin/contracts/utils/Strings.sol\":2017:2018  0 */\n      0x00\n        /* \"@openzeppelin/contracts/utils/Strings.sol\":2008:2013  value */\n      dup5\n        /* \"@openzeppelin/contracts/utils/Strings.sol\":2008:2018  value == 0 */\n      eq\n        /* \"@openzeppelin/contracts/utils/Strings.sol\":2000:2055  require(value == 0, \"Strings: hex length insufficient\") */\n      tag_209\n      jumpi\n      mload(0x40)\n      0x08c379a000000000000000000000000000000000000000000000000000000000\n      dup2\n      mstore\n      0x04\n      add\n      tag_210\n      swap1\n      tag_211\n      jump\t// in\n    tag_210:\n      mload(0x40)\n      dup1\n      swap2\n      sub\n      swap1\n      revert\n    tag_209:\n        /* \"@openzeppelin/contracts/utils/Strings.sol\":2079:2085  buffer */\n      dup1\n        /* \"@openzeppelin/contracts/utils/Strings.sol\":2065:2086  return string(buffer) */\n      swap2\n      pop\n      pop\n        /* \"@openzeppelin/contracts/utils/Strings.sol\":1652:2093  function toHexString(uint256 value, uint256 length) internal pure returns (string memory) {... */\n      swap3\n      swap2\n      pop\n      pop\n      jump\t// out\n        /* \"#utility.yul\":7:146   */\n    tag_213:\n        /* \"#utility.yul\":53:58   */\n      0x00\n        /* \"#utility.yul\":91:97   */\n      dup2\n        /* \"#utility.yul\":78:98   */\n      calldataload\n        /* \"#utility.yul\":69:98   */\n      swap1\n      pop\n        /* \"#utility.yul\":107:140   */\n      tag_215\n        /* \"#utility.yul\":134:139   */\n      dup2\n        /* \"#utility.yul\":107:140   */\n      tag_216\n      jump\t// in\n    tag_215:\n        /* \"#utility.yul\":7:146   */\n      swap3\n      swap2\n      pop\n      pop\n      jump\t// out\n        /* \"#utility.yul\":152:289   */\n    tag_217:\n        /* \"#utility.yul\":206:211   */\n      0x00\n        /* \"#utility.yul\":237:243   */\n      dup2\n        /* \"#utility.yul\":231:244   */\n      mload\n        /* \"#utility.yul\":222:244   */\n      swap1\n      pop\n        /* \"#utility.yul\":253:283   */\n      tag_219\n        /* \"#utility.yul\":277:282   */\n      dup2\n        /* \"#utility.yul\":253:283   */\n      tag_220\n      jump\t// in\n    tag_219:\n        /* \"#utility.yul\":152:289   */\n      swap3\n      swap2\n      pop\n      pop\n      jump\t// out\n        /* \"#utility.yul\":295:434   */\n    tag_221:\n        /* \"#utility.yul\":341:346   */\n      0x00\n        /* \"#utility.yul\":379:385   */\n      dup2\n        /* \"#utility.yul\":366:386   */\n      calldataload\n        /* \"#utility.yul\":357:386   */\n      swap1\n      pop\n        /* \"#utility.yul\":395:428   */\n      tag_223\n        /* \"#utility.yul\":422:427   */\n      dup2\n        /* \"#utility.yul\":395:428   */\n      tag_224\n      jump\t// in\n    tag_223:\n        /* \"#utility.yul\":295:434   */\n      swap3\n      swap2\n      pop\n      pop\n      jump\t// out\n        /* \"#utility.yul\":440:577   */\n    tag_225:\n        /* \"#utility.yul\":485:490   */\n      0x00\n        /* \"#utility.yul\":523:529   */\n      dup2\n        /* \"#utility.yul\":510:530   */\n      calldataload\n        /* \"#utility.yul\":501:530   */\n      swap1\n      pop\n        /* \"#utility.yul\":539:571   */\n      tag_227\n        /* \"#utility.yul\":565:570   */\n      dup2\n        /* \"#utility.yul\":539:571   */\n      tag_228\n      jump\t// in\n    tag_227:\n        /* \"#utility.yul\":440:577   */\n      swap3\n      swap2\n      pop\n      pop\n      jump\t// out\n        /* \"#utility.yul\":583:722   */\n    tag_229:\n        /* \"#utility.yul\":629:634   */\n      0x00\n        /* \"#utility.yul\":667:673   */\n      dup2\n        /* \"#utility.yul\":654:674   */\n      calldataload\n        /* \"#utility.yul\":645:674   */\n      swap1\n      pop\n        /* \"#utility.yul\":683:716   */\n      tag_231\n        /* \"#utility.yul\":710:715   */\n      dup2\n        /* \"#utility.yul\":683:716   */\n      tag_232\n      jump\t// in\n    tag_231:\n        /* \"#utility.yul\":583:722   */\n      swap3\n      swap2\n      pop\n      pop\n      jump\t// out\n        /* \"#utility.yul\":728:871   */\n    tag_233:\n        /* \"#utility.yul\":785:790   */\n      0x00\n        /* \"#utility.yul\":816:822   */\n      dup2\n        /* \"#utility.yul\":810:823   */\n      mload\n        /* \"#utility.yul\":801:823   */\n      swap1\n      pop\n        /* \"#utility.yul\":832:865   */\n      tag_235\n        /* \"#utility.yul\":859:864   */\n      dup2\n        /* \"#utility.yul\":832:865   */\n      tag_232\n      jump\t// in\n    tag_235:\n        /* \"#utility.yul\":728:871   */\n      swap3\n      swap2\n      pop\n      pop\n      jump\t// out\n        /* \"#utility.yul\":877:1206   */\n    tag_29:\n        /* \"#utility.yul\":936:942   */\n      0x00\n        /* \"#utility.yul\":985:987   */\n      0x20\n        /* \"#utility.yul\":973:982   */\n      dup3\n        /* \"#utility.yul\":964:971   */\n      dup5\n        /* \"#utility.yul\":960:983   */\n      sub\n        /* \"#utility.yul\":956:988   */\n      slt\n        /* \"#utility.yul\":953:1072   */\n      iszero\n      tag_237\n      jumpi\n        /* \"#utility.yul\":991:1070   */\n      tag_238\n      tag_239\n      jump\t// in\n    tag_238:\n        /* \"#utility.yul\":953:1072   */\n    tag_237:\n        /* \"#utility.yul\":1111:1112   */\n      0x00\n        /* \"#utility.yul\":1136:1189   */\n      tag_240\n        /* \"#utility.yul\":1181:1188   */\n      dup5\n        /* \"#utility.yul\":1172:1178   */\n      dup3\n        /* \"#utility.yul\":1161:1170   */\n      dup6\n        /* \"#utility.yul\":1157:1179   */\n      add\n        /* \"#utility.yul\":1136:1189   */\n      tag_213\n      jump\t// in\n    tag_240:\n        /* \"#utility.yul\":1126:1189   */\n      swap2\n      pop\n        /* \"#utility.yul\":1082:1199   */\n      pop\n        /* \"#utility.yul\":877:1206   */\n      swap3\n      swap2\n      pop\n      pop\n      jump\t// out\n        /* \"#utility.yul\":1212:2269   */\n    tag_42:\n        /* \"#utility.yul\":1316:1322   */\n      0x00\n        /* \"#utility.yul\":1324:1330   */\n      dup1\n        /* \"#utility.yul\":1332:1338   */\n      0x00\n        /* \"#utility.yul\":1340:1346   */\n      dup1\n        /* \"#utility.yul\":1348:1354   */\n      0x00\n        /* \"#utility.yul\":1356:1362   */\n      dup1\n        /* \"#utility.yul\":1405:1408   */\n      0xc0\n        /* \"#utility.yul\":1393:1402   */\n      dup8\n        /* \"#utility.yul\":1384:1391   */\n      dup10\n        /* \"#utility.yul\":1380:1403   */\n      sub\n        /* \"#utility.yul\":1376:1409   */\n      slt\n        /* \"#utility.yul\":1373:1493   */\n      iszero\n      tag_242\n      jumpi\n        /* \"#utility.yul\":1412:1491   */\n      tag_243\n      tag_239\n      jump\t// in\n    tag_243:\n        /* \"#utility.yul\":1373:1493   */\n    tag_242:\n        /* \"#utility.yul\":1532:1533   */\n      0x00\n        /* \"#utility.yul\":1557:1610   */\n      tag_244\n        /* \"#utility.yul\":1602:1609   */\n      dup10\n        /* \"#utility.yul\":1593:1599   */\n      dup3\n        /* \"#utility.yul\":1582:1591   */\n      dup11\n        /* \"#utility.yul\":1578:1600   */\n      add\n        /* \"#utility.yul\":1557:1610   */\n      tag_213\n      jump\t// in\n    tag_244:\n        /* \"#utility.yul\":1547:1610   */\n      swap7\n      pop\n        /* \"#utility.yul\":1503:1620   */\n      pop\n        /* \"#utility.yul\":1659:1661   */\n      0x20\n        /* \"#utility.yul\":1685:1738   */\n      tag_245\n        /* \"#utility.yul\":1730:1737   */\n      dup10\n        /* \"#utility.yul\":1721:1727   */\n      dup3\n        /* \"#utility.yul\":1710:1719   */\n      dup11\n        /* \"#utility.yul\":1706:1728   */\n      add\n        /* \"#utility.yul\":1685:1738   */\n      tag_213\n      jump\t// in\n    tag_245:\n        /* \"#utility.yul\":1675:1738   */\n      swap6\n      pop\n        /* \"#utility.yul\":1630:1748   */\n      pop\n        /* \"#utility.yul\":1787:1789   */\n      0x40\n        /* \"#utility.yul\":1813:1866   */\n      tag_246\n        /* \"#utility.yul\":1858:1865   */\n      dup10\n        /* \"#utility.yul\":1849:1855   */\n      dup3\n        /* \"#utility.yul\":1838:1847   */\n      dup11\n        /* \"#utility.yul\":1834:1856   */\n      add\n        /* \"#utility.yul\":1813:1866   */\n      tag_213\n      jump\t// in\n    tag_246:\n        /* \"#utility.yul\":1803:1866   */\n      swap5\n      pop\n        /* \"#utility.yul\":1758:1876   */\n      pop\n        /* \"#utility.yul\":1915:1917   */\n      0x60\n        /* \"#utility.yul\":1941:1994   */\n      tag_247\n        /* \"#utility.yul\":1986:1993   */\n      dup10\n        /* \"#utility.yul\":1977:1983   */\n      dup3\n        /* \"#utility.yul\":1966:1975   */\n      dup11\n        /* \"#utility.yul\":1962:1984   */\n      add\n        /* \"#utility.yul\":1941:1994   */\n      tag_229\n      jump\t// in\n    tag_247:\n        /* \"#utility.yul\":1931:1994   */\n      swap4\n      pop\n        /* \"#utility.yul\":1886:2004   */\n      pop\n        /* \"#utility.yul\":2043:2046   */\n      0x80\n        /* \"#utility.yul\":2070:2123   */\n      tag_248\n        /* \"#utility.yul\":2115:2122   */\n      dup10\n        /* \"#utility.yul\":2106:2112   */\n      dup3\n        /* \"#utility.yul\":2095:2104   */\n      dup11\n        /* \"#utility.yul\":2091:2113   */\n      add\n        /* \"#utility.yul\":2070:2123   */\n      tag_229\n      jump\t// in\n    tag_248:\n        /* \"#utility.yul\":2060:2123   */\n      swap3\n      pop\n        /* \"#utility.yul\":2014:2133   */\n      pop\n        /* \"#utility.yul\":2172:2175   */\n      0xa0\n        /* \"#utility.yul\":2199:2252   */\n      tag_249\n        /* \"#utility.yul\":2244:2251   */\n      dup10\n        /* \"#utility.yul\":2235:2241   */\n      dup3\n        /* \"#utility.yul\":2224:2233   */\n      dup11\n        /* \"#utility.yul\":2220:2242   */\n      add\n        /* \"#utility.yul\":2199:2252   */\n      tag_213\n      jump\t// in\n    tag_249:\n        /* \"#utility.yul\":2189:2252   */\n      swap2\n      pop\n        /* \"#utility.yul\":2143:2262   */\n      pop\n        /* \"#utility.yul\":1212:2269   */\n      swap3\n      swap6\n      pop\n      swap3\n      swap6\n      pop\n      swap3\n      swap6\n      jump\t// out\n        /* \"#utility.yul\":2275:2749   */\n    tag_46:\n        /* \"#utility.yul\":2343:2349   */\n      0x00\n        /* \"#utility.yul\":2351:2357   */\n      dup1\n        /* \"#utility.yul\":2400:2402   */\n      0x40\n        /* \"#utility.yul\":2388:2397   */\n      dup4\n        /* \"#utility.yul\":2379:2386   */\n      dup6\n        /* \"#utility.yul\":2375:2398   */\n      sub\n        /* \"#utility.yul\":2371:2403   */\n      slt\n        /* \"#utility.yul\":2368:2487   */\n      iszero\n      tag_251\n      jumpi\n        /* \"#utility.yul\":2406:2485   */\n      tag_252\n      tag_239\n      jump\t// in\n    tag_252:\n        /* \"#utility.yul\":2368:2487   */\n    tag_251:\n        /* \"#utility.yul\":2526:2527   */\n      0x00\n        /* \"#utility.yul\":2551:2604   */\n      tag_253\n        /* \"#utility.yul\":2596:2603   */\n      dup6\n        /* \"#utility.yul\":2587:2593   */\n      dup3\n        /* \"#utility.yul\":2576:2585   */\n      dup7\n        /* \"#utility.yul\":2572:2594   */\n      add\n        /* \"#utility.yul\":2551:2604   */\n      tag_213\n      jump\t// in\n    tag_253:\n        /* \"#utility.yul\":2541:2604   */\n      swap3\n      pop\n        /* \"#utility.yul\":2497:2614   */\n      pop\n        /* \"#utility.yul\":2653:2655   */\n      0x20\n        /* \"#utility.yul\":2679:2732   */\n      tag_254\n        /* \"#utility.yul\":2724:2731   */\n      dup6\n        /* \"#utility.yul\":2715:2721   */\n      dup3\n        /* \"#utility.yul\":2704:2713   */\n      dup7\n        /* \"#utility.yul\":2700:2722   */\n      add\n        /* \"#utility.yul\":2679:2732   */\n      tag_229\n      jump\t// in\n    tag_254:\n        /* \"#utility.yul\":2669:2732   */\n      swap2\n      pop\n        /* \"#utility.yul\":2624:2742   */\n      pop\n        /* \"#utility.yul\":2275:2749   */\n      swap3\n      pop\n      swap3\n      swap1\n      pop\n      jump\t// out\n        /* \"#utility.yul\":2755:3100   */\n    tag_90:\n        /* \"#utility.yul\":2822:2828   */\n      0x00\n        /* \"#utility.yul\":2871:2873   */\n      0x20\n        /* \"#utility.yul\":2859:2868   */\n      dup3\n        /* \"#utility.yul\":2850:2857   */\n      dup5\n        /* \"#utility.yul\":2846:2869   */\n      sub\n        /* \"#utility.yul\":2842:2874   */\n      slt\n        /* \"#utility.yul\":2839:2958   */\n      iszero\n      tag_256\n      jumpi\n        /* \"#utility.yul\":2877:2956   */\n      tag_257\n      tag_239\n      jump\t// in\n    tag_257:\n        /* \"#utility.yul\":2839:2958   */\n    tag_256:\n        /* \"#utility.yul\":2997:2998   */\n      0x00\n        /* \"#utility.yul\":3022:3083   */\n      tag_258\n        /* \"#utility.yul\":3075:3082   */\n      dup5\n        /* \"#utility.yul\":3066:3072   */\n      dup3\n        /* \"#utility.yul\":3055:3064   */\n      dup6\n        /* \"#utility.yul\":3051:3073   */\n      add\n        /* \"#utility.yul\":3022:3083   */\n      tag_217\n      jump\t// in\n    tag_258:\n        /* \"#utility.yul\":3012:3083   */\n      swap2\n      pop\n        /* \"#utility.yul\":2968:3093   */\n      pop\n        /* \"#utility.yul\":2755:3100   */\n      swap3\n      swap2\n      pop\n      pop\n      jump\t// out\n        /* \"#utility.yul\":3106:3435   */\n    tag_23:\n        /* \"#utility.yul\":3165:3171   */\n      0x00\n        /* \"#utility.yul\":3214:3216   */\n      0x20\n        /* \"#utility.yul\":3202:3211   */\n      dup3\n        /* \"#utility.yul\":3193:3200   */\n      dup5\n        /* \"#utility.yul\":3189:3212   */\n      sub\n        /* \"#utility.yul\":3185:3217   */\n      slt\n        /* \"#utility.yul\":3182:3301   */\n      iszero\n      tag_260\n      jumpi\n        /* \"#utility.yul\":3220:3299   */\n      tag_261\n      tag_239\n      jump\t// in\n    tag_261:\n        /* \"#utility.yul\":3182:3301   */\n    tag_260:\n        /* \"#utility.yul\":3340:3341   */\n      0x00\n        /* \"#utility.yul\":3365:3418   */\n      tag_262\n        /* \"#utility.yul\":3410:3417   */\n      dup5\n        /* \"#utility.yul\":3401:3407   */\n      dup3\n        /* \"#utility.yul\":3390:3399   */\n      dup6\n        /* \"#utility.yul\":3386:3408   */\n      add\n        /* \"#utility.yul\":3365:3418   */\n      tag_221\n      jump\t// in\n    tag_262:\n        /* \"#utility.yul\":3355:3418   */\n      swap2\n      pop\n        /* \"#utility.yul\":3311:3428   */\n      pop\n        /* \"#utility.yul\":3106:3435   */\n      swap3\n      swap2\n      pop\n      pop\n      jump\t// out\n        /* \"#utility.yul\":3441:3915   */\n    tag_35:\n        /* \"#utility.yul\":3509:3515   */\n      0x00\n        /* \"#utility.yul\":3517:3523   */\n      dup1\n        /* \"#utility.yul\":3566:3568   */\n      0x40\n        /* \"#utility.yul\":3554:3563   */\n      dup4\n        /* \"#utility.yul\":3545:3552   */\n      dup6\n        /* \"#utility.yul\":3541:3564   */\n      sub\n        /* \"#utility.yul\":3537:3569   */\n      slt\n        /* \"#utility.yul\":3534:3653   */\n      iszero\n      tag_264\n      jumpi\n        /* \"#utility.yul\":3572:3651   */\n      tag_265\n      tag_239\n      jump\t// in\n    tag_265:\n        /* \"#utility.yul\":3534:3653   */\n    tag_264:\n        /* \"#utility.yul\":3692:3693   */\n      0x00\n        /* \"#utility.yul\":3717:3770   */\n      tag_266\n        /* \"#utility.yul\":3762:3769   */\n      dup6\n        /* \"#utility.yul\":3753:3759   */\n      dup3\n        /* \"#utility.yul\":3742:3751   */\n      dup7\n        /* \"#utility.yul\":3738:3760   */\n      add\n        /* \"#utility.yul\":3717:3770   */\n      tag_221\n      jump\t// in\n    tag_266:\n        /* \"#utility.yul\":3707:3770   */\n      swap3\n      pop\n        /* \"#utility.yul\":3663:3780   */\n      pop\n        /* \"#utility.yul\":3819:3821   */\n      0x20\n        /* \"#utility.yul\":3845:3898   */\n      tag_267\n        /* \"#utility.yul\":3890:3897   */\n      dup6\n        /* \"#utility.yul\":3881:3887   */\n      dup3\n        /* \"#utility.yul\":3870:3879   */\n      dup7\n        /* \"#utility.yul\":3866:3888   */\n      add\n        /* \"#utility.yul\":3845:3898   */\n      tag_213\n      jump\t// in\n    tag_267:\n        /* \"#utility.yul\":3835:3898   */\n      swap2\n      pop\n        /* \"#utility.yul\":3790:3908   */\n      pop\n        /* \"#utility.yul\":3441:3915   */\n      swap3\n      pop\n      swap3\n      swap1\n      pop\n      jump\t// out\n        /* \"#utility.yul\":3921:4248   */\n    tag_17:\n        /* \"#utility.yul\":3979:3985   */\n      0x00\n        /* \"#utility.yul\":4028:4030   */\n      0x20\n        /* \"#utility.yul\":4016:4025   */\n      dup3\n        /* \"#utility.yul\":4007:4014   */\n      dup5\n        /* \"#utility.yul\":4003:4026   */\n      sub\n        /* \"#utility.yul\":3999:4031   */\n      slt\n        /* \"#utility.yul\":3996:4115   */\n      iszero\n      tag_269\n      jumpi\n        /* \"#utility.yul\":4034:4113   */\n      tag_270\n      tag_239\n      jump\t// in\n    tag_270:\n        /* \"#utility.yul\":3996:4115   */\n    tag_269:\n        /* \"#utility.yul\":4154:4155   */\n      0x00\n        /* \"#utility.yul\":4179:4231   */\n      tag_271\n        /* \"#utility.yul\":4223:4230   */\n      dup5\n        /* \"#utility.yul\":4214:4220   */\n      dup3\n        /* \"#utility.yul\":4203:4212   */\n      dup6\n        /* \"#utility.yul\":4199:4221   */\n      add\n        /* \"#utility.yul\":4179:4231   */\n      tag_225\n      jump\t// in\n    tag_271:\n        /* \"#utility.yul\":4169:4231   */\n      swap2\n      pop\n        /* \"#utility.yul\":4125:4241   */\n      pop\n        /* \"#utility.yul\":3921:4248   */\n      swap3\n      swap2\n      pop\n      pop\n      jump\t// out\n        /* \"#utility.yul\":4254:4605   */\n    tag_104:\n        /* \"#utility.yul\":4324:4330   */\n      0x00\n        /* \"#utility.yul\":4373:4375   */\n      0x20\n        /* \"#utility.yul\":4361:4370   */\n      dup3\n        /* \"#utility.yul\":4352:4359   */\n      dup5\n        /* \"#utility.yul\":4348:4371   */\n      sub\n        /* \"#utility.yul\":4344:4376   */\n      slt\n        /* \"#utility.yul\":4341:4460   */\n      iszero\n      tag_273\n      jumpi\n        /* \"#utility.yul\":4379:4458   */\n      tag_274\n      tag_239\n      jump\t// in\n    tag_274:\n        /* \"#utility.yul\":4341:4460   */\n    tag_273:\n        /* \"#utility.yul\":4499:4500   */\n      0x00\n        /* \"#utility.yul\":4524:4588   */\n      tag_275\n        /* \"#utility.yul\":4580:4587   */\n      dup5\n        /* \"#utility.yul\":4571:4577   */\n      dup3\n        /* \"#utility.yul\":4560:4569   */\n      dup6\n        /* \"#utility.yul\":4556:4578   */\n      add\n        /* \"#utility.yul\":4524:4588   */\n      tag_233\n      jump\t// in\n    tag_275:\n        /* \"#utility.yul\":4514:4588   */\n      swap2\n      pop\n        /* \"#utility.yul\":4470:4598   */\n      pop\n        /* \"#utility.yul\":4254:4605   */\n      swap3\n      swap2\n      pop\n      pop\n      jump\t// out\n        /* \"#utility.yul\":4611:4729   */\n    tag_276:\n        /* \"#utility.yul\":4698:4722   */\n      tag_278\n        /* \"#utility.yul\":4716:4721   */\n      dup2\n        /* \"#utility.yul\":4698:4722   */\n      tag_279\n      jump\t// in\n    tag_278:\n        /* \"#utility.yul\":4693:4696   */\n      dup3\n        /* \"#utility.yul\":4686:4723   */\n      mstore\n        /* \"#utility.yul\":4611:4729   */\n      pop\n      pop\n      jump\t// out\n        /* \"#utility.yul\":4735:4844   */\n    tag_280:\n        /* \"#utility.yul\":4816:4837   */\n      tag_282\n        /* \"#utility.yul\":4831:4836   */\n      dup2\n        /* \"#utility.yul\":4816:4837   */\n      tag_283\n      jump\t// in\n    tag_282:\n        /* \"#utility.yul\":4811:4814   */\n      dup3\n        /* \"#utility.yul\":4804:4838   */\n      mstore\n        /* \"#utility.yul\":4735:4844   */\n      pop\n      pop\n      jump\t// out\n        /* \"#utility.yul\":4850:4968   */\n    tag_284:\n        /* \"#utility.yul\":4937:4961   */\n      tag_286\n        /* \"#utility.yul\":4955:4960   */\n      dup2\n        /* \"#utility.yul\":4937:4961   */\n      tag_287\n      jump\t// in\n    tag_286:\n        /* \"#utility.yul\":4932:4935   */\n      dup3\n        /* \"#utility.yul\":4925:4962   */\n      mstore\n        /* \"#utility.yul\":4850:4968   */\n      pop\n      pop\n      jump\t// out\n        /* \"#utility.yul\":4974:5121   */\n    tag_288:\n        /* \"#utility.yul\":5069:5114   */\n      tag_290\n        /* \"#utility.yul\":5108:5113   */\n      dup2\n        /* \"#utility.yul\":5069:5114   */\n      tag_291\n      jump\t// in\n    tag_290:\n        /* \"#utility.yul\":5064:5067   */\n      dup3\n        /* \"#utility.yul\":5057:5115   */\n      mstore\n        /* \"#utility.yul\":4974:5121   */\n      pop\n      pop\n      jump\t// out\n        /* \"#utility.yul\":5127:5491   */\n    tag_292:\n        /* \"#utility.yul\":5215:5218   */\n      0x00\n        /* \"#utility.yul\":5243:5282   */\n      tag_294\n        /* \"#utility.yul\":5276:5281   */\n      dup3\n        /* \"#utility.yul\":5243:5282   */\n      tag_295\n      jump\t// in\n    tag_294:\n        /* \"#utility.yul\":5298:5369   */\n      tag_296\n        /* \"#utility.yul\":5362:5368   */\n      dup2\n        /* \"#utility.yul\":5357:5360   */\n      dup6\n        /* \"#utility.yul\":5298:5369   */\n      tag_297\n      jump\t// in\n    tag_296:\n        /* \"#utility.yul\":5291:5369   */\n      swap4\n      pop\n        /* \"#utility.yul\":5378:5430   */\n      tag_298\n        /* \"#utility.yul\":5423:5429   */\n      dup2\n        /* \"#utility.yul\":5418:5421   */\n      dup6\n        /* \"#utility.yul\":5411:5415   */\n      0x20\n        /* \"#utility.yul\":5404:5409   */\n      dup7\n        /* \"#utility.yul\":5400:5416   */\n      add\n        /* \"#utility.yul\":5378:5430   */\n      tag_299\n      jump\t// in\n    tag_298:\n        /* \"#utility.yul\":5455:5484   */\n      tag_300\n        /* \"#utility.yul\":5477:5483   */\n      dup2\n        /* \"#utility.yul\":5455:5484   */\n      tag_301\n      jump\t// in\n    tag_300:\n        /* \"#utility.yul\":5450:5453   */\n      dup5\n        /* \"#utility.yul\":5446:5485   */\n      add\n        /* \"#utility.yul\":5439:5485   */\n      swap2\n      pop\n        /* \"#utility.yul\":5219:5491   */\n      pop\n        /* \"#utility.yul\":5127:5491   */\n      swap3\n      swap2\n      pop\n      pop\n      jump\t// out\n        /* \"#utility.yul\":5497:5874   */\n    tag_302:\n        /* \"#utility.yul\":5603:5606   */\n      0x00\n        /* \"#utility.yul\":5631:5670   */\n      tag_304\n        /* \"#utility.yul\":5664:5669   */\n      dup3\n        /* \"#utility.yul\":5631:5670   */\n      tag_295\n      jump\t// in\n    tag_304:\n        /* \"#utility.yul\":5686:5775   */\n      tag_305\n        /* \"#utility.yul\":5768:5774   */\n      dup2\n        /* \"#utility.yul\":5763:5766   */\n      dup6\n        /* \"#utility.yul\":5686:5775   */\n      tag_306\n      jump\t// in\n    tag_305:\n        /* \"#utility.yul\":5679:5775   */\n      swap4\n      pop\n        /* \"#utility.yul\":5784:5836   */\n      tag_307\n        /* \"#utility.yul\":5829:5835   */\n      dup2\n        /* \"#utility.yul\":5824:5827   */\n      dup6\n        /* \"#utility.yul\":5817:5821   */\n      0x20\n        /* \"#utility.yul\":5810:5815   */\n      dup7\n        /* \"#utility.yul\":5806:5822   */\n      add\n        /* \"#utility.yul\":5784:5836   */\n      tag_299\n      jump\t// in\n    tag_307:\n        /* \"#utility.yul\":5861:5867   */\n      dup1\n        /* \"#utility.yul\":5856:5859   */\n      dup5\n        /* \"#utility.yul\":5852:5868   */\n      add\n        /* \"#utility.yul\":5845:5868   */\n      swap2\n      pop\n        /* \"#utility.yul\":5607:5874   */\n      pop\n        /* \"#utility.yul\":5497:5874   */\n      swap3\n      swap2\n      pop\n      pop\n      jump\t// out\n        /* \"#utility.yul\":5880:6246   */\n    tag_308:\n        /* \"#utility.yul\":6022:6025   */\n      0x00\n        /* \"#utility.yul\":6043:6110   */\n      tag_310\n        /* \"#utility.yul\":6107:6109   */\n      0x20\n        /* \"#utility.yul\":6102:6105   */\n      dup4\n        /* \"#utility.yul\":6043:6110   */\n      tag_297\n      jump\t// in\n    tag_310:\n        /* \"#utility.yul\":6036:6110   */\n      swap2\n      pop\n        /* \"#utility.yul\":6119:6212   */\n      tag_311\n        /* \"#utility.yul\":6208:6211   */\n      dup3\n        /* \"#utility.yul\":6119:6212   */\n      tag_312\n      jump\t// in\n    tag_311:\n        /* \"#utility.yul\":6237:6239   */\n      0x20\n        /* \"#utility.yul\":6232:6235   */\n      dup3\n        /* \"#utility.yul\":6228:6240   */\n      add\n        /* \"#utility.yul\":6221:6240   */\n      swap1\n      pop\n        /* \"#utility.yul\":5880:6246   */\n      swap2\n      swap1\n      pop\n      jump\t// out\n        /* \"#utility.yul\":6252:6618   */\n    tag_313:\n        /* \"#utility.yul\":6394:6397   */\n      0x00\n        /* \"#utility.yul\":6415:6482   */\n      tag_315\n        /* \"#utility.yul\":6479:6481   */\n      0x4e\n        /* \"#utility.yul\":6474:6477   */\n      dup4\n        /* \"#utility.yul\":6415:6482   */\n      tag_297\n      jump\t// in\n    tag_315:\n        /* \"#utility.yul\":6408:6482   */\n      swap2\n      pop\n        /* \"#utility.yul\":6491:6584   */\n      tag_316\n        /* \"#utility.yul\":6580:6583   */\n      dup3\n        /* \"#utility.yul\":6491:6584   */\n      tag_317\n      jump\t// in\n    tag_316:\n        /* \"#utility.yul\":6609:6611   */\n      0x60\n        /* \"#utility.yul\":6604:6607   */\n      dup3\n        /* \"#utility.yul\":6600:6612   */\n      add\n        /* \"#utility.yul\":6593:6612   */\n      swap1\n      pop\n        /* \"#utility.yul\":6252:6618   */\n      swap2\n      swap1\n      pop\n      jump\t// out\n        /* \"#utility.yul\":6624:6990   */\n    tag_318:\n        /* \"#utility.yul\":6766:6769   */\n      0x00\n        /* \"#utility.yul\":6787:6854   */\n      tag_320\n        /* \"#utility.yul\":6851:6853   */\n      0x1b\n        /* \"#utility.yul\":6846:6849   */\n      dup4\n        /* \"#utility.yul\":6787:6854   */\n      tag_297\n      jump\t// in\n    tag_320:\n        /* \"#utility.yul\":6780:6854   */\n      swap2\n      pop\n        /* \"#utility.yul\":6863:6956   */\n      tag_321\n        /* \"#utility.yul\":6952:6955   */\n      dup3\n        /* \"#utility.yul\":6863:6956   */\n      tag_322\n      jump\t// in\n    tag_321:\n        /* \"#utility.yul\":6981:6983   */\n      0x20\n        /* \"#utility.yul\":6976:6979   */\n      dup3\n        /* \"#utility.yul\":6972:6984   */\n      add\n        /* \"#utility.yul\":6965:6984   */\n      swap1\n      pop\n        /* \"#utility.yul\":6624:6990   */\n      swap2\n      swap1\n      pop\n      jump\t// out\n        /* \"#utility.yul\":6996:7362   */\n    tag_323:\n        /* \"#utility.yul\":7138:7141   */\n      0x00\n        /* \"#utility.yul\":7159:7226   */\n      tag_325\n        /* \"#utility.yul\":7223:7225   */\n      0x17\n        /* \"#utility.yul\":7218:7221   */\n      dup4\n        /* \"#utility.yul\":7159:7226   */\n      tag_297\n      jump\t// in\n    tag_325:\n        /* \"#utility.yul\":7152:7226   */\n      swap2\n      pop\n        /* \"#utility.yul\":7235:7328   */\n      tag_326\n        /* \"#utility.yul\":7324:7327   */\n      dup3\n        /* \"#utility.yul\":7235:7328   */\n      tag_327\n      jump\t// in\n    tag_326:\n        /* \"#utility.yul\":7353:7355   */\n      0x20\n        /* \"#utility.yul\":7348:7351   */\n      dup3\n        /* \"#utility.yul\":7344:7356   */\n      add\n        /* \"#utility.yul\":7337:7356   */\n      swap1\n      pop\n        /* \"#utility.yul\":6996:7362   */\n      swap2\n      swap1\n      pop\n      jump\t// out\n        /* \"#utility.yul\":7368:7734   */\n    tag_328:\n        /* \"#utility.yul\":7510:7513   */\n      0x00\n        /* \"#utility.yul\":7531:7598   */\n      tag_330\n        /* \"#utility.yul\":7595:7597   */\n      0x10\n        /* \"#utility.yul\":7590:7593   */\n      dup4\n        /* \"#utility.yul\":7531:7598   */\n      tag_297\n      jump\t// in\n    tag_330:\n        /* \"#utility.yul\":7524:7598   */\n      swap2\n      pop\n        /* \"#utility.yul\":7607:7700   */\n      tag_331\n        /* \"#utility.yul\":7696:7699   */\n      dup3\n        /* \"#utility.yul\":7607:7700   */\n      tag_332\n      jump\t// in\n    tag_331:\n        /* \"#utility.yul\":7725:7727   */\n      0x20\n        /* \"#utility.yul\":7720:7723   */\n      dup3\n        /* \"#utility.yul\":7716:7728   */\n      add\n        /* \"#utility.yul\":7709:7728   */\n      swap1\n      pop\n        /* \"#utility.yul\":7368:7734   */\n      swap2\n      swap1\n      pop\n      jump\t// out\n        /* \"#utility.yul\":7740:8142   */\n    tag_333:\n        /* \"#utility.yul\":7900:7903   */\n      0x00\n        /* \"#utility.yul\":7921:8006   */\n      tag_335\n        /* \"#utility.yul\":8003:8005   */\n      0x17\n        /* \"#utility.yul\":7998:8001   */\n      dup4\n        /* \"#utility.yul\":7921:8006   */\n      tag_306\n      jump\t// in\n    tag_335:\n        /* \"#utility.yul\":7914:8006   */\n      swap2\n      pop\n        /* \"#utility.yul\":8015:8108   */\n      tag_336\n        /* \"#utility.yul\":8104:8107   */\n      dup3\n        /* \"#utility.yul\":8015:8108   */\n      tag_337\n      jump\t// in\n    tag_336:\n        /* \"#utility.yul\":8133:8135   */\n      0x17\n        /* \"#utility.yul\":8128:8131   */\n      dup3\n        /* \"#utility.yul\":8124:8136   */\n      add\n        /* \"#utility.yul\":8117:8136   */\n      swap1\n      pop\n        /* \"#utility.yul\":7740:8142   */\n      swap2\n      swap1\n      pop\n      jump\t// out\n        /* \"#utility.yul\":8148:8550   */\n    tag_338:\n        /* \"#utility.yul\":8308:8311   */\n      0x00\n        /* \"#utility.yul\":8329:8414   */\n      tag_340\n        /* \"#utility.yul\":8411:8413   */\n      0x11\n        /* \"#utility.yul\":8406:8409   */\n      dup4\n        /* \"#utility.yul\":8329:8414   */\n      tag_306\n      jump\t// in\n    tag_340:\n        /* \"#utility.yul\":8322:8414   */\n      swap2\n      pop\n        /* \"#utility.yul\":8423:8516   */\n      tag_341\n        /* \"#utility.yul\":8512:8515   */\n      dup3\n        /* \"#utility.yul\":8423:8516   */\n      tag_342\n      jump\t// in\n    tag_341:\n        /* \"#utility.yul\":8541:8543   */\n      0x11\n        /* \"#utility.yul\":8536:8539   */\n      dup3\n        /* \"#utility.yul\":8532:8544   */\n      add\n        /* \"#utility.yul\":8525:8544   */\n      swap1\n      pop\n        /* \"#utility.yul\":8148:8550   */\n      swap2\n      swap1\n      pop\n      jump\t// out\n        /* \"#utility.yul\":8556:8922   */\n    tag_343:\n        /* \"#utility.yul\":8698:8701   */\n      0x00\n        /* \"#utility.yul\":8719:8786   */\n      tag_345\n        /* \"#utility.yul\":8783:8785   */\n      0x2f\n        /* \"#utility.yul\":8778:8781   */\n      dup4\n        /* \"#utility.yul\":8719:8786   */\n      tag_297\n      jump\t// in\n    tag_345:\n        /* \"#utility.yul\":8712:8786   */\n      swap2\n      pop\n        /* \"#utility.yul\":8795:8888   */\n      tag_346\n        /* \"#utility.yul\":8884:8887   */\n      dup3\n        /* \"#utility.yul\":8795:8888   */\n      tag_347\n      jump\t// in\n    tag_346:\n        /* \"#utility.yul\":8913:8915   */\n      0x40\n        /* \"#utility.yul\":8908:8911   */\n      dup3\n        /* \"#utility.yul\":8904:8916   */\n      add\n        /* \"#utility.yul\":8897:8916   */\n      swap1\n      pop\n        /* \"#utility.yul\":8556:8922   */\n      swap2\n      swap1\n      pop\n      jump\t// out\n        /* \"#utility.yul\":8928:9046   */\n    tag_348:\n        /* \"#utility.yul\":9015:9039   */\n      tag_350\n        /* \"#utility.yul\":9033:9038   */\n      dup2\n        /* \"#utility.yul\":9015:9039   */\n      tag_351\n      jump\t// in\n    tag_350:\n        /* \"#utility.yul\":9010:9013   */\n      dup3\n        /* \"#utility.yul\":9003:9040   */\n      mstore\n        /* \"#utility.yul\":8928:9046   */\n      pop\n      pop\n      jump\t// out\n        /* \"#utility.yul\":9052:10019   */\n    tag_182:\n        /* \"#utility.yul\":9434:9437   */\n      0x00\n        /* \"#utility.yul\":9456:9604   */\n      tag_353\n        /* \"#utility.yul\":9600:9603   */\n      dup3\n        /* \"#utility.yul\":9456:9604   */\n      tag_333\n      jump\t// in\n    tag_353:\n        /* \"#utility.yul\":9449:9604   */\n      swap2\n      pop\n        /* \"#utility.yul\":9621:9716   */\n      tag_354\n        /* \"#utility.yul\":9712:9715   */\n      dup3\n        /* \"#utility.yul\":9703:9709   */\n      dup6\n        /* \"#utility.yul\":9621:9716   */\n      tag_302\n      jump\t// in\n    tag_354:\n        /* \"#utility.yul\":9614:9716   */\n      swap2\n      pop\n        /* \"#utility.yul\":9733:9881   */\n      tag_355\n        /* \"#utility.yul\":9877:9880   */\n      dup3\n        /* \"#utility.yul\":9733:9881   */\n      tag_338\n      jump\t// in\n    tag_355:\n        /* \"#utility.yul\":9726:9881   */\n      swap2\n      pop\n        /* \"#utility.yul\":9898:9993   */\n      tag_356\n        /* \"#utility.yul\":9989:9992   */\n      dup3\n        /* \"#utility.yul\":9980:9986   */\n      dup5\n        /* \"#utility.yul\":9898:9993   */\n      tag_302\n      jump\t// in\n    tag_356:\n        /* \"#utility.yul\":9891:9993   */\n      swap2\n      pop\n        /* \"#utility.yul\":10010:10013   */\n      dup2\n        /* \"#utility.yul\":10003:10013   */\n      swap1\n      pop\n        /* \"#utility.yul\":9052:10019   */\n      swap4\n      swap3\n      pop\n      pop\n      pop\n      jump\t// out\n        /* \"#utility.yul\":10025:10467   */\n    tag_121:\n        /* \"#utility.yul\":10174:10178   */\n      0x00\n        /* \"#utility.yul\":10212:10214   */\n      0x60\n        /* \"#utility.yul\":10201:10210   */\n      dup3\n        /* \"#utility.yul\":10197:10215   */\n      add\n        /* \"#utility.yul\":10189:10215   */\n      swap1\n      pop\n        /* \"#utility.yul\":10225:10296   */\n      tag_358\n        /* \"#utility.yul\":10293:10294   */\n      0x00\n        /* \"#utility.yul\":10282:10291   */\n      dup4\n        /* \"#utility.yul\":10278:10295   */\n      add\n        /* \"#utility.yul\":10269:10275   */\n      dup7\n        /* \"#utility.yul\":10225:10296   */\n      tag_276\n      jump\t// in\n    tag_358:\n        /* \"#utility.yul\":10306:10378   */\n      tag_359\n        /* \"#utility.yul\":10374:10376   */\n      0x20\n        /* \"#utility.yul\":10363:10372   */\n      dup4\n        /* \"#utility.yul\":10359:10377   */\n      add\n        /* \"#utility.yul\":10350:10356   */\n      dup6\n        /* \"#utility.yul\":10306:10378   */\n      tag_276\n      jump\t// in\n    tag_359:\n        /* \"#utility.yul\":10388:10460   */\n      tag_360\n        /* \"#utility.yul\":10456:10458   */\n      0x40\n        /* \"#utility.yul\":10445:10454   */\n      dup4\n        /* \"#utility.yul\":10441:10459   */\n      add\n        /* \"#utility.yul\":10432:10438   */\n      dup5\n        /* \"#utility.yul\":10388:10460   */\n      tag_348\n      jump\t// in\n    tag_360:\n        /* \"#utility.yul\":10025:10467   */\n      swap5\n      swap4\n      pop\n      pop\n      pop\n      pop\n      jump\t// out\n        /* \"#utility.yul\":10473:11137   */\n    tag_32:\n        /* \"#utility.yul\":10678:10682   */\n      0x00\n        /* \"#utility.yul\":10716:10719   */\n      0xa0\n        /* \"#utility.yul\":10705:10714   */\n      dup3\n        /* \"#utility.yul\":10701:10720   */\n      add\n        /* \"#utility.yul\":10693:10720   */\n      swap1\n      pop\n        /* \"#utility.yul\":10730:10801   */\n      tag_362\n        /* \"#utility.yul\":10798:10799   */\n      0x00\n        /* \"#utility.yul\":10787:10796   */\n      dup4\n        /* \"#utility.yul\":10783:10800   */\n      add\n        /* \"#utility.yul\":10774:10780   */\n      dup9\n        /* \"#utility.yul\":10730:10801   */\n      tag_276\n      jump\t// in\n    tag_362:\n        /* \"#utility.yul\":10811:10883   */\n      tag_363\n        /* \"#utility.yul\":10879:10881   */\n      0x20\n        /* \"#utility.yul\":10868:10877   */\n      dup4\n        /* \"#utility.yul\":10864:10882   */\n      add\n        /* \"#utility.yul\":10855:10861   */\n      dup8\n        /* \"#utility.yul\":10811:10883   */\n      tag_276\n      jump\t// in\n    tag_363:\n        /* \"#utility.yul\":10893:10965   */\n      tag_364\n        /* \"#utility.yul\":10961:10963   */\n      0x40\n        /* \"#utility.yul\":10950:10959   */\n      dup4\n        /* \"#utility.yul\":10946:10964   */\n      add\n        /* \"#utility.yul\":10937:10943   */\n      dup7\n        /* \"#utility.yul\":10893:10965   */\n      tag_348\n      jump\t// in\n    tag_364:\n        /* \"#utility.yul\":10975:11047   */\n      tag_365\n        /* \"#utility.yul\":11043:11045   */\n      0x60\n        /* \"#utility.yul\":11032:11041   */\n      dup4\n        /* \"#utility.yul\":11028:11046   */\n      add\n        /* \"#utility.yul\":11019:11025   */\n      dup6\n        /* \"#utility.yul\":10975:11047   */\n      tag_348\n      jump\t// in\n    tag_365:\n        /* \"#utility.yul\":11057:11130   */\n      tag_366\n        /* \"#utility.yul\":11125:11128   */\n      0x80\n        /* \"#utility.yul\":11114:11123   */\n      dup4\n        /* \"#utility.yul\":11110:11129   */\n      add\n        /* \"#utility.yul\":11101:11107   */\n      dup5\n        /* \"#utility.yul\":11057:11130   */\n      tag_276\n      jump\t// in\n    tag_366:\n        /* \"#utility.yul\":10473:11137   */\n      swap7\n      swap6\n      pop\n      pop\n      pop\n      pop\n      pop\n      pop\n      jump\t// out\n        /* \"#utility.yul\":11143:11491   */\n    tag_99:\n        /* \"#utility.yul\":11272:11276   */\n      0x00\n        /* \"#utility.yul\":11310:11312   */\n      0x40\n        /* \"#utility.yul\":11299:11308   */\n      dup3\n        /* \"#utility.yul\":11295:11313   */\n      add\n        /* \"#utility.yul\":11287:11313   */\n      swap1\n      pop\n        /* \"#utility.yul\":11323:11394   */\n      tag_368\n        /* \"#utility.yul\":11391:11392   */\n      0x00\n        /* \"#utility.yul\":11380:11389   */\n      dup4\n        /* \"#utility.yul\":11376:11393   */\n      add\n        /* \"#utility.yul\":11367:11373   */\n      dup6\n        /* \"#utility.yul\":11323:11394   */\n      tag_276\n      jump\t// in\n    tag_368:\n        /* \"#utility.yul\":11404:11484   */\n      tag_369\n        /* \"#utility.yul\":11480:11482   */\n      0x20\n        /* \"#utility.yul\":11469:11478   */\n      dup4\n        /* \"#utility.yul\":11465:11483   */\n      add\n        /* \"#utility.yul\":11456:11462   */\n      dup5\n        /* \"#utility.yul\":11404:11484   */\n      tag_288\n      jump\t// in\n    tag_369:\n        /* \"#utility.yul\":11143:11491   */\n      swap4\n      swap3\n      pop\n      pop\n      pop\n      jump\t// out\n        /* \"#utility.yul\":11497:11829   */\n    tag_114:\n        /* \"#utility.yul\":11618:11622   */\n      0x00\n        /* \"#utility.yul\":11656:11658   */\n      0x40\n        /* \"#utility.yul\":11645:11654   */\n      dup3\n        /* \"#utility.yul\":11641:11659   */\n      add\n        /* \"#utility.yul\":11633:11659   */\n      swap1\n      pop\n        /* \"#utility.yul\":11669:11740   */\n      tag_371\n        /* \"#utility.yul\":11737:11738   */\n      0x00\n        /* \"#utility.yul\":11726:11735   */\n      dup4\n        /* \"#utility.yul\":11722:11739   */\n      add\n        /* \"#utility.yul\":11713:11719   */\n      dup6\n        /* \"#utility.yul\":11669:11740   */\n      tag_276\n      jump\t// in\n    tag_371:\n        /* \"#utility.yul\":11750:11822   */\n      tag_372\n        /* \"#utility.yul\":11818:11820   */\n      0x20\n        /* \"#utility.yul\":11807:11816   */\n      dup4\n        /* \"#utility.yul\":11803:11821   */\n      add\n        /* \"#utility.yul\":11794:11800   */\n      dup5\n        /* \"#utility.yul\":11750:11822   */\n      tag_348\n      jump\t// in\n    tag_372:\n        /* \"#utility.yul\":11497:11829   */\n      swap4\n      swap3\n      pop\n      pop\n      pop\n      jump\t// out\n        /* \"#utility.yul\":11835:12045   */\n    tag_20:\n        /* \"#utility.yul\":11922:11926   */\n      0x00\n        /* \"#utility.yul\":11960:11962   */\n      0x20\n        /* \"#utility.yul\":11949:11958   */\n      dup3\n        /* \"#utility.yul\":11945:11963   */\n      add\n        /* \"#utility.yul\":11937:11963   */\n      swap1\n      pop\n        /* \"#utility.yul\":11973:12038   */\n      tag_374\n        /* \"#utility.yul\":12035:12036   */\n      0x00\n        /* \"#utility.yul\":12024:12033   */\n      dup4\n        /* \"#utility.yul\":12020:12037   */\n      add\n        /* \"#utility.yul\":12011:12017   */\n      dup5\n        /* \"#utility.yul\":11973:12038   */\n      tag_280\n      jump\t// in\n    tag_374:\n        /* \"#utility.yul\":11835:12045   */\n      swap3\n      swap2\n      pop\n      pop\n      jump\t// out\n        /* \"#utility.yul\":12051:12273   */\n    tag_26:\n        /* \"#utility.yul\":12144:12148   */\n      0x00\n        /* \"#utility.yul\":12182:12184   */\n      0x20\n        /* \"#utility.yul\":12171:12180   */\n      dup3\n        /* \"#utility.yul\":12167:12185   */\n      add\n        /* \"#utility.yul\":12159:12185   */\n      swap1\n      pop\n        /* \"#utility.yul\":12195:12266   */\n      tag_376\n        /* \"#utility.yul\":12263:12264   */\n      0x00\n        /* \"#utility.yul\":12252:12261   */\n      dup4\n        /* \"#utility.yul\":12248:12265   */\n      add\n        /* \"#utility.yul\":12239:12245   */\n      dup5\n        /* \"#utility.yul\":12195:12266   */\n      tag_284\n      jump\t// in\n    tag_376:\n        /* \"#utility.yul\":12051:12273   */\n      swap3\n      swap2\n      pop\n      pop\n      jump\t// out\n        /* \"#utility.yul\":12279:12611   */\n    tag_85:\n        /* \"#utility.yul\":12400:12404   */\n      0x00\n        /* \"#utility.yul\":12438:12440   */\n      0x40\n        /* \"#utility.yul\":12427:12436   */\n      dup3\n        /* \"#utility.yul\":12423:12441   */\n      add\n        /* \"#utility.yul\":12415:12441   */\n      swap1\n      pop\n        /* \"#utility.yul\":12451:12522   */\n      tag_378\n        /* \"#utility.yul\":12519:12520   */\n      0x00\n        /* \"#utility.yul\":12508:12517   */\n      dup4\n        /* \"#utility.yul\":12504:12521   */\n      add\n        /* \"#utility.yul\":12495:12501   */\n      dup6\n        /* \"#utility.yul\":12451:12522   */\n      tag_284\n      jump\t// in\n    tag_378:\n        /* \"#utility.yul\":12532:12604   */\n      tag_379\n        /* \"#utility.yul\":12600:12602   */\n      0x20\n        /* \"#utility.yul\":12589:12598   */\n      dup4\n        /* \"#utility.yul\":12585:12603   */\n      add\n        /* \"#utility.yul\":12576:12582   */\n      dup5\n        /* \"#utility.yul\":12532:12604   */\n      tag_276\n      jump\t// in\n    tag_379:\n        /* \"#utility.yul\":12279:12611   */\n      swap4\n      swap3\n      pop\n      pop\n      pop\n      jump\t// out\n        /* \"#utility.yul\":12617:12930   */\n    tag_184:\n        /* \"#utility.yul\":12730:12734   */\n      0x00\n        /* \"#utility.yul\":12768:12770   */\n      0x20\n        /* \"#utility.yul\":12757:12766   */\n      dup3\n        /* \"#utility.yul\":12753:12771   */\n      add\n        /* \"#utility.yul\":12745:12771   */\n      swap1\n      pop\n        /* \"#utility.yul\":12817:12826   */\n      dup2\n        /* \"#utility.yul\":12811:12815   */\n      dup2\n        /* \"#utility.yul\":12807:12827   */\n      sub\n        /* \"#utility.yul\":12803:12804   */\n      0x00\n        /* \"#utility.yul\":12792:12801   */\n      dup4\n        /* \"#utility.yul\":12788:12805   */\n      add\n        /* \"#utility.yul\":12781:12828   */\n      mstore\n        /* \"#utility.yul\":12845:12923   */\n      tag_381\n        /* \"#utility.yul\":12918:12922   */\n      dup2\n        /* \"#utility.yul\":12909:12915   */\n      dup5\n        /* \"#utility.yul\":12845:12923   */\n      tag_292\n      jump\t// in\n    tag_381:\n        /* \"#utility.yul\":12837:12923   */\n      swap1\n      pop\n        /* \"#utility.yul\":12617:12930   */\n      swap3\n      swap2\n      pop\n      pop\n      jump\t// out\n        /* \"#utility.yul\":12936:13355   */\n    tag_211:\n        /* \"#utility.yul\":13102:13106   */\n      0x00\n        /* \"#utility.yul\":13140:13142   */\n      0x20\n        /* \"#utility.yul\":13129:13138   */\n      dup3\n        /* \"#utility.yul\":13125:13143   */\n      add\n        /* \"#utility.yul\":13117:13143   */\n      swap1\n      pop\n        /* \"#utility.yul\":13189:13198   */\n      dup2\n        /* \"#utility.yul\":13183:13187   */\n      dup2\n        /* \"#utility.yul\":13179:13199   */\n      sub\n        /* \"#utility.yul\":13175:13176   */\n      0x00\n        /* \"#utility.yul\":13164:13173   */\n      dup4\n        /* \"#utility.yul\":13160:13177   */\n      add\n        /* \"#utility.yul\":13153:13200   */\n      mstore\n        /* \"#utility.yul\":13217:13348   */\n      tag_383\n        /* \"#utility.yul\":13343:13347   */\n      dup2\n        /* \"#utility.yul\":13217:13348   */\n      tag_308\n      jump\t// in\n    tag_383:\n        /* \"#utility.yul\":13209:13348   */\n      swap1\n      pop\n        /* \"#utility.yul\":12936:13355   */\n      swap2\n      swap1\n      pop\n      jump\t// out\n        /* \"#utility.yul\":13361:13780   */\n    tag_93:\n        /* \"#utility.yul\":13527:13531   */\n      0x00\n        /* \"#utility.yul\":13565:13567   */\n      0x20\n        /* \"#utility.yul\":13554:13563   */\n      dup3\n        /* \"#utility.yul\":13550:13568   */\n      add\n        /* \"#utility.yul\":13542:13568   */\n      swap1\n      pop\n        /* \"#utility.yul\":13614:13623   */\n      dup2\n        /* \"#utility.yul\":13608:13612   */\n      dup2\n        /* \"#utility.yul\":13604:13624   */\n      sub\n        /* \"#utility.yul\":13600:13601   */\n      0x00\n        /* \"#utility.yul\":13589:13598   */\n      dup4\n        /* \"#utility.yul\":13585:13602   */\n      add\n        /* \"#utility.yul\":13578:13625   */\n      mstore\n        /* \"#utility.yul\":13642:13773   */\n      tag_385\n        /* \"#utility.yul\":13768:13772   */\n      dup2\n        /* \"#utility.yul\":13642:13773   */\n      tag_313\n      jump\t// in\n    tag_385:\n        /* \"#utility.yul\":13634:13773   */\n      swap1\n      pop\n        /* \"#utility.yul\":13361:13780   */\n      swap2\n      swap1\n      pop\n      jump\t// out\n        /* \"#utility.yul\":13786:14205   */\n    tag_131:\n        /* \"#utility.yul\":13952:13956   */\n      0x00\n        /* \"#utility.yul\":13990:13992   */\n      0x20\n        /* \"#utility.yul\":13979:13988   */\n      dup3\n        /* \"#utility.yul\":13975:13993   */\n      add\n        /* \"#utility.yul\":13967:13993   */\n      swap1\n      pop\n        /* \"#utility.yul\":14039:14048   */\n      dup2\n        /* \"#utility.yul\":14033:14037   */\n      dup2\n        /* \"#utility.yul\":14029:14049   */\n      sub\n        /* \"#utility.yul\":14025:14026   */\n      0x00\n        /* \"#utility.yul\":14014:14023   */\n      dup4\n        /* \"#utility.yul\":14010:14027   */\n      add\n        /* \"#utility.yul\":14003:14050   */\n      mstore\n        /* \"#utility.yul\":14067:14198   */\n      tag_387\n        /* \"#utility.yul\":14193:14197   */\n      dup2\n        /* \"#utility.yul\":14067:14198   */\n      tag_318\n      jump\t// in\n    tag_387:\n        /* \"#utility.yul\":14059:14198   */\n      swap1\n      pop\n        /* \"#utility.yul\":13786:14205   */\n      swap2\n      swap1\n      pop\n      jump\t// out\n        /* \"#utility.yul\":14211:14630   */\n    tag_97:\n        /* \"#utility.yul\":14377:14381   */\n      0x00\n        /* \"#utility.yul\":14415:14417   */\n      0x20\n        /* \"#utility.yul\":14404:14413   */\n      dup3\n        /* \"#utility.yul\":14400:14418   */\n      add\n        /* \"#utility.yul\":14392:14418   */\n      swap1\n      pop\n        /* \"#utility.yul\":14464:14473   */\n      dup2\n        /* \"#utility.yul\":14458:14462   */\n      dup2\n        /* \"#utility.yul\":14454:14474   */\n      sub\n        /* \"#utility.yul\":14450:14451   */\n      0x00\n        /* \"#utility.yul\":14439:14448   */\n      dup4\n        /* \"#utility.yul\":14435:14452   */\n      add\n        /* \"#utility.yul\":14428:14475   */\n      mstore\n        /* \"#utility.yul\":14492:14623   */\n      tag_389\n        /* \"#utility.yul\":14618:14622   */\n      dup2\n        /* \"#utility.yul\":14492:14623   */\n      tag_323\n      jump\t// in\n    tag_389:\n        /* \"#utility.yul\":14484:14623   */\n      swap1\n      pop\n        /* \"#utility.yul\":14211:14630   */\n      swap2\n      swap1\n      pop\n      jump\t// out\n        /* \"#utility.yul\":14636:15055   */\n    tag_107:\n        /* \"#utility.yul\":14802:14806   */\n      0x00\n        /* \"#utility.yul\":14840:14842   */\n      0x20\n        /* \"#utility.yul\":14829:14838   */\n      dup3\n        /* \"#utility.yul\":14825:14843   */\n      add\n        /* \"#utility.yul\":14817:14843   */\n      swap1\n      pop\n        /* \"#utility.yul\":14889:14898   */\n      dup2\n        /* \"#utility.yul\":14883:14887   */\n      dup2\n        /* \"#utility.yul\":14879:14899   */\n      sub\n        /* \"#utility.yul\":14875:14876   */\n      0x00\n        /* \"#utility.yul\":14864:14873   */\n      dup4\n        /* \"#utility.yul\":14860:14877   */\n      add\n        /* \"#utility.yul\":14853:14900   */\n      mstore\n        /* \"#utility.yul\":14917:15048   */\n      tag_391\n        /* \"#utility.yul\":15043:15047   */\n      dup2\n        /* \"#utility.yul\":14917:15048   */\n      tag_328\n      jump\t// in\n    tag_391:\n        /* \"#utility.yul\":14909:15048   */\n      swap1\n      pop\n        /* \"#utility.yul\":14636:15055   */\n      swap2\n      swap1\n      pop\n      jump\t// out\n        /* \"#utility.yul\":15061:15480   */\n    tag_78:\n        /* \"#utility.yul\":15227:15231   */\n      0x00\n        /* \"#utility.yul\":15265:15267   */\n      0x20\n        /* \"#utility.yul\":15254:15263   */\n      dup3\n        /* \"#utility.yul\":15250:15268   */\n      add\n        /* \"#utility.yul\":15242:15268   */\n      swap1\n      pop\n        /* \"#utility.yul\":15314:15323   */\n      dup2\n        /* \"#utility.yul\":15308:15312   */\n      dup2\n        /* \"#utility.yul\":15304:15324   */\n      sub\n        /* \"#utility.yul\":15300:15301   */\n      0x00\n        /* \"#utility.yul\":15289:15298   */\n      dup4\n        /* \"#utility.yul\":15285:15302   */\n      add\n        /* \"#utility.yul\":15278:15325   */\n      mstore\n        /* \"#utility.yul\":15342:15473   */\n      tag_393\n        /* \"#utility.yul\":15468:15472   */\n      dup2\n        /* \"#utility.yul\":15342:15473   */\n      tag_343\n      jump\t// in\n    tag_393:\n        /* \"#utility.yul\":15334:15473   */\n      swap1\n      pop\n        /* \"#utility.yul\":15061:15480   */\n      swap2\n      swap1\n      pop\n      jump\t// out\n        /* \"#utility.yul\":15567:15666   */\n    tag_295:\n        /* \"#utility.yul\":15619:15625   */\n      0x00\n        /* \"#utility.yul\":15653:15658   */\n      dup2\n        /* \"#utility.yul\":15647:15659   */\n      mload\n        /* \"#utility.yul\":15637:15659   */\n      swap1\n      pop\n        /* \"#utility.yul\":15567:15666   */\n      swap2\n      swap1\n      pop\n      jump\t// out\n        /* \"#utility.yul\":15672:15841   */\n    tag_297:\n        /* \"#utility.yul\":15756:15767   */\n      0x00\n        /* \"#utility.yul\":15790:15796   */\n      dup3\n        /* \"#utility.yul\":15785:15788   */\n      dup3\n        /* \"#utility.yul\":15778:15797   */\n      mstore\n        /* \"#utility.yul\":15830:15834   */\n      0x20\n        /* \"#utility.yul\":15825:15828   */\n      dup3\n        /* \"#utility.yul\":15821:15835   */\n      add\n        /* \"#utility.yul\":15806:15835   */\n      swap1\n      pop\n        /* \"#utility.yul\":15672:15841   */\n      swap3\n      swap2\n      pop\n      pop\n      jump\t// out\n        /* \"#utility.yul\":15847:15995   */\n    tag_306:\n        /* \"#utility.yul\":15949:15960   */\n      0x00\n        /* \"#utility.yul\":15986:15989   */\n      dup2\n        /* \"#utility.yul\":15971:15989   */\n      swap1\n      pop\n        /* \"#utility.yul\":15847:15995   */\n      swap3\n      swap2\n      pop\n      pop\n      jump\t// out\n        /* \"#utility.yul\":16001:16306   */\n    tag_188:\n        /* \"#utility.yul\":16041:16044   */\n      0x00\n        /* \"#utility.yul\":16060:16080   */\n      tag_400\n        /* \"#utility.yul\":16078:16079   */\n      dup3\n        /* \"#utility.yul\":16060:16080   */\n      tag_351\n      jump\t// in\n    tag_400:\n        /* \"#utility.yul\":16055:16080   */\n      swap2\n      pop\n        /* \"#utility.yul\":16094:16114   */\n      tag_401\n        /* \"#utility.yul\":16112:16113   */\n      dup4\n        /* \"#utility.yul\":16094:16114   */\n      tag_351\n      jump\t// in\n    tag_401:\n        /* \"#utility.yul\":16089:16114   */\n      swap3\n      pop\n        /* \"#utility.yul\":16248:16249   */\n      dup3\n        /* \"#utility.yul\":16180:16246   */\n      0xffffffffffffffffffffffffffffffffffffffffffffffffffffffffffffffff\n        /* \"#utility.yul\":16176:16250   */\n      sub\n        /* \"#utility.yul\":16173:16174   */\n      dup3\n        /* \"#utility.yul\":16170:16251   */\n      gt\n        /* \"#utility.yul\":16167:16274   */\n      iszero\n      tag_402\n      jumpi\n        /* \"#utility.yul\":16254:16272   */\n      tag_403\n      tag_404\n      jump\t// in\n    tag_403:\n        /* \"#utility.yul\":16167:16274   */\n    tag_402:\n        /* \"#utility.yul\":16298:16299   */\n      dup3\n        /* \"#utility.yul\":16295:16296   */\n      dup3\n        /* \"#utility.yul\":16291:16300   */\n      add\n        /* \"#utility.yul\":16284:16300   */\n      swap1\n      pop\n        /* \"#utility.yul\":16001:16306   */\n      swap3\n      swap2\n      pop\n      pop\n      jump\t// out\n        /* \"#utility.yul\":16312:16497   */\n    tag_119:\n        /* \"#utility.yul\":16352:16353   */\n      0x00\n        /* \"#utility.yul\":16369:16389   */\n      tag_406\n        /* \"#utility.yul\":16387:16388   */\n      dup3\n        /* \"#utility.yul\":16369:16389   */\n      tag_351\n      jump\t// in\n    tag_406:\n        /* \"#utility.yul\":16364:16389   */\n      swap2\n      pop\n        /* \"#utility.yul\":16403:16423   */\n      tag_407\n        /* \"#utility.yul\":16421:16422   */\n      dup4\n        /* \"#utility.yul\":16403:16423   */\n      tag_351\n      jump\t// in\n    tag_407:\n        /* \"#utility.yul\":16398:16423   */\n      swap3\n      pop\n        /* \"#utility.yul\":16442:16443   */\n      dup3\n        /* \"#utility.yul\":16432:16467   */\n      tag_408\n      jumpi\n        /* \"#utility.yul\":16447:16465   */\n      tag_409\n      tag_410\n      jump\t// in\n    tag_409:\n        /* \"#utility.yul\":16432:16467   */\n    tag_408:\n        /* \"#utility.yul\":16489:16490   */\n      dup3\n        /* \"#utility.yul\":16486:16487   */\n      dup3\n        /* \"#utility.yul\":16482:16491   */\n      div\n        /* \"#utility.yul\":16477:16491   */\n      swap1\n      pop\n        /* \"#utility.yul\":16312:16497   */\n      swap3\n      swap2\n      pop\n      pop\n      jump\t// out\n        /* \"#utility.yul\":16503:16851   */\n    tag_150:\n        /* \"#utility.yul\":16543:16550   */\n      0x00\n        /* \"#utility.yul\":16566:16586   */\n      tag_412\n        /* \"#utility.yul\":16584:16585   */\n      dup3\n        /* \"#utility.yul\":16566:16586   */\n      tag_351\n      jump\t// in\n    tag_412:\n        /* \"#utility.yul\":16561:16586   */\n      swap2\n      pop\n        /* \"#utility.yul\":16600:16620   */\n      tag_413\n        /* \"#utility.yul\":16618:16619   */\n      dup4\n        /* \"#utility.yul\":16600:16620   */\n      tag_351\n      jump\t// in\n    tag_413:\n        /* \"#utility.yul\":16595:16620   */\n      swap3\n      pop\n        /* \"#utility.yul\":16788:16789   */\n      dup2\n        /* \"#utility.yul\":16720:16786   */\n      0xffffffffffffffffffffffffffffffffffffffffffffffffffffffffffffffff\n        /* \"#utility.yul\":16716:16790   */\n      div\n        /* \"#utility.yul\":16713:16714   */\n      dup4\n        /* \"#utility.yul\":16710:16791   */\n      gt\n        /* \"#utility.yul\":16705:16706   */\n      dup3\n        /* \"#utility.yul\":16698:16707   */\n      iszero\n        /* \"#utility.yul\":16691:16708   */\n      iszero\n        /* \"#utility.yul\":16687:16792   */\n      and\n        /* \"#utility.yul\":16684:16815   */\n      iszero\n      tag_414\n      jumpi\n        /* \"#utility.yul\":16795:16813   */\n      tag_415\n      tag_404\n      jump\t// in\n    tag_415:\n        /* \"#utility.yul\":16684:16815   */\n    tag_414:\n        /* \"#utility.yul\":16843:16844   */\n      dup3\n        /* \"#utility.yul\":16840:16841   */\n      dup3\n        /* \"#utility.yul\":16836:16845   */\n      mul\n        /* \"#utility.yul\":16825:16845   */\n      swap1\n      pop\n        /* \"#utility.yul\":16503:16851   */\n      swap3\n      swap2\n      pop\n      pop\n      jump\t// out\n        /* \"#utility.yul\":16857:16953   */\n    tag_279:\n        /* \"#utility.yul\":16894:16901   */\n      0x00\n        /* \"#utility.yul\":16923:16947   */\n      tag_417\n        /* \"#utility.yul\":16941:16946   */\n      dup3\n        /* \"#utility.yul\":16923:16947   */\n      tag_418\n      jump\t// in\n    tag_417:\n        /* \"#utility.yul\":16912:16947   */\n      swap1\n      pop\n        /* \"#utility.yul\":16857:16953   */\n      swap2\n      swap1\n      pop\n      jump\t// out\n        /* \"#utility.yul\":16959:17049   */\n    tag_283:\n        /* \"#utility.yul\":16993:17000   */\n      0x00\n        /* \"#utility.yul\":17036:17041   */\n      dup2\n        /* \"#utility.yul\":17029:17042   */\n      iszero\n        /* \"#utility.yul\":17022:17043   */\n      iszero\n        /* \"#utility.yul\":17011:17043   */\n      swap1\n      pop\n        /* \"#utility.yul\":16959:17049   */\n      swap2\n      swap1\n      pop\n      jump\t// out\n        /* \"#utility.yul\":17055:17132   */\n    tag_287:\n        /* \"#utility.yul\":17092:17099   */\n      0x00\n        /* \"#utility.yul\":17121:17126   */\n      dup2\n        /* \"#utility.yul\":17110:17126   */\n      swap1\n      pop\n        /* \"#utility.yul\":17055:17132   */\n      swap2\n      swap1\n      pop\n      jump\t// out\n        /* \"#utility.yul\":17138:17287   */\n    tag_421:\n        /* \"#utility.yul\":17174:17181   */\n      0x00\n        /* \"#utility.yul\":17214:17280   */\n      0xffffffff00000000000000000000000000000000000000000000000000000000\n        /* \"#utility.yul\":17207:17212   */\n      dup3\n        /* \"#utility.yul\":17203:17281   */\n      and\n        /* \"#utility.yul\":17192:17281   */\n      swap1\n      pop\n        /* \"#utility.yul\":17138:17287   */\n      swap2\n      swap1\n      pop\n      jump\t// out\n        /* \"#utility.yul\":17293:17419   */\n    tag_418:\n        /* \"#utility.yul\":17330:17337   */\n      0x00\n        /* \"#utility.yul\":17370:17412   */\n      0xffffffffffffffffffffffffffffffffffffffff\n        /* \"#utility.yul\":17363:17368   */\n      dup3\n        /* \"#utility.yul\":17359:17413   */\n      and\n        /* \"#utility.yul\":17348:17413   */\n      swap1\n      pop\n        /* \"#utility.yul\":17293:17419   */\n      swap2\n      swap1\n      pop\n      jump\t// out\n        /* \"#utility.yul\":17425:17502   */\n    tag_351:\n        /* \"#utility.yul\":17462:17469   */\n      0x00\n        /* \"#utility.yul\":17491:17496   */\n      dup2\n        /* \"#utility.yul\":17480:17496   */\n      swap1\n      pop\n        /* \"#utility.yul\":17425:17502   */\n      swap2\n      swap1\n      pop\n      jump\t// out\n        /* \"#utility.yul\":17508:17629   */\n    tag_291:\n        /* \"#utility.yul\":17566:17575   */\n      0x00\n        /* \"#utility.yul\":17599:17623   */\n      tag_426\n        /* \"#utility.yul\":17617:17622   */\n      dup3\n        /* \"#utility.yul\":17599:17623   */\n      tag_351\n      jump\t// in\n    tag_426:\n        /* \"#utility.yul\":17586:17623   */\n      swap1\n      pop\n        /* \"#utility.yul\":17508:17629   */\n      swap2\n      swap1\n      pop\n      jump\t// out\n        /* \"#utility.yul\":17635:17942   */\n    tag_299:\n        /* \"#utility.yul\":17703:17704   */\n      0x00\n        /* \"#utility.yul\":17713:17826   */\n    tag_428:\n        /* \"#utility.yul\":17727:17733   */\n      dup4\n        /* \"#utility.yul\":17724:17725   */\n      dup2\n        /* \"#utility.yul\":17721:17734   */\n      lt\n        /* \"#utility.yul\":17713:17826   */\n      iszero\n      tag_430\n      jumpi\n        /* \"#utility.yul\":17812:17813   */\n      dup1\n        /* \"#utility.yul\":17807:17810   */\n      dup3\n        /* \"#utility.yul\":17803:17814   */\n      add\n        /* \"#utility.yul\":17797:17815   */\n      mload\n        /* \"#utility.yul\":17793:17794   */\n      dup2\n        /* \"#utility.yul\":17788:17791   */\n      dup5\n        /* \"#utility.yul\":17784:17795   */\n      add\n        /* \"#utility.yul\":17777:17816   */\n      mstore\n        /* \"#utility.yul\":17749:17751   */\n      0x20\n        /* \"#utility.yul\":17746:17747   */\n      dup2\n        /* \"#utility.yul\":17742:17752   */\n      add\n        /* \"#utility.yul\":17737:17752   */\n      swap1\n      pop\n        /* \"#utility.yul\":17713:17826   */\n      jump(tag_428)\n    tag_430:\n        /* \"#utility.yul\":17844:17850   */\n      dup4\n        /* \"#utility.yul\":17841:17842   */\n      dup2\n        /* \"#utility.yul\":17838:17851   */\n      gt\n        /* \"#utility.yul\":17835:17936   */\n      iszero\n      tag_431\n      jumpi\n        /* \"#utility.yul\":17924:17925   */\n      0x00\n        /* \"#utility.yul\":17915:17921   */\n      dup5\n        /* \"#utility.yul\":17910:17913   */\n      dup5\n        /* \"#utility.yul\":17906:17922   */\n      add\n        /* \"#utility.yul\":17899:17926   */\n      mstore\n        /* \"#utility.yul\":17835:17936   */\n    tag_431:\n        /* \"#utility.yul\":17684:17942   */\n      pop\n        /* \"#utility.yul\":17635:17942   */\n      pop\n      pop\n      pop\n      jump\t// out\n        /* \"#utility.yul\":17948:18119   */\n    tag_208:\n        /* \"#utility.yul\":17987:17990   */\n      0x00\n        /* \"#utility.yul\":18010:18034   */\n      tag_433\n        /* \"#utility.yul\":18028:18033   */\n      dup3\n        /* \"#utility.yul\":18010:18034   */\n      tag_351\n      jump\t// in\n    tag_433:\n        /* \"#utility.yul\":18001:18034   */\n      swap2\n      pop\n        /* \"#utility.yul\":18056:18060   */\n      0x00\n        /* \"#utility.yul\":18049:18054   */\n      dup3\n        /* \"#utility.yul\":18046:18061   */\n      eq\n        /* \"#utility.yul\":18043:18084   */\n      iszero\n      tag_434\n      jumpi\n        /* \"#utility.yul\":18064:18082   */\n      tag_435\n      tag_404\n      jump\t// in\n    tag_435:\n        /* \"#utility.yul\":18043:18084   */\n    tag_434:\n        /* \"#utility.yul\":18111:18112   */\n      0x01\n        /* \"#utility.yul\":18104:18109   */\n      dup3\n        /* \"#utility.yul\":18100:18113   */\n      sub\n        /* \"#utility.yul\":18093:18113   */\n      swap1\n      pop\n        /* \"#utility.yul\":17948:18119   */\n      swap2\n      swap1\n      pop\n      jump\t// out\n        /* \"#utility.yul\":18125:18305   */\n    tag_404:\n        /* \"#utility.yul\":18173:18250   */\n      0x4e487b7100000000000000000000000000000000000000000000000000000000\n        /* \"#utility.yul\":18170:18171   */\n      0x00\n        /* \"#utility.yul\":18163:18251   */\n      mstore\n        /* \"#utility.yul\":18270:18274   */\n      0x11\n        /* \"#utility.yul\":18267:18268   */\n      0x04\n        /* \"#utility.yul\":18260:18275   */\n      mstore\n        /* \"#utility.yul\":18294:18298   */\n      0x24\n        /* \"#utility.yul\":18291:18292   */\n      0x00\n        /* \"#utility.yul\":18284:18299   */\n      revert\n        /* \"#utility.yul\":18311:18491   */\n    tag_410:\n        /* \"#utility.yul\":18359:18436   */\n      0x4e487b7100000000000000000000000000000000000000000000000000000000\n        /* \"#utility.yul\":18356:18357   */\n      0x00\n        /* \"#utility.yul\":18349:18437   */\n      mstore\n        /* \"#utility.yul\":18456:18460   */\n      0x12\n        /* \"#utility.yul\":18453:18454   */\n      0x04\n        /* \"#utility.yul\":18446:18461   */\n      mstore\n        /* \"#utility.yul\":18480:18484   */\n      0x24\n        /* \"#utility.yul\":18477:18478   */\n      0x00\n        /* \"#utility.yul\":18470:18485   */\n      revert\n        /* \"#utility.yul\":18497:18677   */\n    tag_195:\n        /* \"#utility.yul\":18545:18622   */\n      0x4e487b7100000000000000000000000000000000000000000000000000000000\n        /* \"#utility.yul\":18542:18543   */\n      0x00\n        /* \"#utility.yul\":18535:18623   */\n      mstore\n        /* \"#utility.yul\":18642:18646   */\n      0x32\n        /* \"#utility.yul\":18639:18640   */\n      0x04\n        /* \"#utility.yul\":18632:18647   */\n      mstore\n        /* \"#utility.yul\":18666:18670   */\n      0x24\n        /* \"#utility.yul\":18663:18664   */\n      0x00\n        /* \"#utility.yul\":18656:18671   */\n      revert\n        /* \"#utility.yul\":18683:18863   */\n    tag_191:\n        /* \"#utility.yul\":18731:18808   */\n      0x4e487b7100000000000000000000000000000000000000000000000000000000\n        /* \"#utility.yul\":18728:18729   */\n      0x00\n        /* \"#utility.yul\":18721:18809   */\n      mstore\n        /* \"#utility.yul\":18828:18832   */\n      0x41\n        /* \"#utility.yul\":18825:18826   */\n      0x04\n        /* \"#utility.yul\":18818:18833   */\n      mstore\n        /* \"#utility.yul\":18852:18856   */\n      0x24\n        /* \"#utility.yul\":18849:18850   */\n      0x00\n        /* \"#utility.yul\":18842:18857   */\n      revert\n        /* \"#utility.yul\":18992:19109   */\n    tag_239:\n        /* \"#utility.yul\":19101:19102   */\n      0x00\n        /* \"#utility.yul\":19098:19099   */\n      dup1\n        /* \"#utility.yul\":19091:19103   */\n      revert\n        /* \"#utility.yul\":19115:19217   */\n    tag_301:\n        /* \"#utility.yul\":19156:19162   */\n      0x00\n        /* \"#utility.yul\":19207:19209   */\n      0x1f\n        /* \"#utility.yul\":19203:19210   */\n      not\n        /* \"#utility.yul\":19198:19200   */\n      0x1f\n        /* \"#utility.yul\":19191:19196   */\n      dup4\n        /* \"#utility.yul\":19187:19201   */\n      add\n        /* \"#utility.yul\":19183:19211   */\n      and\n        /* \"#utility.yul\":19173:19211   */\n      swap1\n      pop\n        /* \"#utility.yul\":19115:19217   */\n      swap2\n      swap1\n      pop\n      jump\t// out\n        /* \"#utility.yul\":19223:19405   */\n    tag_312:\n        /* \"#utility.yul\":19363:19397   */\n      0x537472696e67733a20686578206c656e67746820696e73756666696369656e74\n        /* \"#utility.yul\":19359:19360   */\n      0x00\n        /* \"#utility.yul\":19351:19357   */\n      dup3\n        /* \"#utility.yul\":19347:19361   */\n      add\n        /* \"#utility.yul\":19340:19398   */\n      mstore\n        /* \"#utility.yul\":19223:19405   */\n      pop\n      jump\t// out\n        /* \"#utility.yul\":19411:19713   */\n    tag_317:\n        /* \"#utility.yul\":19551:19585   */\n      0x6f6e6c792061646d696e7320616e64206f6e6c792046726967672d6973737565\n        /* \"#utility.yul\":19547:19548   */\n      0x00\n        /* \"#utility.yul\":19539:19545   */\n      dup3\n        /* \"#utility.yul\":19535:19549   */\n      add\n        /* \"#utility.yul\":19528:19586   */\n      mstore\n        /* \"#utility.yul\":19620:19654   */\n      0x6420746f6b656e732063616e2062652061646465642074686520746f6b656e20\n        /* \"#utility.yul\":19615:19617   */\n      0x20\n        /* \"#utility.yul\":19607:19613   */\n      dup3\n        /* \"#utility.yul\":19603:19618   */\n      add\n        /* \"#utility.yul\":19596:19655   */\n      mstore\n        /* \"#utility.yul\":19689:19705   */\n      0x746f207468697320726f75746572000000000000000000000000000000000000\n        /* \"#utility.yul\":19684:19686   */\n      0x40\n        /* \"#utility.yul\":19676:19682   */\n      dup3\n        /* \"#utility.yul\":19672:19687   */\n      add\n        /* \"#utility.yul\":19665:19706   */\n      mstore\n        /* \"#utility.yul\":19411:19713   */\n      pop\n      jump\t// out\n        /* \"#utility.yul\":19719:19896   */\n    tag_322:\n        /* \"#utility.yul\":19859:19888   */\n      0x596f752063616e6e6f74206275792077697468203020746f6b656e0000000000\n        /* \"#utility.yul\":19855:19856   */\n      0x00\n        /* \"#utility.yul\":19847:19853   */\n      dup3\n        /* \"#utility.yul\":19843:19857   */\n      add\n        /* \"#utility.yul\":19836:19889   */\n      mstore\n        /* \"#utility.yul\":19719:19896   */\n      pop\n      jump\t// out\n        /* \"#utility.yul\":19902:20075   */\n    tag_327:\n        /* \"#utility.yul\":20042:20067   */\n      0x596f752063616e6e6f742073656c6c203020746f6b656e000000000000000000\n        /* \"#utility.yul\":20038:20039   */\n      0x00\n        /* \"#utility.yul\":20030:20036   */\n      dup3\n        /* \"#utility.yul\":20026:20040   */\n      add\n        /* \"#utility.yul\":20019:20068   */\n      mstore\n        /* \"#utility.yul\":19902:20075   */\n      pop\n      jump\t// out\n        /* \"#utility.yul\":20081:20247   */\n    tag_332:\n        /* \"#utility.yul\":20221:20239   */\n      0x4e65656420612055494420746f6b656e00000000000000000000000000000000\n        /* \"#utility.yul\":20217:20218   */\n      0x00\n        /* \"#utility.yul\":20209:20215   */\n      dup3\n        /* \"#utility.yul\":20205:20219   */\n      add\n        /* \"#utility.yul\":20198:20240   */\n      mstore\n        /* \"#utility.yul\":20081:20247   */\n      pop\n      jump\t// out\n        /* \"#utility.yul\":20253:20426   */\n    tag_337:\n        /* \"#utility.yul\":20393:20418   */\n      0x416363657373436f6e74726f6c3a206163636f756e7420000000000000000000\n        /* \"#utility.yul\":20389:20390   */\n      0x00\n        /* \"#utility.yul\":20381:20387   */\n      dup3\n        /* \"#utility.yul\":20377:20391   */\n      add\n        /* \"#utility.yul\":20370:20419   */\n      mstore\n        /* \"#utility.yul\":20253:20426   */\n      pop\n      jump\t// out\n        /* \"#utility.yul\":20432:20599   */\n    tag_342:\n        /* \"#utility.yul\":20572:20591   */\n      0x206973206d697373696e6720726f6c6520000000000000000000000000000000\n        /* \"#utility.yul\":20568:20569   */\n      0x00\n        /* \"#utility.yul\":20560:20566   */\n      dup3\n        /* \"#utility.yul\":20556:20570   */\n      add\n        /* \"#utility.yul\":20549:20592   */\n      mstore\n        /* \"#utility.yul\":20432:20599   */\n      pop\n      jump\t// out\n        /* \"#utility.yul\":20605:20839   */\n    tag_347:\n        /* \"#utility.yul\":20745:20779   */\n      0x416363657373436f6e74726f6c3a2063616e206f6e6c792072656e6f756e6365\n        /* \"#utility.yul\":20741:20742   */\n      0x00\n        /* \"#utility.yul\":20733:20739   */\n      dup3\n        /* \"#utility.yul\":20729:20743   */\n      add\n        /* \"#utility.yul\":20722:20780   */\n      mstore\n        /* \"#utility.yul\":20814:20831   */\n      0x20726f6c657320666f722073656c660000000000000000000000000000000000\n        /* \"#utility.yul\":20809:20811   */\n      0x20\n        /* \"#utility.yul\":20801:20807   */\n      dup3\n        /* \"#utility.yul\":20797:20812   */\n      add\n        /* \"#utility.yul\":20790:20832   */\n      mstore\n        /* \"#utility.yul\":20605:20839   */\n      pop\n      jump\t// out\n        /* \"#utility.yul\":20845:20967   */\n    tag_216:\n        /* \"#utility.yul\":20918:20942   */\n      tag_453\n        /* \"#utility.yul\":20936:20941   */\n      dup2\n        /* \"#utility.yul\":20918:20942   */\n      tag_279\n      jump\t// in\n    tag_453:\n        /* \"#utility.yul\":20911:20916   */\n      dup2\n        /* \"#utility.yul\":20908:20943   */\n      eq\n        /* \"#utility.yul\":20898:20961   */\n      tag_454\n      jumpi\n        /* \"#utility.yul\":20957:20958   */\n      0x00\n        /* \"#utility.yul\":20954:20955   */\n      dup1\n        /* \"#utility.yul\":20947:20959   */\n      revert\n        /* \"#utility.yul\":20898:20961   */\n    tag_454:\n        /* \"#utility.yul\":20845:20967   */\n      pop\n      jump\t// out\n        /* \"#utility.yul\":20973:21089   */\n    tag_220:\n        /* \"#utility.yul\":21043:21064   */\n      tag_456\n        /* \"#utility.yul\":21058:21063   */\n      dup2\n        /* \"#utility.yul\":21043:21064   */\n      tag_283\n      jump\t// in\n    tag_456:\n        /* \"#utility.yul\":21036:21041   */\n      dup2\n        /* \"#utility.yul\":21033:21065   */\n      eq\n        /* \"#utility.yul\":21023:21083   */\n      tag_457\n      jumpi\n        /* \"#utility.yul\":21079:21080   */\n      0x00\n        /* \"#utility.yul\":21076:21077   */\n      dup1\n        /* \"#utility.yul\":21069:21081   */\n      revert\n        /* \"#utility.yul\":21023:21083   */\n    tag_457:\n        /* \"#utility.yul\":20973:21089   */\n      pop\n      jump\t// out\n        /* \"#utility.yul\":21095:21217   */\n    tag_224:\n        /* \"#utility.yul\":21168:21192   */\n      tag_459\n        /* \"#utility.yul\":21186:21191   */\n      dup2\n        /* \"#utility.yul\":21168:21192   */\n      tag_287\n      jump\t// in\n    tag_459:\n        /* \"#utility.yul\":21161:21166   */\n      dup2\n        /* \"#utility.yul\":21158:21193   */\n      eq\n        /* \"#utility.yul\":21148:21211   */\n      tag_460\n      jumpi\n        /* \"#utility.yul\":21207:21208   */\n      0x00\n        /* \"#utility.yul\":21204:21205   */\n      dup1\n        /* \"#utility.yul\":21197:21209   */\n      revert\n        /* \"#utility.yul\":21148:21211   */\n    tag_460:\n        /* \"#utility.yul\":21095:21217   */\n      pop\n      jump\t// out\n        /* \"#utility.yul\":21223:21343   */\n    tag_228:\n        /* \"#utility.yul\":21295:21318   */\n      tag_462\n        /* \"#utility.yul\":21312:21317   */\n      dup2\n        /* \"#utility.yul\":21295:21318   */\n      tag_421\n      jump\t// in\n    tag_462:\n        /* \"#utility.yul\":21288:21293   */\n      dup2\n        /* \"#utility.yul\":21285:21319   */\n      eq\n        /* \"#utility.yul\":21275:21337   */\n      tag_463\n      jumpi\n        /* \"#utility.yul\":21333:21334   */\n      0x00\n        /* \"#utility.yul\":21330:21331   */\n      dup1\n        /* \"#utility.yul\":21323:21335   */\n      revert\n        /* \"#utility.yul\":21275:21337   */\n    tag_463:\n        /* \"#utility.yul\":21223:21343   */\n      pop\n      jump\t// out\n        /* \"#utility.yul\":21349:21471   */\n    tag_232:\n        /* \"#utility.yul\":21422:21446   */\n      tag_465\n        /* \"#utility.yul\":21440:21445   */\n      dup2\n        /* \"#utility.yul\":21422:21446   */\n      tag_351\n      jump\t// in\n    tag_465:\n        /* \"#utility.yul\":21415:21420   */\n      dup2\n        /* \"#utility.yul\":21412:21447   */\n      eq\n        /* \"#utility.yul\":21402:21465   */\n      tag_466\n      jumpi\n        /* \"#utility.yul\":21461:21462   */\n      0x00\n        /* \"#utility.yul\":21458:21459   */\n      dup1\n        /* \"#utility.yul\":21451:21463   */\n      revert\n        /* \"#utility.yul\":21402:21465   */\n    tag_466:\n        /* \"#utility.yul\":21349:21471   */\n      pop\n      jump\t// out\n\n    auxdata: 0xa2646970667358221220ac79e52f140daf0f4a81c203d00b1fefcd7a53987faa669e44e2c617ecc8f88964736f6c63430008070033\n}\n",
				"bytecode": {
					"linkReferences": {},
					"object": "60806040523480156200001157600080fd5b5060405162002330380380620023308339818101604052810190620000379190620001cd565b6200004c6000801b826200005360201b60201c565b5062000252565b6200006582826200014460201b60201c565b6200014057600160008084815260200190815260200160002060000160008373ffffffffffffffffffffffffffffffffffffffff1673ffffffffffffffffffffffffffffffffffffffff16815260200190815260200160002060006101000a81548160ff021916908315150217905550620000e5620001ae60201b60201c565b73ffffffffffffffffffffffffffffffffffffffff168173ffffffffffffffffffffffffffffffffffffffff16837f2f8788117e7eff1d82e926ec794901d17c78024a50270940304540a733656f0d60405160405180910390a45b5050565b600080600084815260200190815260200160002060000160008373ffffffffffffffffffffffffffffffffffffffff1673ffffffffffffffffffffffffffffffffffffffff16815260200190815260200160002060009054906101000a900460ff16905092915050565b600033905090565b600081519050620001c78162000238565b92915050565b600060208284031215620001e657620001e562000233565b5b6000620001f684828501620001b6565b91505092915050565b60006200020c8262000213565b9050919050565b600073ffffffffffffffffffffffffffffffffffffffff82169050919050565b600080fd5b6200024381620001ff565b81146200024f57600080fd5b50565b6120ce80620002626000396000f3fe608060405234801561001057600080fd5b50600436106100a95760003560e01c80634cbe36ce116100715780634cbe36ce1461017a5780636c197ff51461019657806391d14854146101b2578063a217fddf146101e2578063cce7ec1314610200578063d547741f1461021c576100a9565b806301ffc9a7146100ae578063248a9ca3146100de57806327e45c2c1461010e5780632f2ff15d1461014257806336568abe1461015e575b600080fd5b6100c860048036038101906100c39190611726565b610238565b6040516100d59190611a63565b60405180910390f35b6100f860048036038101906100f391906116b9565b6102b2565b6040516101059190611a7e565b60405180910390f35b61012860048036038101906101239190611592565b6102d1565b6040516101399594939291906119be565b60405180910390f35b61015c600480360381019061015791906116e6565b610367565b005b610178600480360381019061017391906116e6565b610388565b005b610194600480360381019061018f91906115bf565b61040b565b005b6101b060048036038101906101ab919061164c565b610688565b005b6101cc60048036038101906101c791906116e6565b610af5565b6040516101d99190611a63565b60405180910390f35b6101ea610b5f565b6040516101f79190611a7e565b60405180910390f35b61021a6004803603810190610215919061164c565b610b66565b005b610236600480360381019061023191906116e6565b610fd3565b005b60007f7965db0b000000000000000000000000000000000000000000000000000000007bffffffffffffffffffffffffffffffffffffffffffffffffffffffff1916827bffffffffffffffffffffffffffffffffffffffffffffffffffffffff191614806102ab57506102aa82610ff4565b5b9050919050565b6000806000838152602001908152602001600020600101549050919050565b60016020528060005260406000206000915090508060000160009054906101000a900473ffffffffffffffffffffffffffffffffffffffff16908060010160009054906101000a900473ffffffffffffffffffffffffffffffffffffffff16908060020154908060030154908060040160009054906101000a900473ffffffffffffffffffffffffffffffffffffffff16905085565b610370826102b2565b6103798161105e565b6103838383611072565b505050565b610390611152565b73ffffffffffffffffffffffffffffffffffffffff168173ffffffffffffffffffffffffffffffffffffffff16146103fd576040517f08c379a00000000000000000000000000000000000000000000000000000000081526004016103f490611b84565b60405180910390fd5b610407828261115a565b5050565b6000801b6104188161105e565b60008790508073ffffffffffffffffffffffffffffffffffffffff166391d148546000801b336040518363ffffffff1660e01b815260040161045b929190611a99565b60206040518083038186803b15801561047357600080fd5b505afa158015610487573d6000803e3d6000fd5b505050506040513d601f19601f820116820180604052508101906104ab919061168c565b6104ea576040517f08c379a00000000000000000000000000000000000000000000000000000000081526004016104e190611b04565b60405180910390fd5b6040518060a001604052808773ffffffffffffffffffffffffffffffffffffffff1681526020018873ffffffffffffffffffffffffffffffffffffffff1681526020018681526020018581526020018473ffffffffffffffffffffffffffffffffffffffff16815250600160008a73ffffffffffffffffffffffffffffffffffffffff1673ffffffffffffffffffffffffffffffffffffffff16815260200190815260200160002060008201518160000160006101000a81548173ffffffffffffffffffffffffffffffffffffffff021916908373ffffffffffffffffffffffffffffffffffffffff16021790555060208201518160010160006101000a81548173ffffffffffffffffffffffffffffffffffffffff021916908373ffffffffffffffffffffffffffffffffffffffff160217905550604082015181600201556060820151816003015560808201518160040160006101000a81548173ffffffffffffffffffffffffffffffffffffffff021916908373ffffffffffffffffffffffffffffffffffffffff1602179055509050505050505050505050565b600081116106cb576040517f08c379a00000000000000000000000000000000000000000000000000000000081526004016106c290611b44565b60405180910390fd5b6000600160008473ffffffffffffffffffffffffffffffffffffffff1673ffffffffffffffffffffffffffffffffffffffff16815260200190815260200160002060010160009054906101000a900473ffffffffffffffffffffffffffffffffffffffff1673ffffffffffffffffffffffffffffffffffffffff1662fdd58e3360006040518363ffffffff1660e01b815260040161076a929190611a11565b60206040518083038186803b15801561078257600080fd5b505afa158015610796573d6000803e3d6000fd5b505050506040513d601f19601f820116820180604052508101906107ba9190611753565b116107fa576040517f08c379a00000000000000000000000000000000000000000000000000000000081526004016107f190611b64565b60405180910390fd5b60008290506000600160008573ffffffffffffffffffffffffffffffffffffffff1673ffffffffffffffffffffffffffffffffffffffff16815260200190815260200160002060040160009054906101000a900473ffffffffffffffffffffffffffffffffffffffff1690508173ffffffffffffffffffffffffffffffffffffffff16638058425b6040518163ffffffff1660e01b815260040160206040518083038186803b1580156108ac57600080fd5b505afa1580156108c0573d6000803e3d6000fd5b505050506040513d601f19601f820116820180604052508101906108e4919061168c565b6108ed57600080fd5b8173ffffffffffffffffffffffffffffffffffffffff16639dc29fac33856040518363ffffffff1660e01b8152600401610928929190611a3a565b600060405180830381600087803b15801561094257600080fd5b505af1158015610956573d6000803e3d6000fd5b505050506000600160008673ffffffffffffffffffffffffffffffffffffffff1673ffffffffffffffffffffffffffffffffffffffff16815260200190815260200160002060030154846109aa9190611c21565b90508173ffffffffffffffffffffffffffffffffffffffff166323b872dd600160008873ffffffffffffffffffffffffffffffffffffffff1673ffffffffffffffffffffffffffffffffffffffff16815260200190815260200160002060000160009054906101000a900473ffffffffffffffffffffffffffffffffffffffff1633846040518463ffffffff1660e01b8152600401610a4b93929190611987565b602060405180830381600087803b158015610a6557600080fd5b505af1158015610a79573d6000803e3d6000fd5b505050506040513d601f19601f82011682018060405250810190610a9d919061168c565b503373ffffffffffffffffffffffffffffffffffffffff167f165e50ed3a693f2ff4dcc70a4835f65ce8e0fbb700ba9c2ddb0aa07e06fa479e8686604051610ae6929190611a3a565b60405180910390a25050505050565b600080600084815260200190815260200160002060000160008373ffffffffffffffffffffffffffffffffffffffff1673ffffffffffffffffffffffffffffffffffffffff16815260200190815260200160002060009054906101000a900460ff16905092915050565b6000801b81565b60008111610ba9576040517f08c379a0000000000000000000000000000000000000000000000000000000008152600401610ba090611b24565b60405180910390fd5b6000600160008473ffffffffffffffffffffffffffffffffffffffff1673ffffffffffffffffffffffffffffffffffffffff16815260200190815260200160002060010160009054906101000a900473ffffffffffffffffffffffffffffffffffffffff1673ffffffffffffffffffffffffffffffffffffffff1662fdd58e3360006040518363ffffffff1660e01b8152600401610c48929190611a11565b60206040518083038186803b158015610c6057600080fd5b505afa158015610c74573d6000803e3d6000fd5b505050506040513d601f19601f82011682018060405250810190610c989190611753565b11610cd8576040517f08c379a0000000000000000000000000000000000000000000000000000000008152600401610ccf90611b64565b60405180910390fd5b6000600160008473ffffffffffffffffffffffffffffffffffffffff1673ffffffffffffffffffffffffffffffffffffffff16815260200190815260200160002060040160009054906101000a900473ffffffffffffffffffffffffffffffffffffffff16905060008390508073ffffffffffffffffffffffffffffffffffffffff16632e873bac6040518163ffffffff1660e01b815260040160206040518083038186803b158015610d8a57600080fd5b505afa158015610d9e573d6000803e3d6000fd5b505050506040513d601f19601f82011682018060405250810190610dc2919061168c565b610dcb57600080fd5b8173ffffffffffffffffffffffffffffffffffffffff166323b872dd33600160008873ffffffffffffffffffffffffffffffffffffffff1673ffffffffffffffffffffffffffffffffffffffff16815260200190815260200160002060000160009054906101000a900473ffffffffffffffffffffffffffffffffffffffff16866040518463ffffffff1660e01b8152600401610e6a93929190611987565b602060405180830381600087803b158015610e8457600080fd5b505af1158015610e98573d6000803e3d6000fd5b505050506040513d601f19601f82011682018060405250810190610ebc919061168c565b506000600160008673ffffffffffffffffffffffffffffffffffffffff1673ffffffffffffffffffffffffffffffffffffffff1681526020019081526020016000206002015484610f0d9190611c52565b90508173ffffffffffffffffffffffffffffffffffffffff166340c10f1933836040518363ffffffff1660e01b8152600401610f4a929190611a3a565b600060405180830381600087803b158015610f6457600080fd5b505af1158015610f78573d6000803e3d6000fd5b505050503373ffffffffffffffffffffffffffffffffffffffff167fc676e61b1e79d2fb537a623c39c425429b06c3309e0f79e72ac1dccc697031b58686604051610fc4929190611a3a565b60405180910390a25050505050565b610fdc826102b2565b610fe58161105e565b610fef838361115a565b505050565b60007f01ffc9a7000000000000000000000000000000000000000000000000000000007bffffffffffffffffffffffffffffffffffffffffffffffffffffffff1916827bffffffffffffffffffffffffffffffffffffffffffffffffffffffff1916149050919050565b61106f8161106a611152565b61123b565b50565b61107c8282610af5565b61114e57600160008084815260200190815260200160002060000160008373ffffffffffffffffffffffffffffffffffffffff1673ffffffffffffffffffffffffffffffffffffffff16815260200190815260200160002060006101000a81548160ff0219169083151502179055506110f3611152565b73ffffffffffffffffffffffffffffffffffffffff168173ffffffffffffffffffffffffffffffffffffffff16837f2f8788117e7eff1d82e926ec794901d17c78024a50270940304540a733656f0d60405160405180910390a45b5050565b600033905090565b6111648282610af5565b1561123757600080600084815260200190815260200160002060000160008373ffffffffffffffffffffffffffffffffffffffff1673ffffffffffffffffffffffffffffffffffffffff16815260200190815260200160002060006101000a81548160ff0219169083151502179055506111dc611152565b73ffffffffffffffffffffffffffffffffffffffff168173ffffffffffffffffffffffffffffffffffffffff16837ff6391f5c32d9c69d2a47ea670b442974b53935d1edc7fd64eb21e047a839171b60405160405180910390a45b5050565b6112458282610af5565b6112d45761126a8173ffffffffffffffffffffffffffffffffffffffff1660146112d8565b6112788360001c60206112d8565b60405160200161128992919061194d565b6040516020818303038152906040526040517f08c379a00000000000000000000000000000000000000000000000000000000081526004016112cb9190611ac2565b60405180910390fd5b5050565b6060600060028360026112eb9190611c52565b6112f59190611bcb565b67ffffffffffffffff81111561130e5761130d611e26565b5b6040519080825280601f01601f1916602001820160405280156113405781602001600182028036833780820191505090505b5090507f30000000000000000000000000000000000000000000000000000000000000008160008151811061137857611377611df7565b5b60200101907effffffffffffffffffffffffffffffffffffffffffffffffffffffffffffff1916908160001a9053507f7800000000000000000000000000000000000000000000000000000000000000816001815181106113dc576113db611df7565b5b60200101907effffffffffffffffffffffffffffffffffffffffffffffffffffffffffffff1916908160001a9053506000600184600261141c9190611c52565b6114269190611bcb565b90505b60018111156114c6577f3031323334353637383961626364656600000000000000000000000000000000600f86166010811061146857611467611df7565b5b1a60f81b82828151811061147f5761147e611df7565b5b60200101907effffffffffffffffffffffffffffffffffffffffffffffffffffffffffffff1916908160001a905350600485901c9450806114bf90611d6f565b9050611429565b506000841461150a576040517f08c379a000000000000000000000000000000000000000000000000000000000815260040161150190611ae4565b60405180910390fd5b8091505092915050565b60008135905061152381612025565b92915050565b6000815190506115388161203c565b92915050565b60008135905061154d81612053565b92915050565b6000813590506115628161206a565b92915050565b60008135905061157781612081565b92915050565b60008151905061158c81612081565b92915050565b6000602082840312156115a8576115a7611e55565b5b60006115b684828501611514565b91505092915050565b60008060008060008060c087890312156115dc576115db611e55565b5b60006115ea89828a01611514565b96505060206115fb89828a01611514565b955050604061160c89828a01611514565b945050606061161d89828a01611568565b935050608061162e89828a01611568565b92505060a061163f89828a01611514565b9150509295509295509295565b6000806040838503121561166357611662611e55565b5b600061167185828601611514565b925050602061168285828601611568565b9150509250929050565b6000602082840312156116a2576116a1611e55565b5b60006116b084828501611529565b91505092915050565b6000602082840312156116cf576116ce611e55565b5b60006116dd8482850161153e565b91505092915050565b600080604083850312156116fd576116fc611e55565b5b600061170b8582860161153e565b925050602061171c85828601611514565b9150509250929050565b60006020828403121561173c5761173b611e55565b5b600061174a84828501611553565b91505092915050565b60006020828403121561176957611768611e55565b5b60006117778482850161157d565b91505092915050565b61178981611cac565b82525050565b61179881611cbe565b82525050565b6117a781611cca565b82525050565b6117b681611d2a565b82525050565b60006117c782611ba4565b6117d18185611baf565b93506117e1818560208601611d3c565b6117ea81611e5a565b840191505092915050565b600061180082611ba4565b61180a8185611bc0565b935061181a818560208601611d3c565b80840191505092915050565b6000611833602083611baf565b915061183e82611e6b565b602082019050919050565b6000611856604e83611baf565b915061186182611e94565b606082019050919050565b6000611879601b83611baf565b915061188482611f09565b602082019050919050565b600061189c601783611baf565b91506118a782611f32565b602082019050919050565b60006118bf601083611baf565b91506118ca82611f5b565b602082019050919050565b60006118e2601783611bc0565b91506118ed82611f84565b601782019050919050565b6000611905601183611bc0565b915061191082611fad565b601182019050919050565b6000611928602f83611baf565b915061193382611fd6565b604082019050919050565b61194781611d20565b82525050565b6000611958826118d5565b915061196482856117f5565b915061196f826118f8565b915061197b82846117f5565b91508190509392505050565b600060608201905061199c6000830186611780565b6119a96020830185611780565b6119b6604083018461193e565b949350505050565b600060a0820190506119d36000830188611780565b6119e06020830187611780565b6119ed604083018661193e565b6119fa606083018561193e565b611a076080830184611780565b9695505050505050565b6000604082019050611a266000830185611780565b611a3360208301846117ad565b9392505050565b6000604082019050611a4f6000830185611780565b611a5c602083018461193e565b9392505050565b6000602082019050611a78600083018461178f565b92915050565b6000602082019050611a93600083018461179e565b92915050565b6000604082019050611aae600083018561179e565b611abb6020830184611780565b9392505050565b60006020820190508181036000830152611adc81846117bc565b905092915050565b60006020820190508181036000830152611afd81611826565b9050919050565b60006020820190508181036000830152611b1d81611849565b9050919050565b60006020820190508181036000830152611b3d8161186c565b9050919050565b60006020820190508181036000830152611b5d8161188f565b9050919050565b60006020820190508181036000830152611b7d816118b2565b9050919050565b60006020820190508181036000830152611b9d8161191b565b9050919050565b600081519050919050565b600082825260208201905092915050565b600081905092915050565b6000611bd682611d20565b9150611be183611d20565b9250827fffffffffffffffffffffffffffffffffffffffffffffffffffffffffffffffff03821115611c1657611c15611d99565b5b828201905092915050565b6000611c2c82611d20565b9150611c3783611d20565b925082611c4757611c46611dc8565b5b828204905092915050565b6000611c5d82611d20565b9150611c6883611d20565b9250817fffffffffffffffffffffffffffffffffffffffffffffffffffffffffffffffff0483118215151615611ca157611ca0611d99565b5b828202905092915050565b6000611cb782611d00565b9050919050565b60008115159050919050565b6000819050919050565b60007fffffffff0000000000000000000000000000000000000000000000000000000082169050919050565b600073ffffffffffffffffffffffffffffffffffffffff82169050919050565b6000819050919050565b6000611d3582611d20565b9050919050565b60005b83811015611d5a578082015181840152602081019050611d3f565b83811115611d69576000848401525b50505050565b6000611d7a82611d20565b91506000821415611d8e57611d8d611d99565b5b600182039050919050565b7f4e487b7100000000000000000000000000000000000000000000000000000000600052601160045260246000fd5b7f4e487b7100000000000000000000000000000000000000000000000000000000600052601260045260246000fd5b7f4e487b7100000000000000000000000000000000000000000000000000000000600052603260045260246000fd5b7f4e487b7100000000000000000000000000000000000000000000000000000000600052604160045260246000fd5b600080fd5b6000601f19601f8301169050919050565b7f537472696e67733a20686578206c656e67746820696e73756666696369656e74600082015250565b7f6f6e6c792061646d696e7320616e64206f6e6c792046726967672d697373756560008201527f6420746f6b656e732063616e2062652061646465642074686520746f6b656e2060208201527f746f207468697320726f75746572000000000000000000000000000000000000604082015250565b7f596f752063616e6e6f74206275792077697468203020746f6b656e0000000000600082015250565b7f596f752063616e6e6f742073656c6c203020746f6b656e000000000000000000600082015250565b7f4e65656420612055494420746f6b656e00000000000000000000000000000000600082015250565b7f416363657373436f6e74726f6c3a206163636f756e7420000000000000000000600082015250565b7f206973206d697373696e6720726f6c6520000000000000000000000000000000600082015250565b7f416363657373436f6e74726f6c3a2063616e206f6e6c792072656e6f756e636560008201527f20726f6c657320666f722073656c660000000000000000000000000000000000602082015250565b61202e81611cac565b811461203957600080fd5b50565b61204581611cbe565b811461205057600080fd5b50565b61205c81611cca565b811461206757600080fd5b50565b61207381611cd4565b811461207e57600080fd5b50565b61208a81611d20565b811461209557600080fd5b5056fea2646970667358221220ac79e52f140daf0f4a81c203d00b1fefcd7a53987faa669e44e2c617ecc8f88964736f6c63430008070033",
					"opcodes": "PUSH1 0x80 PUSH1 0x40 MSTORE CALLVALUE DUP1 ISZERO PUSH3 0x11 JUMPI PUSH1 0x0 DUP1 REVERT JUMPDEST POP PUSH1 0x40 MLOAD PUSH3 0x2330 CODESIZE SUB DUP1 PUSH3 0x2330 DUP4 CODECOPY DUP2 DUP2 ADD PUSH1 0x40 MSTORE DUP2 ADD SWAP1 PUSH3 0x37 SWAP2 SWAP1 PUSH3 0x1CD JUMP JUMPDEST PUSH3 0x4C PUSH1 0x0 DUP1 SHL DUP3 PUSH3 0x53 PUSH1 0x20 SHL PUSH1 0x20 SHR JUMP JUMPDEST POP PUSH3 0x252 JUMP JUMPDEST PUSH3 0x65 DUP3 DUP3 PUSH3 0x144 PUSH1 0x20 SHL PUSH1 0x20 SHR JUMP JUMPDEST PUSH3 0x140 JUMPI PUSH1 0x1 PUSH1 0x0 DUP1 DUP5 DUP2 MSTORE PUSH1 0x20 ADD SWAP1 DUP2 MSTORE PUSH1 0x20 ADD PUSH1 0x0 KECCAK256 PUSH1 0x0 ADD PUSH1 0x0 DUP4 PUSH20 0xFFFFFFFFFFFFFFFFFFFFFFFFFFFFFFFFFFFFFFFF AND PUSH20 0xFFFFFFFFFFFFFFFFFFFFFFFFFFFFFFFFFFFFFFFF AND DUP2 MSTORE PUSH1 0x20 ADD SWAP1 DUP2 MSTORE PUSH1 0x20 ADD PUSH1 0x0 KECCAK256 PUSH1 0x0 PUSH2 0x100 EXP DUP2 SLOAD DUP2 PUSH1 0xFF MUL NOT AND SWAP1 DUP4 ISZERO ISZERO MUL OR SWAP1 SSTORE POP PUSH3 0xE5 PUSH3 0x1AE PUSH1 0x20 SHL PUSH1 0x20 SHR JUMP JUMPDEST PUSH20 0xFFFFFFFFFFFFFFFFFFFFFFFFFFFFFFFFFFFFFFFF AND DUP2 PUSH20 0xFFFFFFFFFFFFFFFFFFFFFFFFFFFFFFFFFFFFFFFF AND DUP4 PUSH32 0x2F8788117E7EFF1D82E926EC794901D17C78024A50270940304540A733656F0D PUSH1 0x40 MLOAD PUSH1 0x40 MLOAD DUP1 SWAP2 SUB SWAP1 LOG4 JUMPDEST POP POP JUMP JUMPDEST PUSH1 0x0 DUP1 PUSH1 0x0 DUP5 DUP2 MSTORE PUSH1 0x20 ADD SWAP1 DUP2 MSTORE PUSH1 0x20 ADD PUSH1 0x0 KECCAK256 PUSH1 0x0 ADD PUSH1 0x0 DUP4 PUSH20 0xFFFFFFFFFFFFFFFFFFFFFFFFFFFFFFFFFFFFFFFF AND PUSH20 0xFFFFFFFFFFFFFFFFFFFFFFFFFFFFFFFFFFFFFFFF AND DUP2 MSTORE PUSH1 0x20 ADD SWAP1 DUP2 MSTORE PUSH1 0x20 ADD PUSH1 0x0 KECCAK256 PUSH1 0x0 SWAP1 SLOAD SWAP1 PUSH2 0x100 EXP SWAP1 DIV PUSH1 0xFF AND SWAP1 POP SWAP3 SWAP2 POP POP JUMP JUMPDEST PUSH1 0x0 CALLER SWAP1 POP SWAP1 JUMP JUMPDEST PUSH1 0x0 DUP2 MLOAD SWAP1 POP PUSH3 0x1C7 DUP2 PUSH3 0x238 JUMP JUMPDEST SWAP3 SWAP2 POP POP JUMP JUMPDEST PUSH1 0x0 PUSH1 0x20 DUP3 DUP5 SUB SLT ISZERO PUSH3 0x1E6 JUMPI PUSH3 0x1E5 PUSH3 0x233 JUMP JUMPDEST JUMPDEST PUSH1 0x0 PUSH3 0x1F6 DUP5 DUP3 DUP6 ADD PUSH3 0x1B6 JUMP JUMPDEST SWAP2 POP POP SWAP3 SWAP2 POP POP JUMP JUMPDEST PUSH1 0x0 PUSH3 0x20C DUP3 PUSH3 0x213 JUMP JUMPDEST SWAP1 POP SWAP2 SWAP1 POP JUMP JUMPDEST PUSH1 0x0 PUSH20 0xFFFFFFFFFFFFFFFFFFFFFFFFFFFFFFFFFFFFFFFF DUP3 AND SWAP1 POP SWAP2 SWAP1 POP JUMP JUMPDEST PUSH1 0x0 DUP1 REVERT JUMPDEST PUSH3 0x243 DUP2 PUSH3 0x1FF JUMP JUMPDEST DUP2 EQ PUSH3 0x24F JUMPI PUSH1 0x0 DUP1 REVERT JUMPDEST POP JUMP JUMPDEST PUSH2 0x20CE DUP1 PUSH3 0x262 PUSH1 0x0 CODECOPY PUSH1 0x0 RETURN INVALID PUSH1 0x80 PUSH1 0x40 MSTORE CALLVALUE DUP1 ISZERO PUSH2 0x10 JUMPI PUSH1 0x0 DUP1 REVERT JUMPDEST POP PUSH1 0x4 CALLDATASIZE LT PUSH2 0xA9 JUMPI PUSH1 0x0 CALLDATALOAD PUSH1 0xE0 SHR DUP1 PUSH4 0x4CBE36CE GT PUSH2 0x71 JUMPI DUP1 PUSH4 0x4CBE36CE EQ PUSH2 0x17A JUMPI DUP1 PUSH4 0x6C197FF5 EQ PUSH2 0x196 JUMPI DUP1 PUSH4 0x91D14854 EQ PUSH2 0x1B2 JUMPI DUP1 PUSH4 0xA217FDDF EQ PUSH2 0x1E2 JUMPI DUP1 PUSH4 0xCCE7EC13 EQ PUSH2 0x200 JUMPI DUP1 PUSH4 0xD547741F EQ PUSH2 0x21C JUMPI PUSH2 0xA9 JUMP JUMPDEST DUP1 PUSH4 0x1FFC9A7 EQ PUSH2 0xAE JUMPI DUP1 PUSH4 0x248A9CA3 EQ PUSH2 0xDE JUMPI DUP1 PUSH4 0x27E45C2C EQ PUSH2 0x10E JUMPI DUP1 PUSH4 0x2F2FF15D EQ PUSH2 0x142 JUMPI DUP1 PUSH4 0x36568ABE EQ PUSH2 0x15E JUMPI JUMPDEST PUSH1 0x0 DUP1 REVERT JUMPDEST PUSH2 0xC8 PUSH1 0x4 DUP1 CALLDATASIZE SUB DUP2 ADD SWAP1 PUSH2 0xC3 SWAP2 SWAP1 PUSH2 0x1726 JUMP JUMPDEST PUSH2 0x238 JUMP JUMPDEST PUSH1 0x40 MLOAD PUSH2 0xD5 SWAP2 SWAP1 PUSH2 0x1A63 JUMP JUMPDEST PUSH1 0x40 MLOAD DUP1 SWAP2 SUB SWAP1 RETURN JUMPDEST PUSH2 0xF8 PUSH1 0x4 DUP1 CALLDATASIZE SUB DUP2 ADD SWAP1 PUSH2 0xF3 SWAP2 SWAP1 PUSH2 0x16B9 JUMP JUMPDEST PUSH2 0x2B2 JUMP JUMPDEST PUSH1 0x40 MLOAD PUSH2 0x105 SWAP2 SWAP1 PUSH2 0x1A7E JUMP JUMPDEST PUSH1 0x40 MLOAD DUP1 SWAP2 SUB SWAP1 RETURN JUMPDEST PUSH2 0x128 PUSH1 0x4 DUP1 CALLDATASIZE SUB DUP2 ADD SWAP1 PUSH2 0x123 SWAP2 SWAP1 PUSH2 0x1592 JUMP JUMPDEST PUSH2 0x2D1 JUMP JUMPDEST PUSH1 0x40 MLOAD PUSH2 0x139 SWAP6 SWAP5 SWAP4 SWAP3 SWAP2 SWAP1 PUSH2 0x19BE JUMP JUMPDEST PUSH1 0x40 MLOAD DUP1 SWAP2 SUB SWAP1 RETURN JUMPDEST PUSH2 0x15C PUSH1 0x4 DUP1 CALLDATASIZE SUB DUP2 ADD SWAP1 PUSH2 0x157 SWAP2 SWAP1 PUSH2 0x16E6 JUMP JUMPDEST PUSH2 0x367 JUMP JUMPDEST STOP JUMPDEST PUSH2 0x178 PUSH1 0x4 DUP1 CALLDATASIZE SUB DUP2 ADD SWAP1 PUSH2 0x173 SWAP2 SWAP1 PUSH2 0x16E6 JUMP JUMPDEST PUSH2 0x388 JUMP JUMPDEST STOP JUMPDEST PUSH2 0x194 PUSH1 0x4 DUP1 CALLDATASIZE SUB DUP2 ADD SWAP1 PUSH2 0x18F SWAP2 SWAP1 PUSH2 0x15BF JUMP JUMPDEST PUSH2 0x40B JUMP JUMPDEST STOP JUMPDEST PUSH2 0x1B0 PUSH1 0x4 DUP1 CALLDATASIZE SUB DUP2 ADD SWAP1 PUSH2 0x1AB SWAP2 SWAP1 PUSH2 0x164C JUMP JUMPDEST PUSH2 0x688 JUMP JUMPDEST STOP JUMPDEST PUSH2 0x1CC PUSH1 0x4 DUP1 CALLDATASIZE SUB DUP2 ADD SWAP1 PUSH2 0x1C7 SWAP2 SWAP1 PUSH2 0x16E6 JUMP JUMPDEST PUSH2 0xAF5 JUMP JUMPDEST PUSH1 0x40 MLOAD PUSH2 0x1D9 SWAP2 SWAP1 PUSH2 0x1A63 JUMP JUMPDEST PUSH1 0x40 MLOAD DUP1 SWAP2 SUB SWAP1 RETURN JUMPDEST PUSH2 0x1EA PUSH2 0xB5F JUMP JUMPDEST PUSH1 0x40 MLOAD PUSH2 0x1F7 SWAP2 SWAP1 PUSH2 0x1A7E JUMP JUMPDEST PUSH1 0x40 MLOAD DUP1 SWAP2 SUB SWAP1 RETURN JUMPDEST PUSH2 0x21A PUSH1 0x4 DUP1 CALLDATASIZE SUB DUP2 ADD SWAP1 PUSH2 0x215 SWAP2 SWAP1 PUSH2 0x164C JUMP JUMPDEST PUSH2 0xB66 JUMP JUMPDEST STOP JUMPDEST PUSH2 0x236 PUSH1 0x4 DUP1 CALLDATASIZE SUB DUP2 ADD SWAP1 PUSH2 0x231 SWAP2 SWAP1 PUSH2 0x16E6 JUMP JUMPDEST PUSH2 0xFD3 JUMP JUMPDEST STOP JUMPDEST PUSH1 0x0 PUSH32 0x7965DB0B00000000000000000000000000000000000000000000000000000000 PUSH28 0xFFFFFFFFFFFFFFFFFFFFFFFFFFFFFFFFFFFFFFFFFFFFFFFFFFFFFFFF NOT AND DUP3 PUSH28 0xFFFFFFFFFFFFFFFFFFFFFFFFFFFFFFFFFFFFFFFFFFFFFFFFFFFFFFFF NOT AND EQ DUP1 PUSH2 0x2AB JUMPI POP PUSH2 0x2AA DUP3 PUSH2 0xFF4 JUMP JUMPDEST JUMPDEST SWAP1 POP SWAP2 SWAP1 POP JUMP JUMPDEST PUSH1 0x0 DUP1 PUSH1 0x0 DUP4 DUP2 MSTORE PUSH1 0x20 ADD SWAP1 DUP2 MSTORE PUSH1 0x20 ADD PUSH1 0x0 KECCAK256 PUSH1 0x1 ADD SLOAD SWAP1 POP SWAP2 SWAP1 POP JUMP JUMPDEST PUSH1 0x1 PUSH1 0x20 MSTORE DUP1 PUSH1 0x0 MSTORE PUSH1 0x40 PUSH1 0x0 KECCAK256 PUSH1 0x0 SWAP2 POP SWAP1 POP DUP1 PUSH1 0x0 ADD PUSH1 0x0 SWAP1 SLOAD SWAP1 PUSH2 0x100 EXP SWAP1 DIV PUSH20 0xFFFFFFFFFFFFFFFFFFFFFFFFFFFFFFFFFFFFFFFF AND SWAP1 DUP1 PUSH1 0x1 ADD PUSH1 0x0 SWAP1 SLOAD SWAP1 PUSH2 0x100 EXP SWAP1 DIV PUSH20 0xFFFFFFFFFFFFFFFFFFFFFFFFFFFFFFFFFFFFFFFF AND SWAP1 DUP1 PUSH1 0x2 ADD SLOAD SWAP1 DUP1 PUSH1 0x3 ADD SLOAD SWAP1 DUP1 PUSH1 0x4 ADD PUSH1 0x0 SWAP1 SLOAD SWAP1 PUSH2 0x100 EXP SWAP1 DIV PUSH20 0xFFFFFFFFFFFFFFFFFFFFFFFFFFFFFFFFFFFFFFFF AND SWAP1 POP DUP6 JUMP JUMPDEST PUSH2 0x370 DUP3 PUSH2 0x2B2 JUMP JUMPDEST PUSH2 0x379 DUP2 PUSH2 0x105E JUMP JUMPDEST PUSH2 0x383 DUP4 DUP4 PUSH2 0x1072 JUMP JUMPDEST POP POP POP JUMP JUMPDEST PUSH2 0x390 PUSH2 0x1152 JUMP JUMPDEST PUSH20 0xFFFFFFFFFFFFFFFFFFFFFFFFFFFFFFFFFFFFFFFF AND DUP2 PUSH20 0xFFFFFFFFFFFFFFFFFFFFFFFFFFFFFFFFFFFFFFFF AND EQ PUSH2 0x3FD JUMPI PUSH1 0x40 MLOAD PUSH32 0x8C379A000000000000000000000000000000000000000000000000000000000 DUP2 MSTORE PUSH1 0x4 ADD PUSH2 0x3F4 SWAP1 PUSH2 0x1B84 JUMP JUMPDEST PUSH1 0x40 MLOAD DUP1 SWAP2 SUB SWAP1 REVERT JUMPDEST PUSH2 0x407 DUP3 DUP3 PUSH2 0x115A JUMP JUMPDEST POP POP JUMP JUMPDEST PUSH1 0x0 DUP1 SHL PUSH2 0x418 DUP2 PUSH2 0x105E JUMP JUMPDEST PUSH1 0x0 DUP8 SWAP1 POP DUP1 PUSH20 0xFFFFFFFFFFFFFFFFFFFFFFFFFFFFFFFFFFFFFFFF AND PUSH4 0x91D14854 PUSH1 0x0 DUP1 SHL CALLER PUSH1 0x40 MLOAD DUP4 PUSH4 0xFFFFFFFF AND PUSH1 0xE0 SHL DUP2 MSTORE PUSH1 0x4 ADD PUSH2 0x45B SWAP3 SWAP2 SWAP1 PUSH2 0x1A99 JUMP JUMPDEST PUSH1 0x20 PUSH1 0x40 MLOAD DUP1 DUP4 SUB DUP2 DUP7 DUP1 EXTCODESIZE ISZERO DUP1 ISZERO PUSH2 0x473 JUMPI PUSH1 0x0 DUP1 REVERT JUMPDEST POP GAS STATICCALL ISZERO DUP1 ISZERO PUSH2 0x487 JUMPI RETURNDATASIZE PUSH1 0x0 DUP1 RETURNDATACOPY RETURNDATASIZE PUSH1 0x0 REVERT JUMPDEST POP POP POP POP PUSH1 0x40 MLOAD RETURNDATASIZE PUSH1 0x1F NOT PUSH1 0x1F DUP3 ADD AND DUP3 ADD DUP1 PUSH1 0x40 MSTORE POP DUP2 ADD SWAP1 PUSH2 0x4AB SWAP2 SWAP1 PUSH2 0x168C JUMP JUMPDEST PUSH2 0x4EA JUMPI PUSH1 0x40 MLOAD PUSH32 0x8C379A000000000000000000000000000000000000000000000000000000000 DUP2 MSTORE PUSH1 0x4 ADD PUSH2 0x4E1 SWAP1 PUSH2 0x1B04 JUMP JUMPDEST PUSH1 0x40 MLOAD DUP1 SWAP2 SUB SWAP1 REVERT JUMPDEST PUSH1 0x40 MLOAD DUP1 PUSH1 0xA0 ADD PUSH1 0x40 MSTORE DUP1 DUP8 PUSH20 0xFFFFFFFFFFFFFFFFFFFFFFFFFFFFFFFFFFFFFFFF AND DUP2 MSTORE PUSH1 0x20 ADD DUP9 PUSH20 0xFFFFFFFFFFFFFFFFFFFFFFFFFFFFFFFFFFFFFFFF AND DUP2 MSTORE PUSH1 0x20 ADD DUP7 DUP2 MSTORE PUSH1 0x20 ADD DUP6 DUP2 MSTORE PUSH1 0x20 ADD DUP5 PUSH20 0xFFFFFFFFFFFFFFFFFFFFFFFFFFFFFFFFFFFFFFFF AND DUP2 MSTORE POP PUSH1 0x1 PUSH1 0x0 DUP11 PUSH20 0xFFFFFFFFFFFFFFFFFFFFFFFFFFFFFFFFFFFFFFFF AND PUSH20 0xFFFFFFFFFFFFFFFFFFFFFFFFFFFFFFFFFFFFFFFF AND DUP2 MSTORE PUSH1 0x20 ADD SWAP1 DUP2 MSTORE PUSH1 0x20 ADD PUSH1 0x0 KECCAK256 PUSH1 0x0 DUP3 ADD MLOAD DUP2 PUSH1 0x0 ADD PUSH1 0x0 PUSH2 0x100 EXP DUP2 SLOAD DUP2 PUSH20 0xFFFFFFFFFFFFFFFFFFFFFFFFFFFFFFFFFFFFFFFF MUL NOT AND SWAP1 DUP4 PUSH20 0xFFFFFFFFFFFFFFFFFFFFFFFFFFFFFFFFFFFFFFFF AND MUL OR SWAP1 SSTORE POP PUSH1 0x20 DUP3 ADD MLOAD DUP2 PUSH1 0x1 ADD PUSH1 0x0 PUSH2 0x100 EXP DUP2 SLOAD DUP2 PUSH20 0xFFFFFFFFFFFFFFFFFFFFFFFFFFFFFFFFFFFFFFFF MUL NOT AND SWAP1 DUP4 PUSH20 0xFFFFFFFFFFFFFFFFFFFFFFFFFFFFFFFFFFFFFFFF AND MUL OR SWAP1 SSTORE POP PUSH1 0x40 DUP3 ADD MLOAD DUP2 PUSH1 0x2 ADD SSTORE PUSH1 0x60 DUP3 ADD MLOAD DUP2 PUSH1 0x3 ADD SSTORE PUSH1 0x80 DUP3 ADD MLOAD DUP2 PUSH1 0x4 ADD PUSH1 0x0 PUSH2 0x100 EXP DUP2 SLOAD DUP2 PUSH20 0xFFFFFFFFFFFFFFFFFFFFFFFFFFFFFFFFFFFFFFFF MUL NOT AND SWAP1 DUP4 PUSH20 0xFFFFFFFFFFFFFFFFFFFFFFFFFFFFFFFFFFFFFFFF AND MUL OR SWAP1 SSTORE POP SWAP1 POP POP POP POP POP POP POP POP POP POP JUMP JUMPDEST PUSH1 0x0 DUP2 GT PUSH2 0x6CB JUMPI PUSH1 0x40 MLOAD PUSH32 0x8C379A000000000000000000000000000000000000000000000000000000000 DUP2 MSTORE PUSH1 0x4 ADD PUSH2 0x6C2 SWAP1 PUSH2 0x1B44 JUMP JUMPDEST PUSH1 0x40 MLOAD DUP1 SWAP2 SUB SWAP1 REVERT JUMPDEST PUSH1 0x0 PUSH1 0x1 PUSH1 0x0 DUP5 PUSH20 0xFFFFFFFFFFFFFFFFFFFFFFFFFFFFFFFFFFFFFFFF AND PUSH20 0xFFFFFFFFFFFFFFFFFFFFFFFFFFFFFFFFFFFFFFFF AND DUP2 MSTORE PUSH1 0x20 ADD SWAP1 DUP2 MSTORE PUSH1 0x20 ADD PUSH1 0x0 KECCAK256 PUSH1 0x1 ADD PUSH1 0x0 SWAP1 SLOAD SWAP1 PUSH2 0x100 EXP SWAP1 DIV PUSH20 0xFFFFFFFFFFFFFFFFFFFFFFFFFFFFFFFFFFFFFFFF AND PUSH20 0xFFFFFFFFFFFFFFFFFFFFFFFFFFFFFFFFFFFFFFFF AND PUSH3 0xFDD58E CALLER PUSH1 0x0 PUSH1 0x40 MLOAD DUP4 PUSH4 0xFFFFFFFF AND PUSH1 0xE0 SHL DUP2 MSTORE PUSH1 0x4 ADD PUSH2 0x76A SWAP3 SWAP2 SWAP1 PUSH2 0x1A11 JUMP JUMPDEST PUSH1 0x20 PUSH1 0x40 MLOAD DUP1 DUP4 SUB DUP2 DUP7 DUP1 EXTCODESIZE ISZERO DUP1 ISZERO PUSH2 0x782 JUMPI PUSH1 0x0 DUP1 REVERT JUMPDEST POP GAS STATICCALL ISZERO DUP1 ISZERO PUSH2 0x796 JUMPI RETURNDATASIZE PUSH1 0x0 DUP1 RETURNDATACOPY RETURNDATASIZE PUSH1 0x0 REVERT JUMPDEST POP POP POP POP PUSH1 0x40 MLOAD RETURNDATASIZE PUSH1 0x1F NOT PUSH1 0x1F DUP3 ADD AND DUP3 ADD DUP1 PUSH1 0x40 MSTORE POP DUP2 ADD SWAP1 PUSH2 0x7BA SWAP2 SWAP1 PUSH2 0x1753 JUMP JUMPDEST GT PUSH2 0x7FA JUMPI PUSH1 0x40 MLOAD PUSH32 0x8C379A000000000000000000000000000000000000000000000000000000000 DUP2 MSTORE PUSH1 0x4 ADD PUSH2 0x7F1 SWAP1 PUSH2 0x1B64 JUMP JUMPDEST PUSH1 0x40 MLOAD DUP1 SWAP2 SUB SWAP1 REVERT JUMPDEST PUSH1 0x0 DUP3 SWAP1 POP PUSH1 0x0 PUSH1 0x1 PUSH1 0x0 DUP6 PUSH20 0xFFFFFFFFFFFFFFFFFFFFFFFFFFFFFFFFFFFFFFFF AND PUSH20 0xFFFFFFFFFFFFFFFFFFFFFFFFFFFFFFFFFFFFFFFF AND DUP2 MSTORE PUSH1 0x20 ADD SWAP1 DUP2 MSTORE PUSH1 0x20 ADD PUSH1 0x0 KECCAK256 PUSH1 0x4 ADD PUSH1 0x0 SWAP1 SLOAD SWAP1 PUSH2 0x100 EXP SWAP1 DIV PUSH20 0xFFFFFFFFFFFFFFFFFFFFFFFFFFFFFFFFFFFFFFFF AND SWAP1 POP DUP2 PUSH20 0xFFFFFFFFFFFFFFFFFFFFFFFFFFFFFFFFFFFFFFFF AND PUSH4 0x8058425B PUSH1 0x40 MLOAD DUP2 PUSH4 0xFFFFFFFF AND PUSH1 0xE0 SHL DUP2 MSTORE PUSH1 0x4 ADD PUSH1 0x20 PUSH1 0x40 MLOAD DUP1 DUP4 SUB DUP2 DUP7 DUP1 EXTCODESIZE ISZERO DUP1 ISZERO PUSH2 0x8AC JUMPI PUSH1 0x0 DUP1 REVERT JUMPDEST POP GAS STATICCALL ISZERO DUP1 ISZERO PUSH2 0x8C0 JUMPI RETURNDATASIZE PUSH1 0x0 DUP1 RETURNDATACOPY RETURNDATASIZE PUSH1 0x0 REVERT JUMPDEST POP POP POP POP PUSH1 0x40 MLOAD RETURNDATASIZE PUSH1 0x1F NOT PUSH1 0x1F DUP3 ADD AND DUP3 ADD DUP1 PUSH1 0x40 MSTORE POP DUP2 ADD SWAP1 PUSH2 0x8E4 SWAP2 SWAP1 PUSH2 0x168C JUMP JUMPDEST PUSH2 0x8ED JUMPI PUSH1 0x0 DUP1 REVERT JUMPDEST DUP2 PUSH20 0xFFFFFFFFFFFFFFFFFFFFFFFFFFFFFFFFFFFFFFFF AND PUSH4 0x9DC29FAC CALLER DUP6 PUSH1 0x40 MLOAD DUP4 PUSH4 0xFFFFFFFF AND PUSH1 0xE0 SHL DUP2 MSTORE PUSH1 0x4 ADD PUSH2 0x928 SWAP3 SWAP2 SWAP1 PUSH2 0x1A3A JUMP JUMPDEST PUSH1 0x0 PUSH1 0x40 MLOAD DUP1 DUP4 SUB DUP2 PUSH1 0x0 DUP8 DUP1 EXTCODESIZE ISZERO DUP1 ISZERO PUSH2 0x942 JUMPI PUSH1 0x0 DUP1 REVERT JUMPDEST POP GAS CALL ISZERO DUP1 ISZERO PUSH2 0x956 JUMPI RETURNDATASIZE PUSH1 0x0 DUP1 RETURNDATACOPY RETURNDATASIZE PUSH1 0x0 REVERT JUMPDEST POP POP POP POP PUSH1 0x0 PUSH1 0x1 PUSH1 0x0 DUP7 PUSH20 0xFFFFFFFFFFFFFFFFFFFFFFFFFFFFFFFFFFFFFFFF AND PUSH20 0xFFFFFFFFFFFFFFFFFFFFFFFFFFFFFFFFFFFFFFFF AND DUP2 MSTORE PUSH1 0x20 ADD SWAP1 DUP2 MSTORE PUSH1 0x20 ADD PUSH1 0x0 KECCAK256 PUSH1 0x3 ADD SLOAD DUP5 PUSH2 0x9AA SWAP2 SWAP1 PUSH2 0x1C21 JUMP JUMPDEST SWAP1 POP DUP2 PUSH20 0xFFFFFFFFFFFFFFFFFFFFFFFFFFFFFFFFFFFFFFFF AND PUSH4 0x23B872DD PUSH1 0x1 PUSH1 0x0 DUP9 PUSH20 0xFFFFFFFFFFFFFFFFFFFFFFFFFFFFFFFFFFFFFFFF AND PUSH20 0xFFFFFFFFFFFFFFFFFFFFFFFFFFFFFFFFFFFFFFFF AND DUP2 MSTORE PUSH1 0x20 ADD SWAP1 DUP2 MSTORE PUSH1 0x20 ADD PUSH1 0x0 KECCAK256 PUSH1 0x0 ADD PUSH1 0x0 SWAP1 SLOAD SWAP1 PUSH2 0x100 EXP SWAP1 DIV PUSH20 0xFFFFFFFFFFFFFFFFFFFFFFFFFFFFFFFFFFFFFFFF AND CALLER DUP5 PUSH1 0x40 MLOAD DUP5 PUSH4 0xFFFFFFFF AND PUSH1 0xE0 SHL DUP2 MSTORE PUSH1 0x4 ADD PUSH2 0xA4B SWAP4 SWAP3 SWAP2 SWAP1 PUSH2 0x1987 JUMP JUMPDEST PUSH1 0x20 PUSH1 0x40 MLOAD DUP1 DUP4 SUB DUP2 PUSH1 0x0 DUP8 DUP1 EXTCODESIZE ISZERO DUP1 ISZERO PUSH2 0xA65 JUMPI PUSH1 0x0 DUP1 REVERT JUMPDEST POP GAS CALL ISZERO DUP1 ISZERO PUSH2 0xA79 JUMPI RETURNDATASIZE PUSH1 0x0 DUP1 RETURNDATACOPY RETURNDATASIZE PUSH1 0x0 REVERT JUMPDEST POP POP POP POP PUSH1 0x40 MLOAD RETURNDATASIZE PUSH1 0x1F NOT PUSH1 0x1F DUP3 ADD AND DUP3 ADD DUP1 PUSH1 0x40 MSTORE POP DUP2 ADD SWAP1 PUSH2 0xA9D SWAP2 SWAP1 PUSH2 0x168C JUMP JUMPDEST POP CALLER PUSH20 0xFFFFFFFFFFFFFFFFFFFFFFFFFFFFFFFFFFFFFFFF AND PUSH32 0x165E50ED3A693F2FF4DCC70A4835F65CE8E0FBB700BA9C2DDB0AA07E06FA479E DUP7 DUP7 PUSH1 0x40 MLOAD PUSH2 0xAE6 SWAP3 SWAP2 SWAP1 PUSH2 0x1A3A JUMP JUMPDEST PUSH1 0x40 MLOAD DUP1 SWAP2 SUB SWAP1 LOG2 POP POP POP POP POP JUMP JUMPDEST PUSH1 0x0 DUP1 PUSH1 0x0 DUP5 DUP2 MSTORE PUSH1 0x20 ADD SWAP1 DUP2 MSTORE PUSH1 0x20 ADD PUSH1 0x0 KECCAK256 PUSH1 0x0 ADD PUSH1 0x0 DUP4 PUSH20 0xFFFFFFFFFFFFFFFFFFFFFFFFFFFFFFFFFFFFFFFF AND PUSH20 0xFFFFFFFFFFFFFFFFFFFFFFFFFFFFFFFFFFFFFFFF AND DUP2 MSTORE PUSH1 0x20 ADD SWAP1 DUP2 MSTORE PUSH1 0x20 ADD PUSH1 0x0 KECCAK256 PUSH1 0x0 SWAP1 SLOAD SWAP1 PUSH2 0x100 EXP SWAP1 DIV PUSH1 0xFF AND SWAP1 POP SWAP3 SWAP2 POP POP JUMP JUMPDEST PUSH1 0x0 DUP1 SHL DUP2 JUMP JUMPDEST PUSH1 0x0 DUP2 GT PUSH2 0xBA9 JUMPI PUSH1 0x40 MLOAD PUSH32 0x8C379A000000000000000000000000000000000000000000000000000000000 DUP2 MSTORE PUSH1 0x4 ADD PUSH2 0xBA0 SWAP1 PUSH2 0x1B24 JUMP JUMPDEST PUSH1 0x40 MLOAD DUP1 SWAP2 SUB SWAP1 REVERT JUMPDEST PUSH1 0x0 PUSH1 0x1 PUSH1 0x0 DUP5 PUSH20 0xFFFFFFFFFFFFFFFFFFFFFFFFFFFFFFFFFFFFFFFF AND PUSH20 0xFFFFFFFFFFFFFFFFFFFFFFFFFFFFFFFFFFFFFFFF AND DUP2 MSTORE PUSH1 0x20 ADD SWAP1 DUP2 MSTORE PUSH1 0x20 ADD PUSH1 0x0 KECCAK256 PUSH1 0x1 ADD PUSH1 0x0 SWAP1 SLOAD SWAP1 PUSH2 0x100 EXP SWAP1 DIV PUSH20 0xFFFFFFFFFFFFFFFFFFFFFFFFFFFFFFFFFFFFFFFF AND PUSH20 0xFFFFFFFFFFFFFFFFFFFFFFFFFFFFFFFFFFFFFFFF AND PUSH3 0xFDD58E CALLER PUSH1 0x0 PUSH1 0x40 MLOAD DUP4 PUSH4 0xFFFFFFFF AND PUSH1 0xE0 SHL DUP2 MSTORE PUSH1 0x4 ADD PUSH2 0xC48 SWAP3 SWAP2 SWAP1 PUSH2 0x1A11 JUMP JUMPDEST PUSH1 0x20 PUSH1 0x40 MLOAD DUP1 DUP4 SUB DUP2 DUP7 DUP1 EXTCODESIZE ISZERO DUP1 ISZERO PUSH2 0xC60 JUMPI PUSH1 0x0 DUP1 REVERT JUMPDEST POP GAS STATICCALL ISZERO DUP1 ISZERO PUSH2 0xC74 JUMPI RETURNDATASIZE PUSH1 0x0 DUP1 RETURNDATACOPY RETURNDATASIZE PUSH1 0x0 REVERT JUMPDEST POP POP POP POP PUSH1 0x40 MLOAD RETURNDATASIZE PUSH1 0x1F NOT PUSH1 0x1F DUP3 ADD AND DUP3 ADD DUP1 PUSH1 0x40 MSTORE POP DUP2 ADD SWAP1 PUSH2 0xC98 SWAP2 SWAP1 PUSH2 0x1753 JUMP JUMPDEST GT PUSH2 0xCD8 JUMPI PUSH1 0x40 MLOAD PUSH32 0x8C379A000000000000000000000000000000000000000000000000000000000 DUP2 MSTORE PUSH1 0x4 ADD PUSH2 0xCCF SWAP1 PUSH2 0x1B64 JUMP JUMPDEST PUSH1 0x40 MLOAD DUP1 SWAP2 SUB SWAP1 REVERT JUMPDEST PUSH1 0x0 PUSH1 0x1 PUSH1 0x0 DUP5 PUSH20 0xFFFFFFFFFFFFFFFFFFFFFFFFFFFFFFFFFFFFFFFF AND PUSH20 0xFFFFFFFFFFFFFFFFFFFFFFFFFFFFFFFFFFFFFFFF AND DUP2 MSTORE PUSH1 0x20 ADD SWAP1 DUP2 MSTORE PUSH1 0x20 ADD PUSH1 0x0 KECCAK256 PUSH1 0x4 ADD PUSH1 0x0 SWAP1 SLOAD SWAP1 PUSH2 0x100 EXP SWAP1 DIV PUSH20 0xFFFFFFFFFFFFFFFFFFFFFFFFFFFFFFFFFFFFFFFF AND SWAP1 POP PUSH1 0x0 DUP4 SWAP1 POP DUP1 PUSH20 0xFFFFFFFFFFFFFFFFFFFFFFFFFFFFFFFFFFFFFFFF AND PUSH4 0x2E873BAC PUSH1 0x40 MLOAD DUP2 PUSH4 0xFFFFFFFF AND PUSH1 0xE0 SHL DUP2 MSTORE PUSH1 0x4 ADD PUSH1 0x20 PUSH1 0x40 MLOAD DUP1 DUP4 SUB DUP2 DUP7 DUP1 EXTCODESIZE ISZERO DUP1 ISZERO PUSH2 0xD8A JUMPI PUSH1 0x0 DUP1 REVERT JUMPDEST POP GAS STATICCALL ISZERO DUP1 ISZERO PUSH2 0xD9E JUMPI RETURNDATASIZE PUSH1 0x0 DUP1 RETURNDATACOPY RETURNDATASIZE PUSH1 0x0 REVERT JUMPDEST POP POP POP POP PUSH1 0x40 MLOAD RETURNDATASIZE PUSH1 0x1F NOT PUSH1 0x1F DUP3 ADD AND DUP3 ADD DUP1 PUSH1 0x40 MSTORE POP DUP2 ADD SWAP1 PUSH2 0xDC2 SWAP2 SWAP1 PUSH2 0x168C JUMP JUMPDEST PUSH2 0xDCB JUMPI PUSH1 0x0 DUP1 REVERT JUMPDEST DUP2 PUSH20 0xFFFFFFFFFFFFFFFFFFFFFFFFFFFFFFFFFFFFFFFF AND PUSH4 0x23B872DD CALLER PUSH1 0x1 PUSH1 0x0 DUP9 PUSH20 0xFFFFFFFFFFFFFFFFFFFFFFFFFFFFFFFFFFFFFFFF AND PUSH20 0xFFFFFFFFFFFFFFFFFFFFFFFFFFFFFFFFFFFFFFFF AND DUP2 MSTORE PUSH1 0x20 ADD SWAP1 DUP2 MSTORE PUSH1 0x20 ADD PUSH1 0x0 KECCAK256 PUSH1 0x0 ADD PUSH1 0x0 SWAP1 SLOAD SWAP1 PUSH2 0x100 EXP SWAP1 DIV PUSH20 0xFFFFFFFFFFFFFFFFFFFFFFFFFFFFFFFFFFFFFFFF AND DUP7 PUSH1 0x40 MLOAD DUP5 PUSH4 0xFFFFFFFF AND PUSH1 0xE0 SHL DUP2 MSTORE PUSH1 0x4 ADD PUSH2 0xE6A SWAP4 SWAP3 SWAP2 SWAP1 PUSH2 0x1987 JUMP JUMPDEST PUSH1 0x20 PUSH1 0x40 MLOAD DUP1 DUP4 SUB DUP2 PUSH1 0x0 DUP8 DUP1 EXTCODESIZE ISZERO DUP1 ISZERO PUSH2 0xE84 JUMPI PUSH1 0x0 DUP1 REVERT JUMPDEST POP GAS CALL ISZERO DUP1 ISZERO PUSH2 0xE98 JUMPI RETURNDATASIZE PUSH1 0x0 DUP1 RETURNDATACOPY RETURNDATASIZE PUSH1 0x0 REVERT JUMPDEST POP POP POP POP PUSH1 0x40 MLOAD RETURNDATASIZE PUSH1 0x1F NOT PUSH1 0x1F DUP3 ADD AND DUP3 ADD DUP1 PUSH1 0x40 MSTORE POP DUP2 ADD SWAP1 PUSH2 0xEBC SWAP2 SWAP1 PUSH2 0x168C JUMP JUMPDEST POP PUSH1 0x0 PUSH1 0x1 PUSH1 0x0 DUP7 PUSH20 0xFFFFFFFFFFFFFFFFFFFFFFFFFFFFFFFFFFFFFFFF AND PUSH20 0xFFFFFFFFFFFFFFFFFFFFFFFFFFFFFFFFFFFFFFFF AND DUP2 MSTORE PUSH1 0x20 ADD SWAP1 DUP2 MSTORE PUSH1 0x20 ADD PUSH1 0x0 KECCAK256 PUSH1 0x2 ADD SLOAD DUP5 PUSH2 0xF0D SWAP2 SWAP1 PUSH2 0x1C52 JUMP JUMPDEST SWAP1 POP DUP2 PUSH20 0xFFFFFFFFFFFFFFFFFFFFFFFFFFFFFFFFFFFFFFFF AND PUSH4 0x40C10F19 CALLER DUP4 PUSH1 0x40 MLOAD DUP4 PUSH4 0xFFFFFFFF AND PUSH1 0xE0 SHL DUP2 MSTORE PUSH1 0x4 ADD PUSH2 0xF4A SWAP3 SWAP2 SWAP1 PUSH2 0x1A3A JUMP JUMPDEST PUSH1 0x0 PUSH1 0x40 MLOAD DUP1 DUP4 SUB DUP2 PUSH1 0x0 DUP8 DUP1 EXTCODESIZE ISZERO DUP1 ISZERO PUSH2 0xF64 JUMPI PUSH1 0x0 DUP1 REVERT JUMPDEST POP GAS CALL ISZERO DUP1 ISZERO PUSH2 0xF78 JUMPI RETURNDATASIZE PUSH1 0x0 DUP1 RETURNDATACOPY RETURNDATASIZE PUSH1 0x0 REVERT JUMPDEST POP POP POP POP CALLER PUSH20 0xFFFFFFFFFFFFFFFFFFFFFFFFFFFFFFFFFFFFFFFF AND PUSH32 0xC676E61B1E79D2FB537A623C39C425429B06C3309E0F79E72AC1DCCC697031B5 DUP7 DUP7 PUSH1 0x40 MLOAD PUSH2 0xFC4 SWAP3 SWAP2 SWAP1 PUSH2 0x1A3A JUMP JUMPDEST PUSH1 0x40 MLOAD DUP1 SWAP2 SUB SWAP1 LOG2 POP POP POP POP POP JUMP JUMPDEST PUSH2 0xFDC DUP3 PUSH2 0x2B2 JUMP JUMPDEST PUSH2 0xFE5 DUP2 PUSH2 0x105E JUMP JUMPDEST PUSH2 0xFEF DUP4 DUP4 PUSH2 0x115A JUMP JUMPDEST POP POP POP JUMP JUMPDEST PUSH1 0x0 PUSH32 0x1FFC9A700000000000000000000000000000000000000000000000000000000 PUSH28 0xFFFFFFFFFFFFFFFFFFFFFFFFFFFFFFFFFFFFFFFFFFFFFFFFFFFFFFFF NOT AND DUP3 PUSH28 0xFFFFFFFFFFFFFFFFFFFFFFFFFFFFFFFFFFFFFFFFFFFFFFFFFFFFFFFF NOT AND EQ SWAP1 POP SWAP2 SWAP1 POP JUMP JUMPDEST PUSH2 0x106F DUP2 PUSH2 0x106A PUSH2 0x1152 JUMP JUMPDEST PUSH2 0x123B JUMP JUMPDEST POP JUMP JUMPDEST PUSH2 0x107C DUP3 DUP3 PUSH2 0xAF5 JUMP JUMPDEST PUSH2 0x114E JUMPI PUSH1 0x1 PUSH1 0x0 DUP1 DUP5 DUP2 MSTORE PUSH1 0x20 ADD SWAP1 DUP2 MSTORE PUSH1 0x20 ADD PUSH1 0x0 KECCAK256 PUSH1 0x0 ADD PUSH1 0x0 DUP4 PUSH20 0xFFFFFFFFFFFFFFFFFFFFFFFFFFFFFFFFFFFFFFFF AND PUSH20 0xFFFFFFFFFFFFFFFFFFFFFFFFFFFFFFFFFFFFFFFF AND DUP2 MSTORE PUSH1 0x20 ADD SWAP1 DUP2 MSTORE PUSH1 0x20 ADD PUSH1 0x0 KECCAK256 PUSH1 0x0 PUSH2 0x100 EXP DUP2 SLOAD DUP2 PUSH1 0xFF MUL NOT AND SWAP1 DUP4 ISZERO ISZERO MUL OR SWAP1 SSTORE POP PUSH2 0x10F3 PUSH2 0x1152 JUMP JUMPDEST PUSH20 0xFFFFFFFFFFFFFFFFFFFFFFFFFFFFFFFFFFFFFFFF AND DUP2 PUSH20 0xFFFFFFFFFFFFFFFFFFFFFFFFFFFFFFFFFFFFFFFF AND DUP4 PUSH32 0x2F8788117E7EFF1D82E926EC794901D17C78024A50270940304540A733656F0D PUSH1 0x40 MLOAD PUSH1 0x40 MLOAD DUP1 SWAP2 SUB SWAP1 LOG4 JUMPDEST POP POP JUMP JUMPDEST PUSH1 0x0 CALLER SWAP1 POP SWAP1 JUMP JUMPDEST PUSH2 0x1164 DUP3 DUP3 PUSH2 0xAF5 JUMP JUMPDEST ISZERO PUSH2 0x1237 JUMPI PUSH1 0x0 DUP1 PUSH1 0x0 DUP5 DUP2 MSTORE PUSH1 0x20 ADD SWAP1 DUP2 MSTORE PUSH1 0x20 ADD PUSH1 0x0 KECCAK256 PUSH1 0x0 ADD PUSH1 0x0 DUP4 PUSH20 0xFFFFFFFFFFFFFFFFFFFFFFFFFFFFFFFFFFFFFFFF AND PUSH20 0xFFFFFFFFFFFFFFFFFFFFFFFFFFFFFFFFFFFFFFFF AND DUP2 MSTORE PUSH1 0x20 ADD SWAP1 DUP2 MSTORE PUSH1 0x20 ADD PUSH1 0x0 KECCAK256 PUSH1 0x0 PUSH2 0x100 EXP DUP2 SLOAD DUP2 PUSH1 0xFF MUL NOT AND SWAP1 DUP4 ISZERO ISZERO MUL OR SWAP1 SSTORE POP PUSH2 0x11DC PUSH2 0x1152 JUMP JUMPDEST PUSH20 0xFFFFFFFFFFFFFFFFFFFFFFFFFFFFFFFFFFFFFFFF AND DUP2 PUSH20 0xFFFFFFFFFFFFFFFFFFFFFFFFFFFFFFFFFFFFFFFF AND DUP4 PUSH32 0xF6391F5C32D9C69D2A47EA670B442974B53935D1EDC7FD64EB21E047A839171B PUSH1 0x40 MLOAD PUSH1 0x40 MLOAD DUP1 SWAP2 SUB SWAP1 LOG4 JUMPDEST POP POP JUMP JUMPDEST PUSH2 0x1245 DUP3 DUP3 PUSH2 0xAF5 JUMP JUMPDEST PUSH2 0x12D4 JUMPI PUSH2 0x126A DUP2 PUSH20 0xFFFFFFFFFFFFFFFFFFFFFFFFFFFFFFFFFFFFFFFF AND PUSH1 0x14 PUSH2 0x12D8 JUMP JUMPDEST PUSH2 0x1278 DUP4 PUSH1 0x0 SHR PUSH1 0x20 PUSH2 0x12D8 JUMP JUMPDEST PUSH1 0x40 MLOAD PUSH1 0x20 ADD PUSH2 0x1289 SWAP3 SWAP2 SWAP1 PUSH2 0x194D JUMP JUMPDEST PUSH1 0x40 MLOAD PUSH1 0x20 DUP2 DUP4 SUB SUB DUP2 MSTORE SWAP1 PUSH1 0x40 MSTORE PUSH1 0x40 MLOAD PUSH32 0x8C379A000000000000000000000000000000000000000000000000000000000 DUP2 MSTORE PUSH1 0x4 ADD PUSH2 0x12CB SWAP2 SWAP1 PUSH2 0x1AC2 JUMP JUMPDEST PUSH1 0x40 MLOAD DUP1 SWAP2 SUB SWAP1 REVERT JUMPDEST POP POP JUMP JUMPDEST PUSH1 0x60 PUSH1 0x0 PUSH1 0x2 DUP4 PUSH1 0x2 PUSH2 0x12EB SWAP2 SWAP1 PUSH2 0x1C52 JUMP JUMPDEST PUSH2 0x12F5 SWAP2 SWAP1 PUSH2 0x1BCB JUMP JUMPDEST PUSH8 0xFFFFFFFFFFFFFFFF DUP2 GT ISZERO PUSH2 0x130E JUMPI PUSH2 0x130D PUSH2 0x1E26 JUMP JUMPDEST JUMPDEST PUSH1 0x40 MLOAD SWAP1 DUP1 DUP3 MSTORE DUP1 PUSH1 0x1F ADD PUSH1 0x1F NOT AND PUSH1 0x20 ADD DUP3 ADD PUSH1 0x40 MSTORE DUP1 ISZERO PUSH2 0x1340 JUMPI DUP2 PUSH1 0x20 ADD PUSH1 0x1 DUP3 MUL DUP1 CALLDATASIZE DUP4 CALLDATACOPY DUP1 DUP3 ADD SWAP2 POP POP SWAP1 POP JUMPDEST POP SWAP1 POP PUSH32 0x3000000000000000000000000000000000000000000000000000000000000000 DUP2 PUSH1 0x0 DUP2 MLOAD DUP2 LT PUSH2 0x1378 JUMPI PUSH2 0x1377 PUSH2 0x1DF7 JUMP JUMPDEST JUMPDEST PUSH1 0x20 ADD ADD SWAP1 PUSH31 0xFFFFFFFFFFFFFFFFFFFFFFFFFFFFFFFFFFFFFFFFFFFFFFFFFFFFFFFFFFFFFF NOT AND SWAP1 DUP2 PUSH1 0x0 BYTE SWAP1 MSTORE8 POP PUSH32 0x7800000000000000000000000000000000000000000000000000000000000000 DUP2 PUSH1 0x1 DUP2 MLOAD DUP2 LT PUSH2 0x13DC JUMPI PUSH2 0x13DB PUSH2 0x1DF7 JUMP JUMPDEST JUMPDEST PUSH1 0x20 ADD ADD SWAP1 PUSH31 0xFFFFFFFFFFFFFFFFFFFFFFFFFFFFFFFFFFFFFFFFFFFFFFFFFFFFFFFFFFFFFF NOT AND SWAP1 DUP2 PUSH1 0x0 BYTE SWAP1 MSTORE8 POP PUSH1 0x0 PUSH1 0x1 DUP5 PUSH1 0x2 PUSH2 0x141C SWAP2 SWAP1 PUSH2 0x1C52 JUMP JUMPDEST PUSH2 0x1426 SWAP2 SWAP1 PUSH2 0x1BCB JUMP JUMPDEST SWAP1 POP JUMPDEST PUSH1 0x1 DUP2 GT ISZERO PUSH2 0x14C6 JUMPI PUSH32 0x3031323334353637383961626364656600000000000000000000000000000000 PUSH1 0xF DUP7 AND PUSH1 0x10 DUP2 LT PUSH2 0x1468 JUMPI PUSH2 0x1467 PUSH2 0x1DF7 JUMP JUMPDEST JUMPDEST BYTE PUSH1 0xF8 SHL DUP3 DUP3 DUP2 MLOAD DUP2 LT PUSH2 0x147F JUMPI PUSH2 0x147E PUSH2 0x1DF7 JUMP JUMPDEST JUMPDEST PUSH1 0x20 ADD ADD SWAP1 PUSH31 0xFFFFFFFFFFFFFFFFFFFFFFFFFFFFFFFFFFFFFFFFFFFFFFFFFFFFFFFFFFFFFF NOT AND SWAP1 DUP2 PUSH1 0x0 BYTE SWAP1 MSTORE8 POP PUSH1 0x4 DUP6 SWAP1 SHR SWAP5 POP DUP1 PUSH2 0x14BF SWAP1 PUSH2 0x1D6F JUMP JUMPDEST SWAP1 POP PUSH2 0x1429 JUMP JUMPDEST POP PUSH1 0x0 DUP5 EQ PUSH2 0x150A JUMPI PUSH1 0x40 MLOAD PUSH32 0x8C379A000000000000000000000000000000000000000000000000000000000 DUP2 MSTORE PUSH1 0x4 ADD PUSH2 0x1501 SWAP1 PUSH2 0x1AE4 JUMP JUMPDEST PUSH1 0x40 MLOAD DUP1 SWAP2 SUB SWAP1 REVERT JUMPDEST DUP1 SWAP2 POP POP SWAP3 SWAP2 POP POP JUMP JUMPDEST PUSH1 0x0 DUP2 CALLDATALOAD SWAP1 POP PUSH2 0x1523 DUP2 PUSH2 0x2025 JUMP JUMPDEST SWAP3 SWAP2 POP POP JUMP JUMPDEST PUSH1 0x0 DUP2 MLOAD SWAP1 POP PUSH2 0x1538 DUP2 PUSH2 0x203C JUMP JUMPDEST SWAP3 SWAP2 POP POP JUMP JUMPDEST PUSH1 0x0 DUP2 CALLDATALOAD SWAP1 POP PUSH2 0x154D DUP2 PUSH2 0x2053 JUMP JUMPDEST SWAP3 SWAP2 POP POP JUMP JUMPDEST PUSH1 0x0 DUP2 CALLDATALOAD SWAP1 POP PUSH2 0x1562 DUP2 PUSH2 0x206A JUMP JUMPDEST SWAP3 SWAP2 POP POP JUMP JUMPDEST PUSH1 0x0 DUP2 CALLDATALOAD SWAP1 POP PUSH2 0x1577 DUP2 PUSH2 0x2081 JUMP JUMPDEST SWAP3 SWAP2 POP POP JUMP JUMPDEST PUSH1 0x0 DUP2 MLOAD SWAP1 POP PUSH2 0x158C DUP2 PUSH2 0x2081 JUMP JUMPDEST SWAP3 SWAP2 POP POP JUMP JUMPDEST PUSH1 0x0 PUSH1 0x20 DUP3 DUP5 SUB SLT ISZERO PUSH2 0x15A8 JUMPI PUSH2 0x15A7 PUSH2 0x1E55 JUMP JUMPDEST JUMPDEST PUSH1 0x0 PUSH2 0x15B6 DUP5 DUP3 DUP6 ADD PUSH2 0x1514 JUMP JUMPDEST SWAP2 POP POP SWAP3 SWAP2 POP POP JUMP JUMPDEST PUSH1 0x0 DUP1 PUSH1 0x0 DUP1 PUSH1 0x0 DUP1 PUSH1 0xC0 DUP8 DUP10 SUB SLT ISZERO PUSH2 0x15DC JUMPI PUSH2 0x15DB PUSH2 0x1E55 JUMP JUMPDEST JUMPDEST PUSH1 0x0 PUSH2 0x15EA DUP10 DUP3 DUP11 ADD PUSH2 0x1514 JUMP JUMPDEST SWAP7 POP POP PUSH1 0x20 PUSH2 0x15FB DUP10 DUP3 DUP11 ADD PUSH2 0x1514 JUMP JUMPDEST SWAP6 POP POP PUSH1 0x40 PUSH2 0x160C DUP10 DUP3 DUP11 ADD PUSH2 0x1514 JUMP JUMPDEST SWAP5 POP POP PUSH1 0x60 PUSH2 0x161D DUP10 DUP3 DUP11 ADD PUSH2 0x1568 JUMP JUMPDEST SWAP4 POP POP PUSH1 0x80 PUSH2 0x162E DUP10 DUP3 DUP11 ADD PUSH2 0x1568 JUMP JUMPDEST SWAP3 POP POP PUSH1 0xA0 PUSH2 0x163F DUP10 DUP3 DUP11 ADD PUSH2 0x1514 JUMP JUMPDEST SWAP2 POP POP SWAP3 SWAP6 POP SWAP3 SWAP6 POP SWAP3 SWAP6 JUMP JUMPDEST PUSH1 0x0 DUP1 PUSH1 0x40 DUP4 DUP6 SUB SLT ISZERO PUSH2 0x1663 JUMPI PUSH2 0x1662 PUSH2 0x1E55 JUMP JUMPDEST JUMPDEST PUSH1 0x0 PUSH2 0x1671 DUP6 DUP3 DUP7 ADD PUSH2 0x1514 JUMP JUMPDEST SWAP3 POP POP PUSH1 0x20 PUSH2 0x1682 DUP6 DUP3 DUP7 ADD PUSH2 0x1568 JUMP JUMPDEST SWAP2 POP POP SWAP3 POP SWAP3 SWAP1 POP JUMP JUMPDEST PUSH1 0x0 PUSH1 0x20 DUP3 DUP5 SUB SLT ISZERO PUSH2 0x16A2 JUMPI PUSH2 0x16A1 PUSH2 0x1E55 JUMP JUMPDEST JUMPDEST PUSH1 0x0 PUSH2 0x16B0 DUP5 DUP3 DUP6 ADD PUSH2 0x1529 JUMP JUMPDEST SWAP2 POP POP SWAP3 SWAP2 POP POP JUMP JUMPDEST PUSH1 0x0 PUSH1 0x20 DUP3 DUP5 SUB SLT ISZERO PUSH2 0x16CF JUMPI PUSH2 0x16CE PUSH2 0x1E55 JUMP JUMPDEST JUMPDEST PUSH1 0x0 PUSH2 0x16DD DUP5 DUP3 DUP6 ADD PUSH2 0x153E JUMP JUMPDEST SWAP2 POP POP SWAP3 SWAP2 POP POP JUMP JUMPDEST PUSH1 0x0 DUP1 PUSH1 0x40 DUP4 DUP6 SUB SLT ISZERO PUSH2 0x16FD JUMPI PUSH2 0x16FC PUSH2 0x1E55 JUMP JUMPDEST JUMPDEST PUSH1 0x0 PUSH2 0x170B DUP6 DUP3 DUP7 ADD PUSH2 0x153E JUMP JUMPDEST SWAP3 POP POP PUSH1 0x20 PUSH2 0x171C DUP6 DUP3 DUP7 ADD PUSH2 0x1514 JUMP JUMPDEST SWAP2 POP POP SWAP3 POP SWAP3 SWAP1 POP JUMP JUMPDEST PUSH1 0x0 PUSH1 0x20 DUP3 DUP5 SUB SLT ISZERO PUSH2 0x173C JUMPI PUSH2 0x173B PUSH2 0x1E55 JUMP JUMPDEST JUMPDEST PUSH1 0x0 PUSH2 0x174A DUP5 DUP3 DUP6 ADD PUSH2 0x1553 JUMP JUMPDEST SWAP2 POP POP SWAP3 SWAP2 POP POP JUMP JUMPDEST PUSH1 0x0 PUSH1 0x20 DUP3 DUP5 SUB SLT ISZERO PUSH2 0x1769 JUMPI PUSH2 0x1768 PUSH2 0x1E55 JUMP JUMPDEST JUMPDEST PUSH1 0x0 PUSH2 0x1777 DUP5 DUP3 DUP6 ADD PUSH2 0x157D JUMP JUMPDEST SWAP2 POP POP SWAP3 SWAP2 POP POP JUMP JUMPDEST PUSH2 0x1789 DUP2 PUSH2 0x1CAC JUMP JUMPDEST DUP3 MSTORE POP POP JUMP JUMPDEST PUSH2 0x1798 DUP2 PUSH2 0x1CBE JUMP JUMPDEST DUP3 MSTORE POP POP JUMP JUMPDEST PUSH2 0x17A7 DUP2 PUSH2 0x1CCA JUMP JUMPDEST DUP3 MSTORE POP POP JUMP JUMPDEST PUSH2 0x17B6 DUP2 PUSH2 0x1D2A JUMP JUMPDEST DUP3 MSTORE POP POP JUMP JUMPDEST PUSH1 0x0 PUSH2 0x17C7 DUP3 PUSH2 0x1BA4 JUMP JUMPDEST PUSH2 0x17D1 DUP2 DUP6 PUSH2 0x1BAF JUMP JUMPDEST SWAP4 POP PUSH2 0x17E1 DUP2 DUP6 PUSH1 0x20 DUP7 ADD PUSH2 0x1D3C JUMP JUMPDEST PUSH2 0x17EA DUP2 PUSH2 0x1E5A JUMP JUMPDEST DUP5 ADD SWAP2 POP POP SWAP3 SWAP2 POP POP JUMP JUMPDEST PUSH1 0x0 PUSH2 0x1800 DUP3 PUSH2 0x1BA4 JUMP JUMPDEST PUSH2 0x180A DUP2 DUP6 PUSH2 0x1BC0 JUMP JUMPDEST SWAP4 POP PUSH2 0x181A DUP2 DUP6 PUSH1 0x20 DUP7 ADD PUSH2 0x1D3C JUMP JUMPDEST DUP1 DUP5 ADD SWAP2 POP POP SWAP3 SWAP2 POP POP JUMP JUMPDEST PUSH1 0x0 PUSH2 0x1833 PUSH1 0x20 DUP4 PUSH2 0x1BAF JUMP JUMPDEST SWAP2 POP PUSH2 0x183E DUP3 PUSH2 0x1E6B JUMP JUMPDEST PUSH1 0x20 DUP3 ADD SWAP1 POP SWAP2 SWAP1 POP JUMP JUMPDEST PUSH1 0x0 PUSH2 0x1856 PUSH1 0x4E DUP4 PUSH2 0x1BAF JUMP JUMPDEST SWAP2 POP PUSH2 0x1861 DUP3 PUSH2 0x1E94 JUMP JUMPDEST PUSH1 0x60 DUP3 ADD SWAP1 POP SWAP2 SWAP1 POP JUMP JUMPDEST PUSH1 0x0 PUSH2 0x1879 PUSH1 0x1B DUP4 PUSH2 0x1BAF JUMP JUMPDEST SWAP2 POP PUSH2 0x1884 DUP3 PUSH2 0x1F09 JUMP JUMPDEST PUSH1 0x20 DUP3 ADD SWAP1 POP SWAP2 SWAP1 POP JUMP JUMPDEST PUSH1 0x0 PUSH2 0x189C PUSH1 0x17 DUP4 PUSH2 0x1BAF JUMP JUMPDEST SWAP2 POP PUSH2 0x18A7 DUP3 PUSH2 0x1F32 JUMP JUMPDEST PUSH1 0x20 DUP3 ADD SWAP1 POP SWAP2 SWAP1 POP JUMP JUMPDEST PUSH1 0x0 PUSH2 0x18BF PUSH1 0x10 DUP4 PUSH2 0x1BAF JUMP JUMPDEST SWAP2 POP PUSH2 0x18CA DUP3 PUSH2 0x1F5B JUMP JUMPDEST PUSH1 0x20 DUP3 ADD SWAP1 POP SWAP2 SWAP1 POP JUMP JUMPDEST PUSH1 0x0 PUSH2 0x18E2 PUSH1 0x17 DUP4 PUSH2 0x1BC0 JUMP JUMPDEST SWAP2 POP PUSH2 0x18ED DUP3 PUSH2 0x1F84 JUMP JUMPDEST PUSH1 0x17 DUP3 ADD SWAP1 POP SWAP2 SWAP1 POP JUMP JUMPDEST PUSH1 0x0 PUSH2 0x1905 PUSH1 0x11 DUP4 PUSH2 0x1BC0 JUMP JUMPDEST SWAP2 POP PUSH2 0x1910 DUP3 PUSH2 0x1FAD JUMP JUMPDEST PUSH1 0x11 DUP3 ADD SWAP1 POP SWAP2 SWAP1 POP JUMP JUMPDEST PUSH1 0x0 PUSH2 0x1928 PUSH1 0x2F DUP4 PUSH2 0x1BAF JUMP JUMPDEST SWAP2 POP PUSH2 0x1933 DUP3 PUSH2 0x1FD6 JUMP JUMPDEST PUSH1 0x40 DUP3 ADD SWAP1 POP SWAP2 SWAP1 POP JUMP JUMPDEST PUSH2 0x1947 DUP2 PUSH2 0x1D20 JUMP JUMPDEST DUP3 MSTORE POP POP JUMP JUMPDEST PUSH1 0x0 PUSH2 0x1958 DUP3 PUSH2 0x18D5 JUMP JUMPDEST SWAP2 POP PUSH2 0x1964 DUP3 DUP6 PUSH2 0x17F5 JUMP JUMPDEST SWAP2 POP PUSH2 0x196F DUP3 PUSH2 0x18F8 JUMP JUMPDEST SWAP2 POP PUSH2 0x197B DUP3 DUP5 PUSH2 0x17F5 JUMP JUMPDEST SWAP2 POP DUP2 SWAP1 POP SWAP4 SWAP3 POP POP POP JUMP JUMPDEST PUSH1 0x0 PUSH1 0x60 DUP3 ADD SWAP1 POP PUSH2 0x199C PUSH1 0x0 DUP4 ADD DUP7 PUSH2 0x1780 JUMP JUMPDEST PUSH2 0x19A9 PUSH1 0x20 DUP4 ADD DUP6 PUSH2 0x1780 JUMP JUMPDEST PUSH2 0x19B6 PUSH1 0x40 DUP4 ADD DUP5 PUSH2 0x193E JUMP JUMPDEST SWAP5 SWAP4 POP POP POP POP JUMP JUMPDEST PUSH1 0x0 PUSH1 0xA0 DUP3 ADD SWAP1 POP PUSH2 0x19D3 PUSH1 0x0 DUP4 ADD DUP9 PUSH2 0x1780 JUMP JUMPDEST PUSH2 0x19E0 PUSH1 0x20 DUP4 ADD DUP8 PUSH2 0x1780 JUMP JUMPDEST PUSH2 0x19ED PUSH1 0x40 DUP4 ADD DUP7 PUSH2 0x193E JUMP JUMPDEST PUSH2 0x19FA PUSH1 0x60 DUP4 ADD DUP6 PUSH2 0x193E JUMP JUMPDEST PUSH2 0x1A07 PUSH1 0x80 DUP4 ADD DUP5 PUSH2 0x1780 JUMP JUMPDEST SWAP7 SWAP6 POP POP POP POP POP POP JUMP JUMPDEST PUSH1 0x0 PUSH1 0x40 DUP3 ADD SWAP1 POP PUSH2 0x1A26 PUSH1 0x0 DUP4 ADD DUP6 PUSH2 0x1780 JUMP JUMPDEST PUSH2 0x1A33 PUSH1 0x20 DUP4 ADD DUP5 PUSH2 0x17AD JUMP JUMPDEST SWAP4 SWAP3 POP POP POP JUMP JUMPDEST PUSH1 0x0 PUSH1 0x40 DUP3 ADD SWAP1 POP PUSH2 0x1A4F PUSH1 0x0 DUP4 ADD DUP6 PUSH2 0x1780 JUMP JUMPDEST PUSH2 0x1A5C PUSH1 0x20 DUP4 ADD DUP5 PUSH2 0x193E JUMP JUMPDEST SWAP4 SWAP3 POP POP POP JUMP JUMPDEST PUSH1 0x0 PUSH1 0x20 DUP3 ADD SWAP1 POP PUSH2 0x1A78 PUSH1 0x0 DUP4 ADD DUP5 PUSH2 0x178F JUMP JUMPDEST SWAP3 SWAP2 POP POP JUMP JUMPDEST PUSH1 0x0 PUSH1 0x20 DUP3 ADD SWAP1 POP PUSH2 0x1A93 PUSH1 0x0 DUP4 ADD DUP5 PUSH2 0x179E JUMP JUMPDEST SWAP3 SWAP2 POP POP JUMP JUMPDEST PUSH1 0x0 PUSH1 0x40 DUP3 ADD SWAP1 POP PUSH2 0x1AAE PUSH1 0x0 DUP4 ADD DUP6 PUSH2 0x179E JUMP JUMPDEST PUSH2 0x1ABB PUSH1 0x20 DUP4 ADD DUP5 PUSH2 0x1780 JUMP JUMPDEST SWAP4 SWAP3 POP POP POP JUMP JUMPDEST PUSH1 0x0 PUSH1 0x20 DUP3 ADD SWAP1 POP DUP2 DUP2 SUB PUSH1 0x0 DUP4 ADD MSTORE PUSH2 0x1ADC DUP2 DUP5 PUSH2 0x17BC JUMP JUMPDEST SWAP1 POP SWAP3 SWAP2 POP POP JUMP JUMPDEST PUSH1 0x0 PUSH1 0x20 DUP3 ADD SWAP1 POP DUP2 DUP2 SUB PUSH1 0x0 DUP4 ADD MSTORE PUSH2 0x1AFD DUP2 PUSH2 0x1826 JUMP JUMPDEST SWAP1 POP SWAP2 SWAP1 POP JUMP JUMPDEST PUSH1 0x0 PUSH1 0x20 DUP3 ADD SWAP1 POP DUP2 DUP2 SUB PUSH1 0x0 DUP4 ADD MSTORE PUSH2 0x1B1D DUP2 PUSH2 0x1849 JUMP JUMPDEST SWAP1 POP SWAP2 SWAP1 POP JUMP JUMPDEST PUSH1 0x0 PUSH1 0x20 DUP3 ADD SWAP1 POP DUP2 DUP2 SUB PUSH1 0x0 DUP4 ADD MSTORE PUSH2 0x1B3D DUP2 PUSH2 0x186C JUMP JUMPDEST SWAP1 POP SWAP2 SWAP1 POP JUMP JUMPDEST PUSH1 0x0 PUSH1 0x20 DUP3 ADD SWAP1 POP DUP2 DUP2 SUB PUSH1 0x0 DUP4 ADD MSTORE PUSH2 0x1B5D DUP2 PUSH2 0x188F JUMP JUMPDEST SWAP1 POP SWAP2 SWAP1 POP JUMP JUMPDEST PUSH1 0x0 PUSH1 0x20 DUP3 ADD SWAP1 POP DUP2 DUP2 SUB PUSH1 0x0 DUP4 ADD MSTORE PUSH2 0x1B7D DUP2 PUSH2 0x18B2 JUMP JUMPDEST SWAP1 POP SWAP2 SWAP1 POP JUMP JUMPDEST PUSH1 0x0 PUSH1 0x20 DUP3 ADD SWAP1 POP DUP2 DUP2 SUB PUSH1 0x0 DUP4 ADD MSTORE PUSH2 0x1B9D DUP2 PUSH2 0x191B JUMP JUMPDEST SWAP1 POP SWAP2 SWAP1 POP JUMP JUMPDEST PUSH1 0x0 DUP2 MLOAD SWAP1 POP SWAP2 SWAP1 POP JUMP JUMPDEST PUSH1 0x0 DUP3 DUP3 MSTORE PUSH1 0x20 DUP3 ADD SWAP1 POP SWAP3 SWAP2 POP POP JUMP JUMPDEST PUSH1 0x0 DUP2 SWAP1 POP SWAP3 SWAP2 POP POP JUMP JUMPDEST PUSH1 0x0 PUSH2 0x1BD6 DUP3 PUSH2 0x1D20 JUMP JUMPDEST SWAP2 POP PUSH2 0x1BE1 DUP4 PUSH2 0x1D20 JUMP JUMPDEST SWAP3 POP DUP3 PUSH32 0xFFFFFFFFFFFFFFFFFFFFFFFFFFFFFFFFFFFFFFFFFFFFFFFFFFFFFFFFFFFFFFFF SUB DUP3 GT ISZERO PUSH2 0x1C16 JUMPI PUSH2 0x1C15 PUSH2 0x1D99 JUMP JUMPDEST JUMPDEST DUP3 DUP3 ADD SWAP1 POP SWAP3 SWAP2 POP POP JUMP JUMPDEST PUSH1 0x0 PUSH2 0x1C2C DUP3 PUSH2 0x1D20 JUMP JUMPDEST SWAP2 POP PUSH2 0x1C37 DUP4 PUSH2 0x1D20 JUMP JUMPDEST SWAP3 POP DUP3 PUSH2 0x1C47 JUMPI PUSH2 0x1C46 PUSH2 0x1DC8 JUMP JUMPDEST JUMPDEST DUP3 DUP3 DIV SWAP1 POP SWAP3 SWAP2 POP POP JUMP JUMPDEST PUSH1 0x0 PUSH2 0x1C5D DUP3 PUSH2 0x1D20 JUMP JUMPDEST SWAP2 POP PUSH2 0x1C68 DUP4 PUSH2 0x1D20 JUMP JUMPDEST SWAP3 POP DUP2 PUSH32 0xFFFFFFFFFFFFFFFFFFFFFFFFFFFFFFFFFFFFFFFFFFFFFFFFFFFFFFFFFFFFFFFF DIV DUP4 GT DUP3 ISZERO ISZERO AND ISZERO PUSH2 0x1CA1 JUMPI PUSH2 0x1CA0 PUSH2 0x1D99 JUMP JUMPDEST JUMPDEST DUP3 DUP3 MUL SWAP1 POP SWAP3 SWAP2 POP POP JUMP JUMPDEST PUSH1 0x0 PUSH2 0x1CB7 DUP3 PUSH2 0x1D00 JUMP JUMPDEST SWAP1 POP SWAP2 SWAP1 POP JUMP JUMPDEST PUSH1 0x0 DUP2 ISZERO ISZERO SWAP1 POP SWAP2 SWAP1 POP JUMP JUMPDEST PUSH1 0x0 DUP2 SWAP1 POP SWAP2 SWAP1 POP JUMP JUMPDEST PUSH1 0x0 PUSH32 0xFFFFFFFF00000000000000000000000000000000000000000000000000000000 DUP3 AND SWAP1 POP SWAP2 SWAP1 POP JUMP JUMPDEST PUSH1 0x0 PUSH20 0xFFFFFFFFFFFFFFFFFFFFFFFFFFFFFFFFFFFFFFFF DUP3 AND SWAP1 POP SWAP2 SWAP1 POP JUMP JUMPDEST PUSH1 0x0 DUP2 SWAP1 POP SWAP2 SWAP1 POP JUMP JUMPDEST PUSH1 0x0 PUSH2 0x1D35 DUP3 PUSH2 0x1D20 JUMP JUMPDEST SWAP1 POP SWAP2 SWAP1 POP JUMP JUMPDEST PUSH1 0x0 JUMPDEST DUP4 DUP2 LT ISZERO PUSH2 0x1D5A JUMPI DUP1 DUP3 ADD MLOAD DUP2 DUP5 ADD MSTORE PUSH1 0x20 DUP2 ADD SWAP1 POP PUSH2 0x1D3F JUMP JUMPDEST DUP4 DUP2 GT ISZERO PUSH2 0x1D69 JUMPI PUSH1 0x0 DUP5 DUP5 ADD MSTORE JUMPDEST POP POP POP POP JUMP JUMPDEST PUSH1 0x0 PUSH2 0x1D7A DUP3 PUSH2 0x1D20 JUMP JUMPDEST SWAP2 POP PUSH1 0x0 DUP3 EQ ISZERO PUSH2 0x1D8E JUMPI PUSH2 0x1D8D PUSH2 0x1D99 JUMP JUMPDEST JUMPDEST PUSH1 0x1 DUP3 SUB SWAP1 POP SWAP2 SWAP1 POP JUMP JUMPDEST PUSH32 0x4E487B7100000000000000000000000000000000000000000000000000000000 PUSH1 0x0 MSTORE PUSH1 0x11 PUSH1 0x4 MSTORE PUSH1 0x24 PUSH1 0x0 REVERT JUMPDEST PUSH32 0x4E487B7100000000000000000000000000000000000000000000000000000000 PUSH1 0x0 MSTORE PUSH1 0x12 PUSH1 0x4 MSTORE PUSH1 0x24 PUSH1 0x0 REVERT JUMPDEST PUSH32 0x4E487B7100000000000000000000000000000000000000000000000000000000 PUSH1 0x0 MSTORE PUSH1 0x32 PUSH1 0x4 MSTORE PUSH1 0x24 PUSH1 0x0 REVERT JUMPDEST PUSH32 0x4E487B7100000000000000000000000000000000000000000000000000000000 PUSH1 0x0 MSTORE PUSH1 0x41 PUSH1 0x4 MSTORE PUSH1 0x24 PUSH1 0x0 REVERT JUMPDEST PUSH1 0x0 DUP1 REVERT JUMPDEST PUSH1 0x0 PUSH1 0x1F NOT PUSH1 0x1F DUP4 ADD AND SWAP1 POP SWAP2 SWAP1 POP JUMP JUMPDEST PUSH32 0x537472696E67733A20686578206C656E67746820696E73756666696369656E74 PUSH1 0x0 DUP3 ADD MSTORE POP JUMP JUMPDEST PUSH32 0x6F6E6C792061646D696E7320616E64206F6E6C792046726967672D6973737565 PUSH1 0x0 DUP3 ADD MSTORE PUSH32 0x6420746F6B656E732063616E2062652061646465642074686520746F6B656E20 PUSH1 0x20 DUP3 ADD MSTORE PUSH32 0x746F207468697320726F75746572000000000000000000000000000000000000 PUSH1 0x40 DUP3 ADD MSTORE POP JUMP JUMPDEST PUSH32 0x596F752063616E6E6F74206275792077697468203020746F6B656E0000000000 PUSH1 0x0 DUP3 ADD MSTORE POP JUMP JUMPDEST PUSH32 0x596F752063616E6E6F742073656C6C203020746F6B656E000000000000000000 PUSH1 0x0 DUP3 ADD MSTORE POP JUMP JUMPDEST PUSH32 0x4E65656420612055494420746F6B656E00000000000000000000000000000000 PUSH1 0x0 DUP3 ADD MSTORE POP JUMP JUMPDEST PUSH32 0x416363657373436F6E74726F6C3A206163636F756E7420000000000000000000 PUSH1 0x0 DUP3 ADD MSTORE POP JUMP JUMPDEST PUSH32 0x206973206D697373696E6720726F6C6520000000000000000000000000000000 PUSH1 0x0 DUP3 ADD MSTORE POP JUMP JUMPDEST PUSH32 0x416363657373436F6E74726F6C3A2063616E206F6E6C792072656E6F756E6365 PUSH1 0x0 DUP3 ADD MSTORE PUSH32 0x20726F6C657320666F722073656C660000000000000000000000000000000000 PUSH1 0x20 DUP3 ADD MSTORE POP JUMP JUMPDEST PUSH2 0x202E DUP2 PUSH2 0x1CAC JUMP JUMPDEST DUP2 EQ PUSH2 0x2039 JUMPI PUSH1 0x0 DUP1 REVERT JUMPDEST POP JUMP JUMPDEST PUSH2 0x2045 DUP2 PUSH2 0x1CBE JUMP JUMPDEST DUP2 EQ PUSH2 0x2050 JUMPI PUSH1 0x0 DUP1 REVERT JUMPDEST POP JUMP JUMPDEST PUSH2 0x205C DUP2 PUSH2 0x1CCA JUMP JUMPDEST DUP2 EQ PUSH2 0x2067 JUMPI PUSH1 0x0 DUP1 REVERT JUMPDEST POP JUMP JUMPDEST PUSH2 0x2073 DUP2 PUSH2 0x1CD4 JUMP JUMPDEST DUP2 EQ PUSH2 0x207E JUMPI PUSH1 0x0 DUP1 REVERT JUMPDEST POP JUMP JUMPDEST PUSH2 0x208A DUP2 PUSH2 0x1D20 JUMP JUMPDEST DUP2 EQ PUSH2 0x2095 JUMPI PUSH1 0x0 DUP1 REVERT JUMPDEST POP JUMP INVALID LOG2 PUSH5 0x6970667358 0x22 SLT KECCAK256 0xAC PUSH26 0xE52F140DAF0F4A81C203D00B1FEFCD7A53987FAA669E44E2C617 0xEC 0xC8 0xF8 DUP10 PUSH5 0x736F6C6343 STOP ADDMOD SMOD STOP CALLER "
				},
				"gasEstimates": {
					"creation": {
						"codeDepositCost": "1679600",
						"executionCost": "infinite",
						"totalCost": "infinite"
					},
					"external": {
						"DEFAULT_ADMIN_ROLE()": "401",
						"add(address,address,address,uint256,uint256,address)": "infinite",
						"buy(address,uint256)": "infinite",
						"getRoleAdmin(bytes32)": "infinite",
						"grantRole(bytes32,address)": "infinite",
						"hasRole(bytes32,address)": "3184",
						"renounceRole(bytes32,address)": "infinite",
						"revokeRole(bytes32,address)": "infinite",
						"sell(address,uint256)": "infinite",
						"supportsInterface(bytes4)": "728",
						"tokenData(address)": "infinite"
					}
				},
				"methodIdentifiers": {
					"DEFAULT_ADMIN_ROLE()": "a217fddf",
					"add(address,address,address,uint256,uint256,address)": "4cbe36ce",
					"buy(address,uint256)": "cce7ec13",
					"getRoleAdmin(bytes32)": "248a9ca3",
					"grantRole(bytes32,address)": "2f2ff15d",
					"hasRole(bytes32,address)": "91d14854",
					"renounceRole(bytes32,address)": "36568abe",
					"revokeRole(bytes32,address)": "d547741f",
					"sell(address,uint256)": "6c197ff5",
					"supportsInterface(bytes4)": "01ffc9a7",
					"tokenData(address)": "27e45c2c"
				}
			},
			"storageLayout": {
				"storage": [
					{
						"astId": 24,
						"contract": "contracts/Router/primaryRouter.sol:primaryRouter",
						"label": "_roles",
						"offset": 0,
						"slot": "0",
						"type": "t_mapping(t_bytes32,t_struct(RoleData)19_storage)"
					},
					{
						"astId": 920,
						"contract": "contracts/Router/primaryRouter.sol:primaryRouter",
						"label": "tokenData",
						"offset": 0,
						"slot": "1",
						"type": "t_mapping(t_address,t_struct(TokenData)931_storage)"
					}
				],
				"types": {
					"t_address": {
						"encoding": "inplace",
						"label": "address",
						"numberOfBytes": "20"
					},
					"t_bool": {
						"encoding": "inplace",
						"label": "bool",
						"numberOfBytes": "1"
					},
					"t_bytes32": {
						"encoding": "inplace",
						"label": "bytes32",
						"numberOfBytes": "32"
					},
					"t_mapping(t_address,t_bool)": {
						"encoding": "mapping",
						"key": "t_address",
						"label": "mapping(address => bool)",
						"numberOfBytes": "32",
						"value": "t_bool"
					},
					"t_mapping(t_address,t_struct(TokenData)931_storage)": {
						"encoding": "mapping",
						"key": "t_address",
						"label": "mapping(address => struct primaryRouter.TokenData)",
						"numberOfBytes": "32",
						"value": "t_struct(TokenData)931_storage"
					},
					"t_mapping(t_bytes32,t_struct(RoleData)19_storage)": {
						"encoding": "mapping",
						"key": "t_bytes32",
						"label": "mapping(bytes32 => struct AccessControl.RoleData)",
						"numberOfBytes": "32",
						"value": "t_struct(RoleData)19_storage"
					},
					"t_struct(RoleData)19_storage": {
						"encoding": "inplace",
						"label": "struct AccessControl.RoleData",
						"members": [
							{
								"astId": 16,
								"contract": "contracts/Router/primaryRouter.sol:primaryRouter",
								"label": "members",
								"offset": 0,
								"slot": "0",
								"type": "t_mapping(t_address,t_bool)"
							},
							{
								"astId": 18,
								"contract": "contracts/Router/primaryRouter.sol:primaryRouter",
								"label": "adminRole",
								"offset": 0,
								"slot": "1",
								"type": "t_bytes32"
							}
						],
						"numberOfBytes": "64"
					},
					"t_struct(TokenData)931_storage": {
						"encoding": "inplace",
						"label": "struct primaryRouter.TokenData",
						"members": [
							{
								"astId": 922,
								"contract": "contracts/Router/primaryRouter.sol:primaryRouter",
								"label": "issuer",
								"offset": 0,
								"slot": "0",
								"type": "t_address"
							},
							{
								"astId": 924,
								"contract": "contracts/Router/primaryRouter.sol:primaryRouter",
								"label": "uIdContract",
								"offset": 0,
								"slot": "1",
								"type": "t_address"
							},
							{
								"astId": 926,
								"contract": "contracts/Router/primaryRouter.sol:primaryRouter",
								"label": "issuancePrice",
								"offset": 0,
								"slot": "2",
								"type": "t_uint256"
							},
							{
								"astId": 928,
								"contract": "contracts/Router/primaryRouter.sol:primaryRouter",
								"label": "expiryPrice",
								"offset": 0,
								"slot": "3",
								"type": "t_uint256"
							},
							{
								"astId": 930,
								"contract": "contracts/Router/primaryRouter.sol:primaryRouter",
								"label": "issuanceTokenAddress",
								"offset": 0,
								"slot": "4",
								"type": "t_address"
							}
						],
						"numberOfBytes": "160"
					},
					"t_uint256": {
						"encoding": "inplace",
						"label": "uint256",
						"numberOfBytes": "32"
					}
				}
			},
			"userdoc": {
				"events": {
					"SuccessfulPurchase(address,address,uint256)": {
						"notice": "allow micrsite front-end to listen to events and show recent primary market activity "
					}
				},
				"kind": "user",
				"methods": {
					"sell(address,uint256)": {
						"notice": "At token expiry, token holders sell back tokens to issuersToken holders redeem the value of token at expiry"
					}
				},
				"version": 1
			}
		}
	}
}